{
  "address": "0x7BF13492D11eE0f129201247Cc3aCd59206D7503",
  "abi": [
    {
      "inputs": [
        {
          "internalType": "address",
          "name": "uniswapFactory_",
          "type": "address"
        },
        {
          "internalType": "address",
          "name": "arrakisFactory_",
          "type": "address"
        },
        {
          "internalType": "address",
          "name": "gaugeFactory_",
          "type": "address"
        },
        {
          "internalType": "address",
          "name": "staticManager_",
          "type": "address"
        },
        {
          "internalType": "address",
          "name": "resolver_",
          "type": "address"
        }
      ],
      "stateMutability": "nonpayable",
      "type": "constructor"
    },
    {
      "anonymous": false,
      "inputs": [
        {
          "indexed": false,
          "internalType": "address",
          "name": "vault",
          "type": "address"
        },
        {
          "indexed": false,
          "internalType": "address",
          "name": "gauge",
          "type": "address"
        },
        {
          "indexed": false,
          "internalType": "address",
          "name": "caller",
          "type": "address"
        },
        {
          "indexed": false,
          "internalType": "uint256",
          "name": "amount0",
          "type": "uint256"
        },
        {
          "indexed": false,
          "internalType": "uint256",
          "name": "amount1",
          "type": "uint256"
        }
      ],
      "name": "CreateStaticVault",
      "type": "event"
    },
    {
      "inputs": [],
      "name": "arrakisFactory",
      "outputs": [
        {
          "internalType": "contract IArrakisV2Factory",
          "name": "",
          "type": "address"
        }
      ],
      "stateMutability": "view",
      "type": "function"
    },
    {
      "inputs": [
        {
          "components": [
            {
              "components": [
                {
                  "internalType": "uint128",
                  "name": "liquidity",
                  "type": "uint128"
                },
                {
                  "components": [
                    {
                      "internalType": "int24",
                      "name": "lowerTick",
                      "type": "int24"
                    },
                    {
                      "internalType": "int24",
                      "name": "upperTick",
                      "type": "int24"
                    },
                    {
                      "internalType": "uint24",
                      "name": "feeTier",
                      "type": "uint24"
                    }
                  ],
                  "internalType": "struct Range",
                  "name": "range",
                  "type": "tuple"
                }
              ],
              "internalType": "struct PositionLiquidity[]",
              "name": "positions",
              "type": "tuple[]"
            },
            {
              "internalType": "uint24[]",
              "name": "feeTiers",
              "type": "uint24[]"
            },
            {
              "internalType": "address",
              "name": "token0",
              "type": "address"
            },
            {
              "internalType": "address",
              "name": "token1",
              "type": "address"
            },
            {
              "internalType": "address",
              "name": "receiver",
              "type": "address"
            },
            {
              "internalType": "uint256",
              "name": "minDeposit0",
              "type": "uint256"
            },
            {
              "internalType": "uint256",
              "name": "minDeposit1",
              "type": "uint256"
            },
            {
              "internalType": "uint256",
              "name": "maxDeposit0",
              "type": "uint256"
            },
            {
              "internalType": "uint256",
              "name": "maxDeposit1",
              "type": "uint256"
            },
            {
              "components": [
                {
                  "internalType": "int24",
                  "name": "twapDeviation",
                  "type": "int24"
                },
                {
                  "internalType": "uint24",
                  "name": "twapDuration",
                  "type": "uint24"
                },
                {
                  "internalType": "bool",
                  "name": "compoundEnabled",
                  "type": "bool"
                }
              ],
              "internalType": "struct StaticVaultInfo",
              "name": "vaultInfo",
              "type": "tuple"
            },
            {
              "internalType": "address",
              "name": "rewardToken",
              "type": "address"
            },
            {
              "internalType": "address",
              "name": "rewardDistributor",
              "type": "address"
            }
          ],
          "internalType": "struct InitializeStatic",
          "name": "params_",
          "type": "tuple"
        }
      ],
      "name": "deployStaticVault",
      "outputs": [
        {
          "internalType": "address",
          "name": "vault",
          "type": "address"
        },
        {
          "internalType": "address",
          "name": "gauge",
          "type": "address"
        }
      ],
      "stateMutability": "nonpayable",
      "type": "function"
    },
    {
      "inputs": [],
      "name": "gaugeFactory",
      "outputs": [
        {
          "internalType": "contract IArrakisV2GaugeFactory",
          "name": "",
          "type": "address"
        }
      ],
      "stateMutability": "view",
      "type": "function"
    },
    {
      "inputs": [],
      "name": "managerFeeBPS",
      "outputs": [
        {
          "internalType": "uint16",
          "name": "",
          "type": "uint16"
        }
      ],
      "stateMutability": "view",
      "type": "function"
    },
    {
      "inputs": [],
      "name": "resolver",
      "outputs": [
        {
          "internalType": "contract IArrakisV2Resolver",
          "name": "",
          "type": "address"
        }
      ],
      "stateMutability": "view",
      "type": "function"
    },
    {
      "inputs": [],
      "name": "staticManager",
      "outputs": [
        {
          "internalType": "contract IArrakisV2StaticManager",
          "name": "",
          "type": "address"
        }
      ],
      "stateMutability": "view",
      "type": "function"
    },
    {
      "inputs": [],
      "name": "uniswapFactory",
      "outputs": [
        {
          "internalType": "contract IUniswapV3Factory",
          "name": "",
          "type": "address"
        }
      ],
      "stateMutability": "view",
      "type": "function"
    }
  ],
  "transactionHash": "0x10e936cf7135df805b3fd0e053b20ac4c18d6d3b700028d4be55acb37c755641",
  "args": [
    "0x1F98431c8aD98523631AE4a59f267346ea31F984",
    "0xECb8Ffcb2369EF188A082a662F496126f66c8288",
    "0xac31a467549595cC715Dfa3e1EA20A6f52E29681",
    "0x2b63A0251D7E5Ae0407Fb8C8DDF4037958732382",
    "0xb11bb8ad710579Cc5ED16b1C8587808109c1f193"
  ],
  "numDeployments": 1,
  "solcInputHash": "2043bc1fc6d2ff67195ec4a27a987add",
  "bytecode": "0x6101206040523480156200001257600080fd5b5060405162001bc738038062001bc7833981016040819052620000359162000111565b6001600160a01b038516158015906200005657506001600160a01b03841615155b80156200006b57506001600160a01b03831615155b80156200008057506001600160a01b03821615155b80156200009557506001600160a01b03811615155b620000ca5760405162461bcd60e51b81526020600482015260016024820152602d60f91b604482015260640160405180910390fd5b6001600160a01b0394851660805292841660a05290831660c052821660e052166101005262000181565b80516001600160a01b03811681146200010c57600080fd5b919050565b600080600080600060a086880312156200012a57600080fd5b6200013586620000f4565b94506200014560208701620000f4565b93506200015560408701620000f4565b92506200016560608701620000f4565b91506200017560808701620000f4565b90509295509295909350565b60805160a05160c05160e051610100516119d3620001f46000396000818160870152610bd8015260008181610140015281816101b4015281816106e6015261074e01526000818160cb015261085c01526000818160f2015261035301526000818161011901526109e901526119d36000f3fe608060405234801561001057600080fd5b506004361061007d5760003560e01c80638bdb2afa1161005b5780638bdb2afa146101145780639d7dc0e91461013b578063ccdf7a0214610162578063fe8cd5611461017d57600080fd5b806304f3bcec146100825780630d52333c146100c6578063146e88bb146100ed575b600080fd5b6100a97f000000000000000000000000000000000000000000000000000000000000000081565b6040516001600160a01b0390911681526020015b60405180910390f35b6100a97f000000000000000000000000000000000000000000000000000000000000000081565b6100a97f000000000000000000000000000000000000000000000000000000000000000081565b6100a97f000000000000000000000000000000000000000000000000000000000000000081565b6100a97f000000000000000000000000000000000000000000000000000000000000000081565b61016a6101b0565b60405161ffff90911681526020016100bd565b61019061018b36600461120e565b610239565b604080516001600160a01b039384168152929091166020830152016100bd565b60007f00000000000000000000000000000000000000000000000000000000000000006001600160a01b031663ccdf7a026040518163ffffffff1660e01b8152600401602060405180830381865afa158015610210573d6000803e3d6000fd5b505050506040513d601f19601f820116820180604052508101906102349190611261565b905090565b60008080806102c361024b868061127c565b808060200260200160405190810160405280939291908181526020016000905b828210156102975761028860808302860136819003810190611329565b8152602001906001019061026b565b506102ae93505060608a0191505060408901611406565b6102be6080890160608a01611406565b6109d6565b915091508460a0013582101580156102df57508460c001358110155b80156102ef57508460e001358211155b801561030057508461010001358111155b6103515760405162461bcd60e51b815260206004820152600860248201527f736c69707061676500000000000000000000000000000000000000000000000060448201526064015b60405180910390fd5b7f00000000000000000000000000000000000000000000000000000000000000006001600160a01b0316637c0f7e7b60405180610100016040528088806020019061039c9190611423565b808060200260200160405190810160405280939291908181526020018383602002808284376000920191909152505050908252506020016103e360608a0160408b01611406565b6001600160a01b0316815260200161040160808a0160608b01611406565b6001600160a01b0316815230602082018190526040820187905260608201869052608082015260a0016000604051908082528060200260200182016040528015610455578160200160208202803683370190505b5081525060016040518363ffffffff1660e01b81526004016104789291906114b1565b6020604051808303816000875af1158015610497573d6000803e3d6000fd5b505050506040513d601f19601f820116820180604052508101906104bb91906115a7565b93506104e284836104d26060890160408a01611406565b6001600160a01b03169190610d25565b6104f784826104d26080890160608a01611406565b81156105245761052433308461051360608a0160408b01611406565b6001600160a01b0316929190610ec0565b80156105405761054033308361051360808a0160608b01611406565b6001600160a01b0384166394bf804d670de0b6b3a764000061056860a0890160808a01611406565b6040516001600160e01b031960e085901b16815260048101929092526001600160a01b0316602482015260440160408051808303816000875af11580156105b3573d6000803e3d6000fd5b505050506040513d601f19601f820116820180604052508101906105d791906115c4565b50506105e1611196565b6105eb868061127c565b808060200260200160405190810160405280939291908181526020016000905b828210156106375761062860808302860136819003810190611329565b8152602001906001019061060b565b505050505060208201526040517f8712e4970000000000000000000000000000000000000000000000000000000081526001600160a01b03861690638712e497906106869084906004016116af565b600060405180830381600087803b1580156106a057600080fd5b505af11580156106b4573d6000803e3d6000fd5b50506040517fd0ebdbe70000000000000000000000000000000000000000000000000000000081526001600160a01b037f0000000000000000000000000000000000000000000000000000000000000000811660048301528816925063d0ebdbe79150602401600060405180830381600087803b15801561073457600080fd5b505af1158015610748573d6000803e3d6000fd5b505050507f00000000000000000000000000000000000000000000000000000000000000006001600160a01b0316638d8110976040518060400160405280886001600160a01b0316815260200189610120018036038101906107aa9190611788565b9052604080516001600160e01b031960e085901b16815282516001600160a01b03166004820152602092830151805160020b60248301529283015162ffffff16604482015291015115156064820152608401600060405180830381600087803b15801561081657600080fd5b505af115801561082a573d6000803e3d6000fd5b50600092506108449150506101a088016101808901611406565b6001600160a01b031614610923576001600160a01b037f00000000000000000000000000000000000000000000000000000000000000001663de918865866108946101a08a016101808b01611406565b6108a66101c08b016101a08c01611406565b60405160e085901b6001600160e01b03191681526001600160a01b039384166004820152918316602483015290911660448201526064016020604051808303816000875af11580156108fc573d6000803e3d6000fd5b505050506040513d601f19601f8201168201806040525081019061092091906115a7565b93505b846001600160a01b031663715018a66040518163ffffffff1660e01b8152600401600060405180830381600087803b15801561095e57600080fd5b505af1158015610972573d6000803e3d6000fd5b5050604080516001600160a01b038981168252881660208201523381830152606081018790526080810186905290517f8a9db22083bb4b1822884525c001433f28475cfc1213ddd93acaa0a9e042c71393509081900360a0019150a1505050915091565b60008060005b8551811015610d1c5760007f00000000000000000000000000000000000000000000000000000000000000006001600160a01b0316631698ee8287878a8681518110610a2a57610a2a611806565b602090810291909101810151015160409081015190516001600160e01b031960e086901b1681526001600160a01b03938416600482015292909116602483015262ffffff166044820152606401602060405180830381865afa158015610a94573d6000803e3d6000fd5b505050506040513d601f19601f82011682018060405250810190610ab891906115a7565b90506000816001600160a01b0316633850c7bd6040518163ffffffff1660e01b815260040160e060405180830381865afa158015610afa573d6000803e3d6000fd5b505050506040513d601f19601f82011682018060405250810190610b1e919061181c565b505050505050905060026fffffffffffffffffffffffffffffffff610b4391906118ca565b6fffffffffffffffffffffffffffffffff16888481518110610b6757610b67611806565b6020026020010151600001516fffffffffffffffffffffffffffffffff161115610bd35760405162461bcd60e51b815260206004820152600860248201527f6f766572666c6f770000000000000000000000000000000000000000000000006044820152606401610348565b6000807f00000000000000000000000000000000000000000000000000000000000000006001600160a01b03166392bb0ac8848c8881518110610c1857610c18611806565b602002602001015160200151600001518d8981518110610c3a57610c3a611806565b602002602001015160200151602001518e8a81518110610c5c57610c5c611806565b6020908102919091010151516040516001600160e01b031960e087901b1681526001600160a01b039094166004850152600292830b6024850152910b6044830152600f0b60648201526084016040805180830381865afa158015610cc4573d6000803e3d6000fd5b505050506040513d601f19601f82011682018060405250810190610ce891906115c4565b9092509050610cf78288611907565b9650610d038187611907565b9550505050508080610d149061191f565b9150506109dc565b50935093915050565b801580610db857506040517fdd62ed3e0000000000000000000000000000000000000000000000000000000081523060048201526001600160a01b03838116602483015284169063dd62ed3e90604401602060405180830381865afa158015610d92573d6000803e3d6000fd5b505050506040513d601f19601f82011682018060405250810190610db69190611938565b155b610e2a5760405162461bcd60e51b815260206004820152603660248201527f5361666545524332303a20617070726f76652066726f6d206e6f6e2d7a65726f60448201527f20746f206e6f6e2d7a65726f20616c6c6f77616e6365000000000000000000006064820152608401610348565b6040516001600160a01b038316602482015260448101829052610ebb9084907f095ea7b300000000000000000000000000000000000000000000000000000000906064015b60408051601f198184030181529190526020810180517bffffffffffffffffffffffffffffffffffffffffffffffffffffffff166001600160e01b031990931692909217909152610f17565b505050565b6040516001600160a01b0380851660248301528316604482015260648101829052610f119085907f23b872dd0000000000000000000000000000000000000000000000000000000090608401610e6f565b50505050565b6000610f6c826040518060400160405280602081526020017f5361666545524332303a206c6f772d6c6576656c2063616c6c206661696c6564815250856001600160a01b0316610ffc9092919063ffffffff16565b805190915015610ebb5780806020019051810190610f8a9190611951565b610ebb5760405162461bcd60e51b815260206004820152602a60248201527f5361666545524332303a204552433230206f7065726174696f6e20646964206e60448201527f6f742073756363656564000000000000000000000000000000000000000000006064820152608401610348565b606061100b8484600085611015565b90505b9392505050565b60608247101561108d5760405162461bcd60e51b815260206004820152602660248201527f416464726573733a20696e73756666696369656e742062616c616e636520666f60448201527f722063616c6c00000000000000000000000000000000000000000000000000006064820152608401610348565b6001600160a01b0385163b6110e45760405162461bcd60e51b815260206004820152601d60248201527f416464726573733a2063616c6c20746f206e6f6e2d636f6e74726163740000006044820152606401610348565b600080866001600160a01b03168587604051611100919061196e565b60006040518083038185875af1925050503d806000811461113d576040519150601f19603f3d011682016040523d82523d6000602084013e611142565b606091505b509150915061115282828661115d565b979650505050505050565b6060831561116c57508161100e565b82511561117c5782518084602001fd5b8160405162461bcd60e51b8152600401610348919061198a565b6040518060e0016040528060608152602001606081526020016111ec6040518060a001604052806060815260200160006001600160a01b0316815260200160008152602001600081526020016000151581525090565b8152602001600081526020016000815260200160008152602001600081525090565b60006020828403121561122057600080fd5b813567ffffffffffffffff81111561123757600080fd5b82016101c0818503121561100e57600080fd5b805161ffff8116811461125c57600080fd5b919050565b60006020828403121561127357600080fd5b61100e8261124a565b6000808335601e1984360301811261129357600080fd5b83018035915067ffffffffffffffff8211156112ae57600080fd5b6020019150600781901b36038213156112c657600080fd5b9250929050565b6040516060810167ffffffffffffffff811182821017156112fe57634e487b7160e01b600052604160045260246000fd5b60405290565b8060020b811461131357600080fd5b50565b803562ffffff8116811461125c57600080fd5b6000818303608081121561133c57600080fd5b6040516040810181811067ffffffffffffffff8211171561136d57634e487b7160e01b600052604160045260246000fd5b60405283356fffffffffffffffffffffffffffffffff8116811461139057600080fd5b81526060601f19830112156113a457600080fd5b6113ac6112cd565b915060208401356113bc81611304565b825260408401356113cc81611304565b60208301526113dd60608501611316565b604083015260208101919091529392505050565b6001600160a01b038116811461131357600080fd5b60006020828403121561141857600080fd5b813561100e816113f1565b6000808335601e1984360301811261143a57600080fd5b83018035915067ffffffffffffffff82111561145557600080fd5b6020019150600581901b36038213156112c657600080fd5b600081518084526020808501945080840160005b838110156114a65781516001600160a01b031687529582019590820190600101611481565b509495945050505050565b6040808252835161010091830182905280516101408401819052600092602092830191610160860190855b818110156114fd57845162ffffff16835293850193918501916001016114dc565b5050878401516001600160a01b0381166060880152925060408801516001600160a01b0381166080880152925060608801516001600160a01b03811660a08801529250608088015160c087015260a088015160e087015260c0880151925061156f828701846001600160a01b03169052565b60e0880151868203603f1901610120880152925061158d818461146d565b945050505061159f8184018515159052565b509392505050565b6000602082840312156115b957600080fd5b815161100e816113f1565b600080604083850312156115d757600080fd5b505080516020909101519092909150565b600081518084526020808501945080840160005b838110156114a657815180516fffffffffffffffffffffffffffffffff1688528301518051600290810b858a015281850151900b6040808a0191909152015162ffffff166060880152608090960195908201906001016115fc565b60005b8381101561167257818101518382015260200161165a565b83811115610f115750506000910152565b6000815180845261169b816020860160208601611657565b601f01601f19169290920160200192915050565b602081526000825160e060208401526116cc6101008401826115e8565b90506020840151601f19808584030160408601526116ea83836115e8565b9250604086015191508085840301606086015250805160a0835261171160a0840182611683565b90506001600160a01b036020830151166020840152604082015160408401526060820151606084015260808201511515608084015260608601516080860152608086015160a086015260a086015160c086015260c086015160e086015280935050505092915050565b801515811461131357600080fd5b60006060828403121561179a57600080fd5b6040516060810181811067ffffffffffffffff821117156117cb57634e487b7160e01b600052604160045260246000fd5b60405282356117d981611304565b81526117e760208401611316565b602082015260408301356117fa8161177a565b60408201529392505050565b634e487b7160e01b600052603260045260246000fd5b600080600080600080600060e0888a03121561183757600080fd5b8751611842816113f1565b602089015190975061185381611304565b95506118616040890161124a565b945061186f6060890161124a565b935061187d6080890161124a565b925060a088015160ff8116811461189357600080fd5b60c08901519092506118a48161177a565b8091505092959891949750929550565b634e487b7160e01b600052601160045260246000fd5b60006fffffffffffffffffffffffffffffffff808416806118fb57634e487b7160e01b600052601260045260246000fd5b92169190910492915050565b6000821982111561191a5761191a6118b4565b500190565b600060018201611931576119316118b4565b5060010190565b60006020828403121561194a57600080fd5b5051919050565b60006020828403121561196357600080fd5b815161100e8161177a565b60008251611980818460208701611657565b9190910192915050565b60208152600061100e602083018461168356fea264697066735822122023addca33a0c00e24f287974920bec55fcdb60f8d655117b2058de50e35e195464736f6c634300080d0033",
  "devdoc": {
    "kind": "dev",
    "methods": {},
    "version": 1
  },
  "userdoc": {
    "kind": "user",
    "methods": {},
    "version": 1
  },
  "storageLayout": {
    "storage": [],
    "types": null
  }
}