{
  "address": "0xD5f602aEdFC917B085B2216d2361441dB70D5ae8",
  "abi": [
    {
      "inputs": [
        {
          "internalType": "address",
          "name": "helper_",
          "type": "address"
        },
        {
          "internalType": "uint16",
          "name": "managerFeeBPS_",
          "type": "uint16"
        }
      ],
      "stateMutability": "nonpayable",
      "type": "constructor"
    },
    {
      "anonymous": false,
      "inputs": [
        {
          "indexed": false,
          "internalType": "address",
          "name": "vault",
          "type": "address"
        },
        {
          "indexed": false,
          "internalType": "address",
          "name": "caller",
          "type": "address"
        },
        {
          "indexed": false,
          "internalType": "uint256",
          "name": "growthBPS",
          "type": "uint256"
        }
      ],
      "name": "Compound",
      "type": "event"
    },
    {
      "anonymous": false,
      "inputs": [
        {
          "indexed": false,
          "internalType": "uint8",
          "name": "version",
          "type": "uint8"
        }
      ],
      "name": "Initialized",
      "type": "event"
    },
    {
      "anonymous": false,
      "inputs": [
        {
          "indexed": true,
          "internalType": "address",
          "name": "previousOwner",
          "type": "address"
        },
        {
          "indexed": true,
          "internalType": "address",
          "name": "newOwner",
          "type": "address"
        }
      ],
      "name": "OwnershipTransferred",
      "type": "event"
    },
    {
      "anonymous": false,
      "inputs": [
        {
          "indexed": false,
          "internalType": "address",
          "name": "account",
          "type": "address"
        }
      ],
      "name": "Paused",
      "type": "event"
    },
    {
      "anonymous": false,
      "inputs": [
        {
          "indexed": false,
          "internalType": "address",
          "name": "account",
          "type": "address"
        }
      ],
      "name": "Unpaused",
      "type": "event"
    },
    {
      "inputs": [
        {
          "internalType": "contract IArrakisV2",
          "name": "vault_",
          "type": "address"
        }
      ],
      "name": "compoundFees",
      "outputs": [],
      "stateMutability": "nonpayable",
      "type": "function"
    },
    {
      "inputs": [],
      "name": "deployer",
      "outputs": [
        {
          "internalType": "address",
          "name": "",
          "type": "address"
        }
      ],
      "stateMutability": "view",
      "type": "function"
    },
    {
      "inputs": [],
      "name": "helper",
      "outputs": [
        {
          "internalType": "contract IArrakisV2Helper",
          "name": "",
          "type": "address"
        }
      ],
      "stateMutability": "view",
      "type": "function"
    },
    {
      "inputs": [
        {
          "internalType": "address",
          "name": "owner_",
          "type": "address"
        }
      ],
      "name": "initialize",
      "outputs": [],
      "stateMutability": "nonpayable",
      "type": "function"
    },
    {
      "inputs": [],
      "name": "managerFeeBPS",
      "outputs": [
        {
          "internalType": "uint16",
          "name": "",
          "type": "uint16"
        }
      ],
      "stateMutability": "view",
      "type": "function"
    },
    {
      "inputs": [],
      "name": "owner",
      "outputs": [
        {
          "internalType": "address",
          "name": "",
          "type": "address"
        }
      ],
      "stateMutability": "view",
      "type": "function"
    },
    {
      "inputs": [],
      "name": "pause",
      "outputs": [],
      "stateMutability": "nonpayable",
      "type": "function"
    },
    {
      "inputs": [],
      "name": "paused",
      "outputs": [
        {
          "internalType": "bool",
          "name": "",
          "type": "bool"
        }
      ],
      "stateMutability": "view",
      "type": "function"
    },
    {
      "inputs": [],
      "name": "renounceOwnership",
      "outputs": [],
      "stateMutability": "nonpayable",
      "type": "function"
    },
    {
      "inputs": [
        {
          "internalType": "address",
          "name": "deployer_",
          "type": "address"
        }
      ],
      "name": "setDeployer",
      "outputs": [],
      "stateMutability": "nonpayable",
      "type": "function"
    },
    {
      "inputs": [
        {
          "components": [
            {
              "internalType": "address",
              "name": "vault",
              "type": "address"
            },
            {
              "components": [
                {
                  "internalType": "int24",
                  "name": "twapDeviation",
                  "type": "int24"
                },
                {
                  "internalType": "uint24",
                  "name": "twapDuration",
                  "type": "uint24"
                },
                {
                  "internalType": "bool",
                  "name": "compoundEnabled",
                  "type": "bool"
                }
              ],
              "internalType": "struct StaticVaultInfo",
              "name": "vaultInfo",
              "type": "tuple"
            }
          ],
          "internalType": "struct SetStaticVault",
          "name": "params_",
          "type": "tuple"
        }
      ],
      "name": "setStaticVault",
      "outputs": [],
      "stateMutability": "nonpayable",
      "type": "function"
    },
    {
      "inputs": [
        {
          "internalType": "address",
          "name": "newOwner",
          "type": "address"
        }
      ],
      "name": "transferOwnership",
      "outputs": [],
      "stateMutability": "nonpayable",
      "type": "function"
    },
    {
      "inputs": [],
      "name": "unpause",
      "outputs": [],
      "stateMutability": "nonpayable",
      "type": "function"
    },
    {
      "inputs": [
        {
          "internalType": "address",
          "name": "",
          "type": "address"
        }
      ],
      "name": "vaults",
      "outputs": [
        {
          "internalType": "int24",
          "name": "twapDeviation",
          "type": "int24"
        },
        {
          "internalType": "uint24",
          "name": "twapDuration",
          "type": "uint24"
        },
        {
          "internalType": "bool",
          "name": "compoundEnabled",
          "type": "bool"
        }
      ],
      "stateMutability": "view",
      "type": "function"
    },
    {
      "inputs": [
        {
          "internalType": "contract IArrakisV2[]",
          "name": "vaults_",
          "type": "address[]"
        },
        {
          "internalType": "contract IERC20[]",
          "name": "tokens_",
          "type": "address[]"
        },
        {
          "internalType": "address",
          "name": "target",
          "type": "address"
        }
      ],
      "name": "withdrawAndCollectFees",
      "outputs": [],
      "stateMutability": "nonpayable",
      "type": "function"
    }
  ],
  "transactionHash": "0x0046c817b57eda3be39312ff33a0653dfe5ca2d1d09bf536b0abb02452e38f34",
  "args": [
    "0x07d2CeB4869DFE17e8D48c92A71eDC3AE564449f",
    500
  ],
  "numDeployments": 1,
  "solcInputHash": "2043bc1fc6d2ff67195ec4a27a987add",
  "bytecode": "0x60c06040523480156200001157600080fd5b506040516200295c3803806200295c8339810160408190526200003491620000d2565b81816001600160a01b038216620000765760405162461bcd60e51b81526020600482015260016024820152602d60f91b60448201526064015b60405180910390fd5b6001600160a01b03821660805261271061ffff82161115620000c15760405162461bcd60e51b815260206004820152600360248201526262707360e81b60448201526064016200006d565b61ffff1660a0525062000122915050565b60008060408385031215620000e657600080fd5b82516001600160a01b0381168114620000fe57600080fd5b602084015190925061ffff811681146200011757600080fd5b809150509250929050565b60805160a0516127ff6200015d600039600081816102360152610c68015260008181610124015281816103b4015261065f01526127ff6000f3fe608060405234801561001057600080fd5b50600436106100f55760003560e01c80638da5cb5b11610097578063ccdf7a0211610066578063ccdf7a0214610231578063d5f394881461026b578063e04e20ff1461027e578063f2fde38b1461029157600080fd5b80638da5cb5b1461019457806396214735146101a5578063a622ee7c146101b8578063c4d66de81461021e57600080fd5b8063683b8b61116100d3578063683b8b611461015e578063715018a6146101715780638456cb59146101795780638d8110971461018157600080fd5b80633f4ba83a146100fa5780635c975abb1461010457806363b0e66a1461011f575b600080fd5b6101026102a4565b005b60655460ff1660405190151581526020015b60405180910390f35b6101467f000000000000000000000000000000000000000000000000000000000000000081565b6040516001600160a01b039091168152602001610116565b61010261016c366004611cc5565b6102b6565b61010261099c565b6101026109ae565b61010261018f366004611ce2565b6109be565b6033546001600160a01b0316610146565b6101026101b3366004611cc5565b610d10565b6101f86101c6366004611cc5565b609860205260009081526040902054600281900b906301000000810462ffffff16906601000000000000900460ff1683565b6040805160029490940b845262ffffff9092166020840152151590820152606001610116565b61010261022c366004611cc5565b610d47565b6102587f000000000000000000000000000000000000000000000000000000000000000081565b60405161ffff9091168152602001610116565b609754610146906001600160a01b031681565b61010261028c366004611d46565b610ec7565b61010261029f366004611cc5565b6111e4565b6102ac611274565b6102b46112ce565b565b6102be611320565b6001600160a01b03811660009081526098602090815260409182902082516060810184529054600281900b82526301000000810462ffffff1692820192909252660100000000000090910460ff161515918101829052906103665760405162461bcd60e51b815260206004820152601060248201527f63616e6e6f7420726562616c616e63650000000000000000000000000000000060448201526064015b60405180910390fd5b6103798282602001518360000151611373565b6040517fe9b7218a0000000000000000000000000000000000000000000000000000000081526001600160a01b0383811660048301526000917f00000000000000000000000000000000000000000000000000000000000000009091169063e9b7218a9060240160c060405180830381865afa1580156103fd573d6000803e3d6000fd5b505050506040513d601f19601f820116820180604052508101906104219190611e5d565b8051909150151580610437575060008160200151115b6104835760405162461bcd60e51b815260206004820152600b60248201527f7661756c7420656d707479000000000000000000000000000000000000000000604482015260640161035d565b6000836001600160a01b031663ccdf7a026040518163ffffffff1660e01b8152600401602060405180830381865afa1580156104c3573d6000803e3d6000fd5b505050506040513d601f19601f820116820180604052508101906104e79190611eee565b9050600061050d8360400151836127106105019190611f1f565b61ffff16612710611426565b905060006105278460600151846127106105019190611f1f565b9050600082856080015161053b9190611f42565b85516105479190611f5a565b90506000828660a0015161055b9190611f42565b866020015161056a9190611f5a565b9050600080831161057d57600019610599565b6105998588608001516105909190611f42565b61271085611426565b905060008083116105ac576000196105bf565b6105bf858960a001516105909190611f42565b905060008183106105d057816105d2565b825b9050600081116106245760405162461bcd60e51b815260206004820152601360248201527f6e6f7468696e6720746f207265696e7665737400000000000000000000000000604482015260640161035d565b6040517fc56326de0000000000000000000000000000000000000000000000000000000081526001600160a01b038c811660048301526000917f00000000000000000000000000000000000000000000000000000000000000009091169063c56326de90602401600060405180830381865afa1580156106a8573d6000803e3d6000fd5b505050506040513d6000823e601f3d908101601f191682016040526106d09190810190611fb5565b90506000815167ffffffffffffffff8111156106ee576106ee611dca565b60405190808252806020026020018201604052801561075257816020015b61073f60408051808201825260008082528251606081018452818152602081810183905293810191909152909182015290565b81526020019060019003908161070c5790505b50905060005b82518110156108a85760006107a3848381518110610778576107786120d6565b6020026020010151600001516fffffffffffffffffffffffffffffffff168661271061ffff16611426565b905070010000000000000000000000000000000081106108055760405162461bcd60e51b815260206004820152601060248201527f6f766572666c6f772075696e7431323800000000000000000000000000000000604482015260640161035d565b60008185848151811061081a5761081a6120d6565b60200260200101516000015161083091906120ec565b90506040518060400160405280826fffffffffffffffffffffffffffffffff168152602001868581518110610867576108676120d6565b602002602001015160200151815250848481518110610888576108886120d6565b6020026020010181905250505080806108a090612120565b915050610758565b506108b1611c38565b828152602081018290526040517f8712e4970000000000000000000000000000000000000000000000000000000081526001600160a01b038f1690638712e4979061090090849060040161220f565b600060405180830381600087803b15801561091a57600080fd5b505af115801561092e573d6000803e3d6000fd5b505050507f6c7e7d4cb83a668aef31739dd35dc3fc3d5f31d62b69e438b7b24d35b40dcc638e3386604051610984939291906001600160a01b039384168152919092166020820152604081019190915260600190565b60405180910390a15050505050505050505050505050565b6109a4611274565b6102b460006114da565b6109b6611274565b6102b4611539565b6097546001600160a01b03163314610a185760405162461bcd60e51b815260206004820152600d60248201527f6f6e6c79206465706c6f79657200000000000000000000000000000000000000604482015260640161035d565b610a2860808201606083016122e8565b15610aaf576000610a3f6040830160208401612305565b60020b138015610a6357506000610a5c6060830160408401612322565b62ffffff16115b610aaf5760405162461bcd60e51b815260206004820152600260248201527f444e000000000000000000000000000000000000000000000000000000000000604482015260640161035d565b610abc6020820182611cc5565b6001600160a01b0316638da5cb5b6040518163ffffffff1660e01b8152600401602060405180830381865afa158015610af9573d6000803e3d6000fd5b505050506040513d601f19601f82011682018060405250810190610b1d919061233f565b6001600160a01b0316336001600160a01b031614610b7d5760405162461bcd60e51b815260206004820152600260248201527f4e4f000000000000000000000000000000000000000000000000000000000000604482015260640161035d565b610b8a6020820182611cc5565b6001600160a01b031663481c6a756040518163ffffffff1660e01b8152600401602060405180830381865afa158015610bc7573d6000803e3d6000fd5b505050506040513d601f19601f82011682018060405250810190610beb919061233f565b6001600160a01b0316306001600160a01b031614610c305760405162461bcd60e51b81526020600482015260026024820152614e4d60f01b604482015260640161035d565b610c3d6020820182611cc5565b6040517f4794c84a00000000000000000000000000000000000000000000000000000000815261ffff7f00000000000000000000000000000000000000000000000000000000000000001660048201526001600160a01b039190911690634794c84a90602401600060405180830381600087803b158015610cbd57600080fd5b505af1158015610cd1573d6000803e3d6000fd5b50505060208201905060986000610ce88385611cc5565b6001600160a01b031681526020810191909152604001600020610d0b828261235c565b505050565b610d18611274565b6097805473ffffffffffffffffffffffffffffffffffffffff19166001600160a01b0392909216919091179055565b600054610100900460ff1615808015610d675750600054600160ff909116105b80610d815750303b158015610d81575060005460ff166001145b610df35760405162461bcd60e51b815260206004820152602e60248201527f496e697469616c697a61626c653a20636f6e747261637420697320616c72656160448201527f647920696e697469616c697a6564000000000000000000000000000000000000606482015260840161035d565b6000805460ff191660011790558015610e16576000805461ff0019166101001790555b6001600160a01b038216610e6c5760405162461bcd60e51b815260206004820152600160248201527f5a00000000000000000000000000000000000000000000000000000000000000604482015260640161035d565b610e74611576565b610e7d826114da565b8015610ec3576000805461ff0019169055604051600181527f7f26b83ff96e1f2b6a682f133852f6798a09c465da95921460cefb38474024989060200160405180910390a15b5050565b610ecf611274565b83610f1c5760405162461bcd60e51b815260206004820152600260248201527f5a56000000000000000000000000000000000000000000000000000000000000604482015260640161035d565b6001600160a01b038116610f725760405162461bcd60e51b815260206004820152600360248201527f545a410000000000000000000000000000000000000000000000000000000000604482015260640161035d565b60005b848110156110cd5730868683818110610f9057610f906120d6565b9050602002016020810190610fa59190611cc5565b6001600160a01b031663481c6a756040518163ffffffff1660e01b8152600401602060405180830381865afa158015610fe2573d6000803e3d6000fd5b505050506040513d601f19601f82011682018060405250810190611006919061233f565b6001600160a01b0316146110415760405162461bcd60e51b81526020600482015260026024820152614e4d60f01b604482015260640161035d565b858582818110611053576110536120d6565b90506020020160208101906110689190611cc5565b6001600160a01b0316637ecd67176040518163ffffffff1660e01b8152600401600060405180830381600087803b1580156110a257600080fd5b505af11580156110b6573d6000803e3d6000fd5b5050505080806110c590612120565b915050610f75565b5060005b828110156111dc5760008484838181106110ed576110ed6120d6565b90506020020160208101906111029190611cc5565b6040517f70a082310000000000000000000000000000000000000000000000000000000081523060048201526001600160a01b0391909116906370a0823190602401602060405180830381865afa158015611161573d6000803e3d6000fd5b505050506040513d601f19601f8201168201806040525081019061118591906123de565b905080156111c9576111c983828787868181106111a4576111a46120d6565b90506020020160208101906111b99190611cc5565b6001600160a01b031691906115fb565b50806111d481612120565b9150506110d1565b505050505050565b6111ec611274565b6001600160a01b0381166112685760405162461bcd60e51b815260206004820152602660248201527f4f776e61626c653a206e6577206f776e657220697320746865207a65726f206160448201527f6464726573730000000000000000000000000000000000000000000000000000606482015260840161035d565b611271816114da565b50565b6033546001600160a01b031633146102b45760405162461bcd60e51b815260206004820181905260248201527f4f776e61626c653a2063616c6c6572206973206e6f7420746865206f776e6572604482015260640161035d565b6112d661167b565b6065805460ff191690557f5db9ee0a495bf2e6ff9c91a7834c1ba4fdd244a5e8aa4e537bd38aeae4b073aa335b6040516001600160a01b03909116815260200160405180910390a1565b60655460ff16156102b45760405162461bcd60e51b815260206004820152601060248201527f5061757361626c653a2070617573656400000000000000000000000000000000604482015260640161035d565b6000836001600160a01b031663673a2a1f6040518163ffffffff1660e01b8152600401600060405180830381865afa1580156113b3573d6000803e3d6000fd5b505050506040513d6000823e601f3d908101601f191682016040526113db91908101906123f7565b905060005b815181101561141f5761140d8282815181106113fe576113fe6120d6565b602002602001015185856116cd565b8061141781612120565b9150506113e0565b5050505050565b600080806000198587098587029250828110838203039150508060000361145f576000841161145457600080fd5b5082900490506114d3565b80841161146b57600080fd5b600084868809851960019081018716968790049682860381900495909211909303600082900391909104909201919091029190911760038402600290811880860282030280860282030280860282030280860282030280860282030280860290910302029150505b9392505050565b603380546001600160a01b0383811673ffffffffffffffffffffffffffffffffffffffff19831681179093556040519116919082907f8be0079c531659141344cd1fd0a4f28419497f9722a3daafe3b4186f6b6457e090600090a35050565b611541611320565b6065805460ff191660011790557f62e78cea01bee320cd4e420270b5ea74000d11b0c9f74754ebdbfc544b05a2586113033390565b600054610100900460ff166115f35760405162461bcd60e51b815260206004820152602b60248201527f496e697469616c697a61626c653a20636f6e7472616374206973206e6f74206960448201527f6e697469616c697a696e67000000000000000000000000000000000000000000606482015260840161035d565b6102b46117c7565b604080516001600160a01b038416602482015260448082018490528251808303909101815260649091019091526020810180517bffffffffffffffffffffffffffffffffffffffffffffffffffffffff167fa9059cbb00000000000000000000000000000000000000000000000000000000179052610d0b908490611850565b60655460ff166102b45760405162461bcd60e51b815260206004820152601460248201527f5061757361626c653a206e6f7420706175736564000000000000000000000000604482015260640161035d565b6000836001600160a01b0316633850c7bd6040518163ffffffff1660e01b815260040160e060405180830381865afa15801561170d573d6000803e3d6000fd5b505050506040513d601f19601f820116820180604052508101906117319190612486565b505050505091505060006117458585611935565b905060008160020b8360020b1361176557611760838361251e565b61176f565b61176f828461251e565b90508360020b8160020b13156111dc5760405162461bcd60e51b815260206004820152601060248201527f6d617854776170446576696174696f6e00000000000000000000000000000000604482015260640161035d565b600054610100900460ff166118445760405162461bcd60e51b815260206004820152602b60248201527f496e697469616c697a61626c653a20636f6e7472616374206973206e6f74206960448201527f6e697469616c697a696e67000000000000000000000000000000000000000000606482015260840161035d565b6065805460ff19169055565b60006118a5826040518060400160405280602081526020017f5361666545524332303a206c6f772d6c6576656c2063616c6c206661696c6564815250856001600160a01b0316611aa09092919063ffffffff16565b805190915015610d0b57808060200190518101906118c39190612566565b610d0b5760405162461bcd60e51b815260206004820152602a60248201527f5361666545524332303a204552433230206f7065726174696f6e20646964206e60448201527f6f74207375636365656400000000000000000000000000000000000000000000606482015260840161035d565b604080516002808252606082018352600092839291906020830190803683370190505090508262ffffff1681600081518110611973576119736120d6565b602002602001019063ffffffff16908163ffffffff16815250506000816001815181106119a2576119a26120d6565b63ffffffff909216602092830291909101909101526040517f883bdbfd0000000000000000000000000000000000000000000000000000000081526000906001600160a01b0386169063883bdbfd906119ff908590600401612583565b600060405180830381865afa158015611a1c573d6000803e3d6000fd5b505050506040513d6000823e601f3d908101601f19168201604052611a44919081019061263c565b5090508362ffffff1681600081518110611a6057611a606120d6565b602002602001015182600181518110611a7b57611a7b6120d6565b6020026020010151611a8d9190612708565b611a97919061274e565b95945050505050565b6060611aaf8484600085611ab7565b949350505050565b606082471015611b2f5760405162461bcd60e51b815260206004820152602660248201527f416464726573733a20696e73756666696369656e742062616c616e636520666f60448201527f722063616c6c0000000000000000000000000000000000000000000000000000606482015260840161035d565b6001600160a01b0385163b611b865760405162461bcd60e51b815260206004820152601d60248201527f416464726573733a2063616c6c20746f206e6f6e2d636f6e7472616374000000604482015260640161035d565b600080866001600160a01b03168587604051611ba2919061279a565b60006040518083038185875af1925050503d8060008114611bdf576040519150601f19603f3d011682016040523d82523d6000602084013e611be4565b606091505b5091509150611bf4828286611bff565b979650505050505050565b60608315611c0e5750816114d3565b825115611c1e5782518084602001fd5b8160405162461bcd60e51b815260040161035d91906127b6565b6040518060e001604052806060815260200160608152602001611c8e6040518060a001604052806060815260200160006001600160a01b0316815260200160008152602001600081526020016000151581525090565b8152602001600081526020016000815260200160008152602001600081525090565b6001600160a01b038116811461127157600080fd5b600060208284031215611cd757600080fd5b81356114d381611cb0565b600060808284031215611cf457600080fd5b50919050565b60008083601f840112611d0c57600080fd5b50813567ffffffffffffffff811115611d2457600080fd5b6020830191508360208260051b8501011115611d3f57600080fd5b9250929050565b600080600080600060608688031215611d5e57600080fd5b853567ffffffffffffffff80821115611d7657600080fd5b611d8289838a01611cfa565b90975095506020880135915080821115611d9b57600080fd5b50611da888828901611cfa565b9094509250506040860135611dbc81611cb0565b809150509295509295909350565b634e487b7160e01b600052604160045260246000fd5b6040805190810167ffffffffffffffff81118282101715611e0357611e03611dca565b60405290565b6040516060810167ffffffffffffffff81118282101715611e0357611e03611dca565b604051601f8201601f1916810167ffffffffffffffff81118282101715611e5557611e55611dca565b604052919050565b600060c08284031215611e6f57600080fd5b60405160c0810181811067ffffffffffffffff82111715611e9257611e92611dca565b8060405250825181526020830151602082015260408301516040820152606083015160608201526080830151608082015260a083015160a08201528091505092915050565b805161ffff81168114611ee957600080fd5b919050565b600060208284031215611f0057600080fd5b6114d382611ed7565b634e487b7160e01b600052601160045260246000fd5b600061ffff83811690831681811015611f3a57611f3a611f09565b039392505050565b60008219821115611f5557611f55611f09565b500190565b600082821015611f6c57611f6c611f09565b500390565b600067ffffffffffffffff821115611f8b57611f8b611dca565b5060051b60200190565b8060020b811461127157600080fd5b62ffffff8116811461127157600080fd5b60006020808385031215611fc857600080fd5b825167ffffffffffffffff811115611fdf57600080fd5b8301601f81018513611ff057600080fd5b8051612003611ffe82611f71565b611e2c565b81815260079190911b8201830190838101908783111561202257600080fd5b928401925b82841015611bf45783880360808112156120415760008081fd5b612049611de0565b85516fffffffffffffffffffffffffffffffff8116811461206a5760008081fd5b81526060601f1983018113156120805760008081fd5b612088611e09565b92508787015161209781611f95565b83526040878101516120a881611f95565b848a015290870151906120ba82611fa4565b8301528087019190915282526080939093019290840190612027565b634e487b7160e01b600052603260045260246000fd5b60006fffffffffffffffffffffffffffffffff80831681851680830382111561211757612117611f09565b01949350505050565b60006001820161213257612132611f09565b5060010190565b600081518084526020808501945080840160005b838110156121a857815180516fffffffffffffffffffffffffffffffff1688528301518051600290810b858a015281850151900b6040808a0191909152015162ffffff1660608801526080909601959082019060010161214d565b509495945050505050565b60005b838110156121ce5781810151838201526020016121b6565b838111156121dd576000848401525b50505050565b600081518084526121fb8160208601602086016121b3565b601f01601f19169290920160200192915050565b602081526000825160e0602084015261222c610100840182612139565b90506020840151601f198085840301604086015261224a8383612139565b9250604086015191508085840301606086015250805160a0835261227160a08401826121e3565b90506001600160a01b036020830151166020840152604082015160408401526060820151606084015260808201511515608084015260608601516080860152608086015160a086015260a086015160c086015260c086015160e086015280935050505092915050565b801515811461127157600080fd5b6000602082840312156122fa57600080fd5b81356114d3816122da565b60006020828403121561231757600080fd5b81356114d381611f95565b60006020828403121561233457600080fd5b81356114d381611fa4565b60006020828403121561235157600080fd5b81516114d381611cb0565b813561236781611f95565b815462ffffff82811662ffffff198316178455602085013561238881611fa4565b65ffffff00000060189190911b16921665ffffffffffff198216811783178455916040850135906123b8826122da565b66ffffffffffffff19929092169092171790151560301b66ff0000000000001617905550565b6000602082840312156123f057600080fd5b5051919050565b6000602080838503121561240a57600080fd5b825167ffffffffffffffff81111561242157600080fd5b8301601f8101851361243257600080fd5b8051612440611ffe82611f71565b81815260059190911b8201830190838101908783111561245f57600080fd5b928401925b82841015611bf457835161247781611cb0565b82529284019290840190612464565b600080600080600080600060e0888a0312156124a157600080fd5b87516124ac81611cb0565b60208901519097506124bd81611f95565b95506124cb60408901611ed7565b94506124d960608901611ed7565b93506124e760808901611ed7565b925060a088015160ff811681146124fd57600080fd5b60c089015190925061250e816122da565b8091505092959891949750929550565b60008160020b8360020b6000811281627fffff190183128115161561254557612545611f09565b81627fffff01831381161561255c5761255c611f09565b5090039392505050565b60006020828403121561257857600080fd5b81516114d3816122da565b6020808252825182820181905260009190848201906040850190845b818110156125c157835163ffffffff168352928401929184019160010161259f565b50909695505050505050565b600082601f8301126125de57600080fd5b815160206125ee611ffe83611f71565b82815260059290921b8401810191818101908684111561260d57600080fd5b8286015b8481101561263157805161262481611cb0565b8352918301918301612611565b509695505050505050565b6000806040838503121561264f57600080fd5b825167ffffffffffffffff8082111561266757600080fd5b818501915085601f83011261267b57600080fd5b8151602061268b611ffe83611f71565b82815260059290921b840181019181810190898411156126aa57600080fd5b948201945b838610156126d85785518060060b81146126c95760008081fd5b825294820194908201906126af565b918801519196509093505050808211156126f157600080fd5b506126fe858286016125cd565b9150509250929050565b60008160060b8360060b6000811281667fffffffffffff190183128115161561273357612733611f09565b81667fffffffffffff01831381161561255c5761255c611f09565b60008160060b8360060b8061277357634e487b7160e01b600052601260045260246000fd5b667fffffffffffff1982146000198214161561279157612791611f09565b90059392505050565b600082516127ac8184602087016121b3565b9190910192915050565b6020815260006114d360208301846121e356fea26469706673582212204d95f65570b97692f5136bea84db4a39d34d6163bbd2d9e23ab68769dd74041764736f6c634300080d0033",
  "devdoc": {
    "kind": "dev",
    "methods": {
      "owner()": {
        "details": "Returns the address of the current owner."
      },
      "paused()": {
        "details": "Returns true if the contract is paused, and false otherwise."
      },
      "renounceOwnership()": {
        "details": "Leaves the contract without owner. It will not be possible to call `onlyOwner` functions anymore. Can only be called by the current owner. NOTE: Renouncing ownership will leave the contract without an owner, thereby removing any functionality that is only available to the owner."
      },
      "transferOwnership(address)": {
        "details": "Transfers ownership of the contract to a new account (`newOwner`). Can only be called by the current owner."
      }
    },
    "version": 1
  },
  "userdoc": {
    "kind": "user",
    "methods": {},
    "version": 1
  },
  "storageLayout": {
    "storage": [
      {
        "astId": 7891,
        "contract": "contracts/ArrakisV2StaticManager.sol:ArrakisV2StaticManager",
        "label": "_initialized",
        "offset": 0,
        "slot": "0",
        "type": "t_uint8"
      },
      {
        "astId": 7894,
        "contract": "contracts/ArrakisV2StaticManager.sol:ArrakisV2StaticManager",
        "label": "_initializing",
        "offset": 1,
        "slot": "0",
        "type": "t_bool"
      },
      {
        "astId": 9293,
        "contract": "contracts/ArrakisV2StaticManager.sol:ArrakisV2StaticManager",
        "label": "__gap",
        "offset": 0,
        "slot": "1",
        "type": "t_array(t_uint256)50_storage"
      },
      {
        "astId": 7763,
        "contract": "contracts/ArrakisV2StaticManager.sol:ArrakisV2StaticManager",
        "label": "_owner",
        "offset": 0,
        "slot": "51",
        "type": "t_address"
      },
      {
        "astId": 7883,
        "contract": "contracts/ArrakisV2StaticManager.sol:ArrakisV2StaticManager",
        "label": "__gap",
        "offset": 0,
        "slot": "52",
        "type": "t_array(t_uint256)49_storage"
      },
      {
        "astId": 8074,
        "contract": "contracts/ArrakisV2StaticManager.sol:ArrakisV2StaticManager",
        "label": "_paused",
        "offset": 0,
        "slot": "101",
        "type": "t_bool"
      },
      {
        "astId": 8179,
        "contract": "contracts/ArrakisV2StaticManager.sol:ArrakisV2StaticManager",
        "label": "__gap",
        "offset": 0,
        "slot": "102",
        "type": "t_array(t_uint256)49_storage"
      },
      {
        "astId": 17778,
        "contract": "contracts/ArrakisV2StaticManager.sol:ArrakisV2StaticManager",
        "label": "deployer",
        "offset": 0,
        "slot": "151",
        "type": "t_address"
      },
      {
        "astId": 17783,
        "contract": "contracts/ArrakisV2StaticManager.sol:ArrakisV2StaticManager",
        "label": "vaults",
        "offset": 0,
        "slot": "152",
        "type": "t_mapping(t_address,t_struct(StaticVaultInfo)18708_storage)"
      }
    ],
    "types": {
      "t_address": {
        "encoding": "inplace",
        "label": "address",
        "numberOfBytes": "20"
      },
      "t_array(t_uint256)49_storage": {
        "base": "t_uint256",
        "encoding": "inplace",
        "label": "uint256[49]",
        "numberOfBytes": "1568"
      },
      "t_array(t_uint256)50_storage": {
        "base": "t_uint256",
        "encoding": "inplace",
        "label": "uint256[50]",
        "numberOfBytes": "1600"
      },
      "t_bool": {
        "encoding": "inplace",
        "label": "bool",
        "numberOfBytes": "1"
      },
      "t_int24": {
        "encoding": "inplace",
        "label": "int24",
        "numberOfBytes": "3"
      },
      "t_mapping(t_address,t_struct(StaticVaultInfo)18708_storage)": {
        "encoding": "mapping",
        "key": "t_address",
        "label": "mapping(address => struct StaticVaultInfo)",
        "numberOfBytes": "32",
        "value": "t_struct(StaticVaultInfo)18708_storage"
      },
      "t_struct(StaticVaultInfo)18708_storage": {
        "encoding": "inplace",
        "label": "struct StaticVaultInfo",
        "members": [
          {
            "astId": 18703,
            "contract": "contracts/ArrakisV2StaticManager.sol:ArrakisV2StaticManager",
            "label": "twapDeviation",
            "offset": 0,
            "slot": "0",
            "type": "t_int24"
          },
          {
            "astId": 18705,
            "contract": "contracts/ArrakisV2StaticManager.sol:ArrakisV2StaticManager",
            "label": "twapDuration",
            "offset": 3,
            "slot": "0",
            "type": "t_uint24"
          },
          {
            "astId": 18707,
            "contract": "contracts/ArrakisV2StaticManager.sol:ArrakisV2StaticManager",
            "label": "compoundEnabled",
            "offset": 6,
            "slot": "0",
            "type": "t_bool"
          }
        ],
        "numberOfBytes": "32"
      },
      "t_uint24": {
        "encoding": "inplace",
        "label": "uint24",
        "numberOfBytes": "3"
      },
      "t_uint256": {
        "encoding": "inplace",
        "label": "uint256",
        "numberOfBytes": "32"
      },
      "t_uint8": {
        "encoding": "inplace",
        "label": "uint8",
        "numberOfBytes": "1"
      }
    }
  }
}