{
  "address": "0xEc11608231f22731ab165380FBAa1BA45a00bAcC",
  "abi": [
    {
      "inputs": [
        {
          "internalType": "contract IGasStation",
          "name": "gasStation_",
          "type": "address"
        }
      ],
      "stateMutability": "nonpayable",
      "type": "constructor"
    },
    {
      "inputs": [],
      "name": "gasStation",
      "outputs": [
        {
          "internalType": "contract IGasStation",
          "name": "",
          "type": "address"
        }
      ],
      "stateMutability": "view",
      "type": "function"
    },
    {
      "inputs": [
        {
          "internalType": "address[]",
          "name": "vaults_",
          "type": "address[]"
        },
        {
          "internalType": "string",
          "name": "strat_",
          "type": "string"
        }
      ],
      "name": "getVaultsByStrat",
      "outputs": [
        {
          "components": [
            {
              "internalType": "address",
              "name": "vault",
              "type": "address"
            },
            {
              "components": [
                {
                  "internalType": "uint256",
                  "name": "balance",
                  "type": "uint256"
                },
                {
                  "internalType": "uint256",
                  "name": "lastRebalance",
                  "type": "uint256"
                },
                {
                  "internalType": "bytes",
                  "name": "datas",
                  "type": "bytes"
                },
                {
                  "internalType": "bytes32",
                  "name": "strat",
                  "type": "bytes32"
                },
                {
                  "internalType": "uint256",
                  "name": "endOfMM",
                  "type": "uint256"
                }
              ],
              "internalType": "struct VaultInfo",
              "name": "vaultInfo",
              "type": "tuple"
            }
          ],
          "internalType": "struct VaultData[]",
          "name": "result",
          "type": "tuple[]"
        }
      ],
      "stateMutability": "view",
      "type": "function"
    },
    {
      "inputs": [
        {
          "internalType": "address[]",
          "name": "vaults_",
          "type": "address[]"
        }
      ],
      "name": "getVaultsStrat",
      "outputs": [
        {
          "components": [
            {
              "internalType": "uint256",
              "name": "balance",
              "type": "uint256"
            },
            {
              "internalType": "uint256",
              "name": "lastRebalance",
              "type": "uint256"
            },
            {
              "internalType": "bytes",
              "name": "datas",
              "type": "bytes"
            },
            {
              "internalType": "bytes32",
              "name": "strat",
              "type": "bytes32"
            },
            {
              "internalType": "uint256",
              "name": "endOfMM",
              "type": "uint256"
            }
          ],
          "internalType": "struct VaultInfo[]",
          "name": "result",
          "type": "tuple[]"
        }
      ],
      "stateMutability": "view",
      "type": "function"
    }
  ],
  "transactionHash": "0xac7af48f5f247c6d09005ce9fd60ecfd3fbbd9fdc08dda7c537c18d2e095c0e3",
  "args": [
    "0xd148b64fE5704659006c3970487E2fe40C97a475"
  ],
  "numDeployments": 1,
  "solcInputHash": "a651f705461b88eb40368d590f15945e",
  "bytecode": "0x60a060405234801561001057600080fd5b50604051610a84380380610a8483398101604081905261002f91610040565b6001600160a01b0316608052610070565b60006020828403121561005257600080fd5b81516001600160a01b038116811461006957600080fd5b9392505050565b6080516109ec6100986000396000818160940152818161012601526102a501526109ec6000f3fe608060405234801561001057600080fd5b50600436106100415760003560e01c80630d151e6d1461004657806314c4045b1461006f578063dbb602fd1461008f575b600080fd5b61005961005436600461058e565b6100c3565b604051610066919061065b565b60405180910390f35b61008261007d3660046106bd565b610212565b6040516100669190610753565b6100b67f000000000000000000000000000000000000000000000000000000000000000081565b60405161006691906107d0565b6060816001600160401b038111156100dd576100dd6107e4565b60405190808252806020026020018201604052801561011657816020015b6101036104e9565b8152602001906001900390816100fb5790505b50905060005b8281101561020b577f00000000000000000000000000000000000000000000000000000000000000006001600160a01b03166390229af7858584818110610165576101656107fa565b905060200201602081019061017a9190610810565b6040518263ffffffff1660e01b815260040161019691906107d0565b600060405180830381865afa1580156101b3573d6000803e3d6000fd5b505050506040513d6000823e601f3d908101601f191682016040526101db9190810190610898565b8282815181106101ed576101ed6107fa565b602002602001018190525080806102039061097f565b91505061011c565b5092915050565b60606000846001600160401b0381111561022e5761022e6107e4565b60405190808252806020026020018201604052801561026757816020015b6102546104e9565b81526020019060019003908161024c5790505b50905060008085856040516020016102809291906109a6565b60405160208183030381529060405280519060200120905060005b878110156103bb577f00000000000000000000000000000000000000000000000000000000000000006001600160a01b03166390229af78a8a848181106102e4576102e46107fa565b90506020020160208101906102f99190610810565b6040518263ffffffff1660e01b815260040161031591906107d0565b600060405180830381865afa158015610332573d6000803e3d6000fd5b505050506040513d6000823e601f3d908101601f1916820160405261035a9190810190610898565b84828151811061036c5761036c6107fa565b60200260200101819052508184828151811061038a5761038a6107fa565b602002602001015160600151036103a957826103a58161097f565b9350505b806103b38161097f565b91505061029b565b50816001600160401b038111156103d4576103d46107e4565b60405190808252806020026020018201604052801561040d57816020015b6103fa61051b565b8152602001906001900390816103f25790505b5093506000805b84518110156104dc5782858281518110610430576104306107fa565b602002602001015160600151036104ca5760405180604001604052808b8b8481811061045e5761045e6107fa565b90506020020160208101906104739190610810565b6001600160a01b03168152602001868381518110610493576104936107fa565b60200260200101518152508683815181106104b0576104b06107fa565b602002602001018190525081806104c69061097f565b9250505b806104d48161097f565b915050610414565b5050505050949350505050565b6040518060a0016040528060008152602001600081526020016060815260200160008019168152602001600081525090565b604051806040016040528060006001600160a01b0316815260200161053e6104e9565b905290565b60008083601f84011261055557600080fd5b5081356001600160401b0381111561056c57600080fd5b6020830191508360208260051b850101111561058757600080fd5b9250929050565b600080602083850312156105a157600080fd5b82356001600160401b038111156105b757600080fd5b6105c385828601610543565b90969095509350505050565b60005b838110156105ea5781810151838201526020016105d2565b838111156105f9576000848401525b50505050565b80518252602081015160208301526000604082015160a0604085015280518060a08601526106348160c08701602085016105cf565b60608481015190860152608093840151938501939093525050601f01601f19160160c00190565b6000602080830181845280855180835260408601915060408160051b870101925083870160005b828110156106b057603f1988860301845261069e8583516105ff565b94509285019290850190600101610682565b5092979650505050505050565b600080600080604085870312156106d357600080fd5b84356001600160401b03808211156106ea57600080fd5b6106f688838901610543565b9096509450602087013591508082111561070f57600080fd5b818701915087601f83011261072357600080fd5b81358181111561073257600080fd5b88602082850101111561074457600080fd5b95989497505060200194505050565b60006020808301818452808551808352604092508286019150828160051b87010184880160005b838110156107c257888303603f19018552815180516001600160a01b031684528701518784018790526107af878501826105ff565b958801959350509086019060010161077a565b509098975050505050505050565b6001600160a01b0391909116815260200190565b634e487b7160e01b600052604160045260246000fd5b634e487b7160e01b600052603260045260246000fd5b60006020828403121561082257600080fd5b81356001600160a01b038116811461083957600080fd5b9392505050565b60405160a081016001600160401b0381118282101715610862576108626107e4565b60405290565b604051601f8201601f191681016001600160401b0381118282101715610890576108906107e4565b604052919050565b600060208083850312156108ab57600080fd5b82516001600160401b03808211156108c257600080fd5b9084019060a082870312156108d657600080fd5b6108de610840565b8251815283830151848201526040830151828111156108fc57600080fd5b8301601f8101881361090d57600080fd5b80518381111561091f5761091f6107e4565b610931601f8201601f19168701610868565b9350808452888682840101111561094757600080fd5b610956818786018885016105cf565b505081604082015260608301516060820152608083015160808201528094505050505092915050565b60006001820161099f57634e487b7160e01b600052601160045260246000fd5b5060010190565b818382376000910190815291905056fea26469706673582212205a0191afa65de5370f6103de0bc6f26650110e7af92f2cd1f9e7c516e750879364736f6c634300080d0033",
  "devdoc": {
    "kind": "dev",
    "methods": {},
    "version": 1
  },
  "userdoc": {
    "kind": "user",
    "methods": {},
    "version": 1
  },
  "storageLayout": {
    "storage": [],
    "types": null
  }
}