{
  "_format": "hh-sol-artifact-1",
  "contractName": "Pool",
  "sourceName": "contracts/libraries/Pool.sol",
  "abi": [
    {
      "inputs": [
        {
          "internalType": "contract IUniswapV3Factory",
          "name": "factory_",
          "type": "IUniswapV3Factory"
        },
        {
          "internalType": "address",
          "name": "token0_",
          "type": "address"
        },
        {
          "internalType": "address",
          "name": "token1_",
          "type": "address"
        },
        {
          "components": [
            {
              "internalType": "int24",
              "name": "lowerTick",
              "type": "int24"
            },
            {
              "internalType": "int24",
              "name": "upperTick",
              "type": "int24"
            },
            {
              "internalType": "uint24",
              "name": "feeTier",
              "type": "uint24"
            }
          ],
          "internalType": "struct Range",
          "name": "range_",
          "type": "tuple"
        }
      ],
      "name": "validateTickSpacing",
      "outputs": [
        {
          "internalType": "bool",
          "name": "",
          "type": "bool"
        }
      ],
      "stateMutability": "view",
      "type": "function"
    }
  ],
  "bytecode": "0x61033e61003a600b82828239805160001a60731461002d57634e487b7160e01b600052600060045260246000fd5b30600052607381538281f3fe73000000000000000000000000000000000000000030146080604052600436106100355760003560e01c8063143e56401461003a575b600080fd5b61004d6100483660046101c4565b610061565b604051901515815260200160405180910390f35b6040808201519051630b4c774160e11b81526001600160a01b038581166004830152848116602483015262ffffff9092166044820152600091829190871690631698ee8290606401602060405180830381865afa1580156100c6573d6000803e3d6000fd5b505050506040513d601f19601f820116820180604052508101906100ea9190610297565b6001600160a01b031663d0c93a7c6040518163ffffffff1660e01b8152600401602060405180830381865afa158015610127573d6000803e3d6000fd5b505050506040513d601f19601f8201168201806040525081019061014b91906102bb565b9050826020015160020b836000015160020b128015610177575082516101729082906102d8565b60020b155b8015610193575080836020015161018e91906102d8565b60020b155b9695505050505050565b6001600160a01b03811681146101b257600080fd5b50565b8060020b81146101b257600080fd5b60008060008084860360c08112156101db57600080fd5b85356101e68161019d565b945060208601356101f68161019d565b935060408601356102068161019d565b92506060605f198201121561021a57600080fd5b50604051606081016001600160401b038111828210171561024b57634e487b7160e01b600052604160045260246000fd5b604052606086013561025c816101b5565b8152608086013561026c816101b5565b602082015260a086013562ffffff8116811461028757600080fd5b6040820152939692955090935050565b6000602082840312156102a957600080fd5b81516102b48161019d565b9392505050565b6000602082840312156102cd57600080fd5b81516102b4816101b5565b60008260020b806102f957634e487b7160e01b600052601260045260246000fd5b808360020b079150509291505056fea2646970667358221220c0ceab599ebf714bbf96dcf5baeff978167b2c224179c4b8729947063e3f71eb64736f6c634300080d0033",
  "linkReferences": {},
  "deployedLinkReferences": {}
}