{
  "_format": "hh-sol-artifact-1",
  "contractName": "Twap",
  "sourceName": "contracts/libraries/Twap.sol",
  "abi": [
    {
      "inputs": [
        {
          "internalType": "contract IUniswapV3Pool",
          "name": "pool_",
          "type": "IUniswapV3Pool"
        },
        {
          "internalType": "uint24",
          "name": "twapDuration_",
          "type": "uint24"
        },
        {
          "internalType": "int24",
          "name": "maxTwapDeviation_",
          "type": "int24"
        }
      ],
      "name": "checkDeviation",
      "outputs": [],
      "stateMutability": "view",
      "type": "function"
    },
    {
      "inputs": [
        {
          "internalType": "contract IUniswapV3Pool",
          "name": "pool_",
          "type": "IUniswapV3Pool"
        },
        {
          "internalType": "uint24",
          "name": "twapDuration_",
          "type": "uint24"
        }
      ],
      "name": "getTwap",
      "outputs": [
        {
          "internalType": "int24",
          "name": "",
          "type": "int24"
        }
      ],
      "stateMutability": "view",
      "type": "function"
    }
  ],
  "bytecode": "0x61076961003a600b82828239805160001a60731461002d57634e487b7160e01b600052600060045260246000fd5b30600052607381538281f3fe73000000000000000000000000000000000000000030146080604052600436106100405760003560e01c806381ac295414610045578063db46de531461006f575b600080fd5b6100586100533660046102ff565b610084565b60405160029190910b815260200160405180910390f35b61008261007d366004610343565b6101d6565b005b604080516002808252606082018352600092839291906020830190803683370190505090508262ffffff16816000815181106100c2576100c26103a2565b602002602001019063ffffffff16908163ffffffff16815250506000816001815181106100f1576100f16103a2565b63ffffffff9092166020928302919091019091015260405163883bdbfd60e01b81526000906001600160a01b0386169063883bdbfd906101359085906004016103b8565b600060405180830381865afa158015610152573d6000803e3d6000fd5b505050506040513d6000823e601f3d908101601f1916820160405261017a91908101906104c9565b5090508362ffffff1681600081518110610196576101966103a2565b6020026020010151826001815181106101b1576101b16103a2565b60200260200101516101c391906105aa565b6101cd91906105fa565b95945050505050565b6000836001600160a01b0316633850c7bd6040518163ffffffff1660e01b815260040160e060405180830381865afa158015610216573d6000803e3d6000fd5b505050506040513d601f19601f8201168201806040525081019061023a9190610658565b5050505050915050600061024e8585610084565b905060008160020b8360020b1361026e5761026983836106f5565b610278565b61027882846106f5565b90508360020b8160020b13156102c75760405162461bcd60e51b815260206004820152601060248201526f36b0bc2a3bb0b82232bb34b0ba34b7b760811b604482015260640160405180910390fd5b505050505050565b6001600160a01b03811681146102e457600080fd5b50565b803562ffffff811681146102fa57600080fd5b919050565b6000806040838503121561031257600080fd5b823561031d816102cf565b915061032b602084016102e7565b90509250929050565b8060020b81146102e457600080fd5b60008060006060848603121561035857600080fd5b8335610363816102cf565b9250610371602085016102e7565b9150604084013561038181610334565b809150509250925092565b634e487b7160e01b600052604160045260246000fd5b634e487b7160e01b600052603260045260246000fd5b6020808252825182820181905260009190848201906040850190845b818110156103f657835163ffffffff16835292840192918401916001016103d4565b50909695505050505050565b604051601f8201601f191681016001600160401b038111828210171561042a5761042a61038c565b604052919050565b60006001600160401b0382111561044b5761044b61038c565b5060051b60200190565b600082601f83011261046657600080fd5b8151602061047b61047683610432565b610402565b82815260059290921b8401810191818101908684111561049a57600080fd5b8286015b848110156104be5780516104b1816102cf565b835291830191830161049e565b509695505050505050565b600080604083850312156104dc57600080fd5b82516001600160401b03808211156104f357600080fd5b818501915085601f83011261050757600080fd5b8151602061051761047683610432565b82815260059290921b8401810191818101908984111561053657600080fd5b948201945b838610156105645785518060060b81146105555760008081fd5b8252948201949082019061053b565b9188015191965090935050508082111561057d57600080fd5b5061058a85828601610455565b9150509250929050565b634e487b7160e01b600052601160045260246000fd5b60008160060b8360060b6000811281667fffffffffffff19018312811516156105d5576105d5610594565b81667fffffffffffff0183138116156105f0576105f0610594565b5090039392505050565b60008160060b8360060b8061061f57634e487b7160e01b600052601260045260246000fd5b667fffffffffffff1982146000198214161561063d5761063d610594565b90059392505050565b805161ffff811681146102fa57600080fd5b600080600080600080600060e0888a03121561067357600080fd5b875161067e816102cf565b602089015190975061068f81610334565b955061069d60408901610646565b94506106ab60608901610646565b93506106b960808901610646565b925060a088015160ff811681146106cf57600080fd5b60c089015190925080151581146106e557600080fd5b8091505092959891949750929550565b60008160020b8360020b6000811281627fffff190183128115161561071c5761071c610594565b81627fffff0183138116156105f0576105f061059456fea2646970667358221220516620cc717b78fb2f7c363e275293766bd59ac99aef777886718f33581ee12b64736f6c634300080d0033",
  "linkReferences": {},
  "deployedLinkReferences": {}
}