{
  "_format": "hh-sol-artifact-1",
  "contractName": "UniswapV3Amounts",
  "sourceName": "contracts/libraries/UniswapV3Amounts.sol",
  "abi": [
    {
      "inputs": [
        {
          "components": [
            {
              "internalType": "uint256",
              "name": "feeGrowthInsideLast",
              "type": "uint256"
            },
            {
              "internalType": "uint256",
              "name": "liquidity",
              "type": "uint256"
            },
            {
              "internalType": "int24",
              "name": "tick",
              "type": "int24"
            },
            {
              "internalType": "int24",
              "name": "lowerTick",
              "type": "int24"
            },
            {
              "internalType": "int24",
              "name": "upperTick",
              "type": "int24"
            },
            {
              "internalType": "bool",
              "name": "isZero",
              "type": "bool"
            },
            {
              "internalType": "contract IUniswapV3Pool",
              "name": "pool",
              "type": "IUniswapV3Pool"
            }
          ],
          "internalType": "struct FeesEarnedPayload",
          "name": "computeFeesEarned_",
          "type": "tuple"
        }
      ],
      "name": "computeFeesEarned",
      "outputs": [
        {
          "internalType": "uint256",
          "name": "fee",
          "type": "uint256"
        }
      ],
      "stateMutability": "view",
      "type": "function"
    },
    {
      "inputs": [
        {
          "internalType": "uint256",
          "name": "current0_",
          "type": "uint256"
        },
        {
          "internalType": "uint256",
          "name": "current1_",
          "type": "uint256"
        },
        {
          "internalType": "uint256",
          "name": "totalSupply_",
          "type": "uint256"
        },
        {
          "internalType": "uint256",
          "name": "amount0Max_",
          "type": "uint256"
        },
        {
          "internalType": "uint256",
          "name": "amount1Max_",
          "type": "uint256"
        }
      ],
      "name": "computeMintAmounts",
      "outputs": [
        {
          "internalType": "uint256",
          "name": "amount0",
          "type": "uint256"
        },
        {
          "internalType": "uint256",
          "name": "amount1",
          "type": "uint256"
        },
        {
          "internalType": "uint256",
          "name": "mintAmount",
          "type": "uint256"
        }
      ],
      "stateMutability": "pure",
      "type": "function"
    },
    {
      "inputs": [
        {
          "internalType": "uint256",
          "name": "rawFee0_",
          "type": "uint256"
        },
        {
          "internalType": "uint256",
          "name": "rawFee1_",
          "type": "uint256"
        },
        {
          "internalType": "uint16",
          "name": "managerFeeBPS_",
          "type": "uint16"
        },
        {
          "internalType": "uint16",
          "name": "arrakisFeeBPS_",
          "type": "uint16"
        }
      ],
      "name": "subtractAdminFees",
      "outputs": [
        {
          "internalType": "uint256",
          "name": "fee0",
          "type": "uint256"
        },
        {
          "internalType": "uint256",
          "name": "fee1",
          "type": "uint256"
        }
      ],
      "stateMutability": "pure",
      "type": "function"
    }
  ],
  "bytecode": "0x610a7161003a600b82828239805160001a60731461002d57634e487b7160e01b600052600060045260246000fd5b30600052607381538281f3fe730000000000000000000000000000000000000000301460806040526004361061004b5760003560e01c80636d50cdaf14610050578063c30fc38d1461007d578063c8db0669146100ab575b600080fd5b61006361005e3660046106fc565b6100cc565b604080519283526020830191909152015b60405180910390f35b61009061008b366004610742565b61013a565b60408051938452602084019290925290820152606001610074565b6100be6100b93660046107cb565b61028b565b604051908152602001610074565b6000806127106100dc8486610892565b6100ea9061ffff16886108b8565b6100f491906108ed565b6100fe908761090f565b915061271061010d8486610892565b61011b9061ffff16876108b8565b61012591906108ed565b61012f908661090f565b905094509492505050565b600080808715801561014c5750600087115b156101635761015c8487896105e8565b9050610266565b861580156101715750600088115b156101815761015c85878a6105e8565b6000881180156101915750600087115b156102265760006101a386888b6105e8565b905060006101b286898b6105e8565b90506000821180156101c45750600081115b61020e5760405162461bcd60e51b81526020600482015260166024820152750417272616b69735661756c7456323a206d696e7420360541b60448201526064015b60405180910390fd5b80821061021b578061021d565b815b92505050610266565b60405162461bcd60e51b8152602060048201526015602482015274417272616b69735661756c7456323a2070616e696360581b6044820152606401610205565b61027181898861069c565b925061027e81888861069c565b9150955095509592505050565b6000806000808460a001511561040c578460c001516001600160a01b031663f30583996040518163ffffffff1660e01b8152600401602060405180830381865afa1580156102dd573d6000803e3d6000fd5b505050506040513d601f19601f820116820180604052508101906103019190610926565b90508460c001516001600160a01b031663f30dba9386606001516040518263ffffffff1660e01b8152600401610337919061093f565b61010060405180830381865afa158015610355573d6000803e3d6000fd5b505050506040513d601f19601f820116820180604052508101906103799190610977565b5050505060c089015160808a015160405163f30dba9360e01b81529398506001600160a01b03909116945063f30dba9393506103ba9290915060040161093f565b61010060405180830381865afa1580156103d8573d6000803e3d6000fd5b505050506040513d601f19601f820116820180604052508101906103fc9190610977565b5093975061057795505050505050565b8460c001516001600160a01b031663461413196040518163ffffffff1660e01b8152600401602060405180830381865afa15801561044e573d6000803e3d6000fd5b505050506040513d601f19601f820116820180604052508101906104729190610926565b90508460c001516001600160a01b031663f30dba9386606001516040518263ffffffff1660e01b81526004016104a8919061093f565b61010060405180830381865afa1580156104c6573d6000803e3d6000fd5b505050506040513d601f19601f820116820180604052508101906104ea9190610977565b5050505060c089015160808a015160405163f30dba9360e01b81529298506001600160a01b03909116945063f30dba93935061052a92509060040161093f565b61010060405180830381865afa158015610548573d6000803e3d6000fd5b505050506040513d601f19601f8201168201806040525081019061056c9190610977565b509297505050505050505b6000856060015160020b866040015160020b1261059557508261059a565b508281035b6000866080015160020b876040015160020b12156105b95750826105be565b508282035b60208701518751838503839003916105dc918303600160801b6105e8565b98975050505050505050565b6000808060001985870985870292508281108382030391505080600003610621576000841161061657600080fd5b508290049050610695565b80841161062d57600080fd5b600084868809851960019081018716968790049682860381900495909211909303600082900391909104909201919091029190911760038402600290811880860282030280860282030280860282030280860282030280860282030280860290910302029150505b9392505050565b60006106a98484846105e8565b9050600082806106bb576106bb6108d7565b84860911156106955760001981106106d257600080fd5b806106dc81610a22565b95945050505050565b803561ffff811681146106f757600080fd5b919050565b6000806000806080858703121561071257600080fd5b8435935060208501359250610729604086016106e5565b9150610737606086016106e5565b905092959194509250565b600080600080600060a0868803121561075a57600080fd5b505083359560208501359550604085013594606081013594506080013592509050565b8035600281900b81146106f757600080fd5b801515811461079d57600080fd5b50565b80356106f78161078f565b6001600160a01b038116811461079d57600080fd5b80356106f7816107ab565b600060e082840312156107dd57600080fd5b60405160e081016001600160401b038111828210171561080d57634e487b7160e01b600052604160045260246000fd5b8060405250823581526020830135602082015261082c6040840161077d565b604082015261083d6060840161077d565b606082015261084e6080840161077d565b608082015261085f60a084016107a0565b60a082015261087060c084016107c0565b60c08201529392505050565b634e487b7160e01b600052601160045260246000fd5b600061ffff8083168185168083038211156108af576108af61087c565b01949350505050565b60008160001904831182151516156108d2576108d261087c565b500290565b634e487b7160e01b600052601260045260246000fd5b60008261090a57634e487b7160e01b600052601260045260246000fd5b500490565b6000828210156109215761092161087c565b500390565b60006020828403121561093857600080fd5b5051919050565b60029190910b815260200190565b80516106f7816107ab565b805163ffffffff811681146106f757600080fd5b80516106f78161078f565b600080600080600080600080610100898b03121561099457600080fd5b88516001600160801b03811681146109ab57600080fd5b80985050602089015180600f0b81146109c357600080fd5b80975050604089015195506060890151945060808901518060060b81146109e957600080fd5b93506109f760a08a0161094d565b9250610a0560c08a01610958565b9150610a1360e08a0161096c565b90509295985092959890939650565b600060018201610a3457610a3461087c565b506001019056fea2646970667358221220d6f922554ac1254d8c2e548c16c84468921551fe7822923c68120af57a5def4064736f6c634300080d0033",
  "linkReferences": {},
  "deployedLinkReferences": {}
}