{
  "address": "0x25e9b0576f92d431882F158bb8Fb4AC47bDD7B96",
  "abi": [
    {
      "inputs": [
        {
          "internalType": "address",
          "name": "router_",
          "type": "address"
        }
      ],
      "stateMutability": "nonpayable",
      "type": "constructor"
    },
    {
      "inputs": [],
      "name": "router",
      "outputs": [
        {
          "internalType": "address",
          "name": "",
          "type": "address"
        }
      ],
      "stateMutability": "view",
      "type": "function"
    },
    {
      "inputs": [
        {
          "components": [
            {
              "components": [
                {
                  "internalType": "bytes",
                  "name": "swapPayload",
                  "type": "bytes"
                },
                {
                  "internalType": "uint256",
                  "name": "amountInSwap",
                  "type": "uint256"
                },
                {
                  "internalType": "uint256",
                  "name": "amountOutSwap",
                  "type": "uint256"
                },
                {
                  "internalType": "address",
                  "name": "swapRouter",
                  "type": "address"
                },
                {
                  "internalType": "bool",
                  "name": "zeroForOne",
                  "type": "bool"
                }
              ],
              "internalType": "struct SwapData",
              "name": "swapData",
              "type": "tuple"
            },
            {
              "components": [
                {
                  "internalType": "uint256",
                  "name": "amount0Max",
                  "type": "uint256"
                },
                {
                  "internalType": "uint256",
                  "name": "amount1Max",
                  "type": "uint256"
                },
                {
                  "internalType": "uint256",
                  "name": "amount0Min",
                  "type": "uint256"
                },
                {
                  "internalType": "uint256",
                  "name": "amount1Min",
                  "type": "uint256"
                },
                {
                  "internalType": "uint256",
                  "name": "amountSharesMin",
                  "type": "uint256"
                },
                {
                  "internalType": "address",
                  "name": "vault",
                  "type": "address"
                },
                {
                  "internalType": "address",
                  "name": "receiver",
                  "type": "address"
                },
                {
                  "internalType": "address",
                  "name": "gauge",
                  "type": "address"
                }
              ],
              "internalType": "struct AddLiquidityData",
              "name": "addData",
              "type": "tuple"
            }
          ],
          "internalType": "struct SwapAndAddData",
          "name": "swapAndAddData_",
          "type": "tuple"
        }
      ],
      "name": "swap",
      "outputs": [
        {
          "internalType": "uint256",
          "name": "amount0Diff",
          "type": "uint256"
        },
        {
          "internalType": "uint256",
          "name": "amount1Diff",
          "type": "uint256"
        }
      ],
      "stateMutability": "nonpayable",
      "type": "function"
    }
  ],
  "transactionHash": "0x6d2c70ae0a16f4c83256b951a33299a3450d888ddac014973248eb65248559b2",
  "args": [
    "0x6aC8Bab8B775a03b8B72B2940251432442f61B94"
  ],
  "numDeployments": 1,
  "solcInputHash": "3220d95c3e25253269fc3c7a3b537c82",
  "bytecode": "0x60a060405234801561001057600080fd5b5060405161104038038061104083398101604081905261002f9161007e565b6001600160a01b03811661006d5760405162461bcd60e51b81526020600482015260016024820152602d60f91b604482015260640160405180910390fd5b6001600160a01b03166080526100ae565b60006020828403121561009057600080fd5b81516001600160a01b03811681146100a757600080fd5b9392505050565b608051610f646100dc60003960008181606d0152818160b5015281816105fe01526106380152610f646000f3fe608060405234801561001057600080fd5b50600436106100365760003560e01c8063733eee541461003b578063f887ea4014610068575b600080fd5b61004e610049366004610ce7565b6100a7565b604080519283526020830191909152015b60405180910390f35b61008f7f000000000000000000000000000000000000000000000000000000000000000081565b6040516001600160a01b03909116815260200161005f565b600080336001600160a01b037f000000000000000000000000000000000000000000000000000000000000000016146101275760405162461bcd60e51b815260206004820152600160248201527f520000000000000000000000000000000000000000000000000000000000000060448201526064015b60405180910390fd5b6000836020015160a001516001600160a01b0316630dfe16816040518163ffffffff1660e01b8152600401602060405180830381865afa15801561016f573d6000803e3d6000fd5b505050506040513d601f19601f820116820180604052508101906101939190610e1b565b90506000846020015160a001516001600160a01b031663d21220a76040518163ffffffff1660e01b8152600401602060405180830381865afa1580156101dd573d6000803e3d6000fd5b505050506040513d601f19601f820116820180604052508101906102019190610e1b565b90506000856000015160800151156102a5576040516370a0823160e01b81523060048201526001600160a01b038416906370a0823190602401602060405180830381865afa158015610257573d6000803e3d6000fd5b505050506040513d601f19601f8201168201806040525081019061027b9190610e38565b865160608101516020909101519192506102a0916001600160a01b0386169190610668565b610332565b6040516370a0823160e01b81523060048201526001600160a01b038316906370a0823190602401602060405180830381865afa1580156102e9573d6000803e3d6000fd5b505050506040513d601f19601f8201168201806040525081019061030d9190610e38565b86516060810151602090910151919250610332916001600160a01b0385169190610668565b8551606081015190516040516000926001600160a01b03169161035491610e7d565b6000604051808303816000865af19150503d8060008114610391576040519150601f19603f3d011682016040523d82523d6000602084013e610396565b606091505b50509050806103e75760405162461bcd60e51b815260206004820152601b60248201527f737761703a206c6f772d6c6576656c2063616c6c206661696c65640000000000604482015260640161011e565b865160800151156104135786516060015161040e906001600160a01b038616906000610780565b61042f565b86516060015161042f906001600160a01b038516906000610780565b6040516370a0823160e01b81523060048201526000906001600160a01b038616906370a0823190602401602060405180830381865afa158015610476573d6000803e3d6000fd5b505050506040513d601f19601f8201168201806040525081019061049a9190610e38565b6040516370a0823160e01b81523060048201529091506000906001600160a01b038616906370a0823190602401602060405180830381865afa1580156104e4573d6000803e3d6000fd5b505050506040513d601f19601f820116820180604052508101906105089190610e38565b89516080015190915015610582576105208285610eaf565b975080965088600001516040015187101561057d5760405162461bcd60e51b815260206004820152601c60248201527f737761703a2072656365697665642062656c6f77206d696e696d756d00000000604482015260640161011e565b6105e9565b81975080846105919190610eaf565b8951604001519097508810156105e95760405162461bcd60e51b815260206004820152601c60248201527f737761703a2072656365697665642062656c6f77206d696e696d756d00000000604482015260640161011e565b8115610623576106236001600160a01b0387167f0000000000000000000000000000000000000000000000000000000000000000846108a1565b801561065d5761065d6001600160a01b0386167f0000000000000000000000000000000000000000000000000000000000000000836108a1565b505050505050915091565b604051636eb1769f60e11b81523060048201526001600160a01b038381166024830152600091839186169063dd62ed3e90604401602060405180830381865afa1580156106b9573d6000803e3d6000fd5b505050506040513d601f19601f820116820180604052508101906106dd9190610e38565b6106e79190610ec6565b6040516001600160a01b03851660248201526044810182905290915061077a90859063095ea7b360e01b906064015b60408051601f198184030181529190526020810180517bffffffffffffffffffffffffffffffffffffffffffffffffffffffff167fffffffff00000000000000000000000000000000000000000000000000000000909316929092179091526108ea565b50505050565b8015806107fa5750604051636eb1769f60e11b81523060048201526001600160a01b03838116602483015284169063dd62ed3e90604401602060405180830381865afa1580156107d4573d6000803e3d6000fd5b505050506040513d601f19601f820116820180604052508101906107f89190610e38565b155b61086c5760405162461bcd60e51b815260206004820152603660248201527f5361666545524332303a20617070726f76652066726f6d206e6f6e2d7a65726f60448201527f20746f206e6f6e2d7a65726f20616c6c6f77616e636500000000000000000000606482015260840161011e565b6040516001600160a01b03831660248201526044810182905261089c90849063095ea7b360e01b90606401610716565b505050565b6040516001600160a01b03831660248201526044810182905261089c9084907fa9059cbb0000000000000000000000000000000000000000000000000000000090606401610716565b600061093f826040518060400160405280602081526020017f5361666545524332303a206c6f772d6c6576656c2063616c6c206661696c6564815250856001600160a01b03166109cf9092919063ffffffff16565b80519091501561089c578080602001905181019061095d9190610ede565b61089c5760405162461bcd60e51b815260206004820152602a60248201527f5361666545524332303a204552433230206f7065726174696f6e20646964206e60448201527f6f74207375636365656400000000000000000000000000000000000000000000606482015260840161011e565b60606109de84846000856109e8565b90505b9392505050565b606082471015610a605760405162461bcd60e51b815260206004820152602660248201527f416464726573733a20696e73756666696369656e742062616c616e636520666f60448201527f722063616c6c0000000000000000000000000000000000000000000000000000606482015260840161011e565b6001600160a01b0385163b610ab75760405162461bcd60e51b815260206004820152601d60248201527f416464726573733a2063616c6c20746f206e6f6e2d636f6e7472616374000000604482015260640161011e565b600080866001600160a01b03168587604051610ad39190610e7d565b60006040518083038185875af1925050503d8060008114610b10576040519150601f19603f3d011682016040523d82523d6000602084013e610b15565b606091505b5091509150610b25828286610b30565b979650505050505050565b60608315610b3f5750816109e1565b825115610b4f5782518084602001fd5b8160405162461bcd60e51b815260040161011e9190610efb565b634e487b7160e01b600052604160045260246000fd5b6040805190810167ffffffffffffffff81118282101715610ba257610ba2610b69565b60405290565b60405160a0810167ffffffffffffffff81118282101715610ba257610ba2610b69565b604051601f8201601f1916810167ffffffffffffffff81118282101715610bf457610bf4610b69565b604052919050565b6001600160a01b0381168114610c1157600080fd5b50565b8035610c1f81610bfc565b919050565b8015158114610c1157600080fd5b8035610c1f81610c24565b6000610100808385031215610c5157600080fd5b6040519081019067ffffffffffffffff82118183101715610c7457610c74610b69565b81604052809250833581526020840135602082015260408401356040820152606084013560608201526080840135608082015260a08401359150610cb782610bfc565b8160a0820152610cc960c08501610c14565b60c0820152610cda60e08501610c14565b60e0820152505092915050565b60006020808385031215610cfa57600080fd5b823567ffffffffffffffff80821115610d1257600080fd5b908401906101208287031215610d2757600080fd5b610d2f610b7f565b823582811115610d3e57600080fd5b830160a08189031215610d5057600080fd5b610d58610ba8565b813584811115610d6757600080fd5b8201601f81018a13610d7857600080fd5b803585811115610d8a57610d8a610b69565b610d9c601f8201601f19168901610bcb565b95508086528a88828401011115610db257600080fd5b808883018988013760008882880101525050838152858201358682015260408201356040820152610de560608301610c14565b6060820152610df660808301610c32565b6080820152825250610e0a87848601610c3d565b848201528094505050505092915050565b600060208284031215610e2d57600080fd5b81516109e181610bfc565b600060208284031215610e4a57600080fd5b5051919050565b60005b83811015610e6c578181015183820152602001610e54565b8381111561077a5750506000910152565b60008251610e8f818460208701610e51565b9190910192915050565b634e487b7160e01b600052601160045260246000fd5b600082821015610ec157610ec1610e99565b500390565b60008219821115610ed957610ed9610e99565b500190565b600060208284031215610ef057600080fd5b81516109e181610c24565b6020815260008251806020840152610f1a816040850160208701610e51565b601f01601f1916919091016040019291505056fea2646970667358221220d71ce2259294dd8e74bebb744c24130f70450233250ef6d4c7aacc0666691e8164736f6c634300080d0033",
  "devdoc": {
    "kind": "dev",
    "methods": {},
    "version": 1
  },
  "userdoc": {
    "kind": "user",
    "methods": {},
    "notice": "External function of this contract can only be called by ArrakisV2Routerdo not give approvals to this contract's address",
    "version": 1
  },
  "storageLayout": {
    "storage": [],
    "types": null
  }
}