{
  "address": "0xbd94Cd6989935BE6d40dfc5A2d5869a598754251",
  "abi": [
    {
      "inputs": [
        {
          "internalType": "address",
          "name": "weth_",
          "type": "address"
        },
        {
          "internalType": "address",
          "name": "resolver_",
          "type": "address"
        },
        {
          "internalType": "address",
          "name": "permit2_",
          "type": "address"
        }
      ],
      "stateMutability": "nonpayable",
      "type": "constructor"
    },
    {
      "anonymous": false,
      "inputs": [
        {
          "indexed": false,
          "internalType": "uint8",
          "name": "version",
          "type": "uint8"
        }
      ],
      "name": "Initialized",
      "type": "event"
    },
    {
      "anonymous": false,
      "inputs": [
        {
          "indexed": false,
          "internalType": "address",
          "name": "vault",
          "type": "address"
        },
        {
          "indexed": false,
          "internalType": "address[]",
          "name": "blacklisted",
          "type": "address[]"
        }
      ],
      "name": "LogBlacklist",
      "type": "event"
    },
    {
      "anonymous": false,
      "inputs": [
        {
          "indexed": false,
          "internalType": "address",
          "name": "vault",
          "type": "address"
        },
        {
          "indexed": false,
          "internalType": "uint256",
          "name": "supplyCap",
          "type": "uint256"
        },
        {
          "indexed": false,
          "internalType": "bool",
          "name": "hasWhitelist",
          "type": "bool"
        }
      ],
      "name": "LogSetVault",
      "type": "event"
    },
    {
      "anonymous": false,
      "inputs": [
        {
          "indexed": false,
          "internalType": "address",
          "name": "vault",
          "type": "address"
        },
        {
          "indexed": false,
          "internalType": "address[]",
          "name": "whitelisted",
          "type": "address[]"
        }
      ],
      "name": "LogWhitelist",
      "type": "event"
    },
    {
      "anonymous": false,
      "inputs": [
        {
          "indexed": true,
          "internalType": "address",
          "name": "previousOwner",
          "type": "address"
        },
        {
          "indexed": true,
          "internalType": "address",
          "name": "newOwner",
          "type": "address"
        }
      ],
      "name": "OwnershipTransferred",
      "type": "event"
    },
    {
      "anonymous": false,
      "inputs": [
        {
          "indexed": false,
          "internalType": "address",
          "name": "account",
          "type": "address"
        }
      ],
      "name": "Paused",
      "type": "event"
    },
    {
      "anonymous": false,
      "inputs": [
        {
          "indexed": false,
          "internalType": "bool",
          "name": "zeroForOne",
          "type": "bool"
        },
        {
          "indexed": false,
          "internalType": "uint256",
          "name": "amount0Diff",
          "type": "uint256"
        },
        {
          "indexed": false,
          "internalType": "uint256",
          "name": "amount1Diff",
          "type": "uint256"
        },
        {
          "indexed": false,
          "internalType": "uint256",
          "name": "amountOutSwap",
          "type": "uint256"
        }
      ],
      "name": "Swapped",
      "type": "event"
    },
    {
      "anonymous": false,
      "inputs": [
        {
          "indexed": false,
          "internalType": "address",
          "name": "account",
          "type": "address"
        }
      ],
      "name": "Unpaused",
      "type": "event"
    },
    {
      "inputs": [
        {
          "components": [
            {
              "internalType": "uint256",
              "name": "amount0Max",
              "type": "uint256"
            },
            {
              "internalType": "uint256",
              "name": "amount1Max",
              "type": "uint256"
            },
            {
              "internalType": "uint256",
              "name": "amount0Min",
              "type": "uint256"
            },
            {
              "internalType": "uint256",
              "name": "amount1Min",
              "type": "uint256"
            },
            {
              "internalType": "uint256",
              "name": "amountSharesMin",
              "type": "uint256"
            },
            {
              "internalType": "address",
              "name": "vault",
              "type": "address"
            },
            {
              "internalType": "address",
              "name": "receiver",
              "type": "address"
            },
            {
              "internalType": "address",
              "name": "gauge",
              "type": "address"
            }
          ],
          "internalType": "struct AddLiquidityData",
          "name": "params_",
          "type": "tuple"
        }
      ],
      "name": "addLiquidity",
      "outputs": [
        {
          "internalType": "uint256",
          "name": "amount0",
          "type": "uint256"
        },
        {
          "internalType": "uint256",
          "name": "amount1",
          "type": "uint256"
        },
        {
          "internalType": "uint256",
          "name": "sharesReceived",
          "type": "uint256"
        }
      ],
      "stateMutability": "payable",
      "type": "function"
    },
    {
      "inputs": [
        {
          "components": [
            {
              "components": [
                {
                  "internalType": "uint256",
                  "name": "amount0Max",
                  "type": "uint256"
                },
                {
                  "internalType": "uint256",
                  "name": "amount1Max",
                  "type": "uint256"
                },
                {
                  "internalType": "uint256",
                  "name": "amount0Min",
                  "type": "uint256"
                },
                {
                  "internalType": "uint256",
                  "name": "amount1Min",
                  "type": "uint256"
                },
                {
                  "internalType": "uint256",
                  "name": "amountSharesMin",
                  "type": "uint256"
                },
                {
                  "internalType": "address",
                  "name": "vault",
                  "type": "address"
                },
                {
                  "internalType": "address",
                  "name": "receiver",
                  "type": "address"
                },
                {
                  "internalType": "address",
                  "name": "gauge",
                  "type": "address"
                }
              ],
              "internalType": "struct AddLiquidityData",
              "name": "addData",
              "type": "tuple"
            },
            {
              "components": [
                {
                  "components": [
                    {
                      "internalType": "address",
                      "name": "token",
                      "type": "address"
                    },
                    {
                      "internalType": "uint256",
                      "name": "amount",
                      "type": "uint256"
                    }
                  ],
                  "internalType": "struct TokenPermissions[]",
                  "name": "permitted",
                  "type": "tuple[]"
                },
                {
                  "internalType": "uint256",
                  "name": "nonce",
                  "type": "uint256"
                },
                {
                  "internalType": "uint256",
                  "name": "deadline",
                  "type": "uint256"
                }
              ],
              "internalType": "struct PermitBatchTransferFrom",
              "name": "permit",
              "type": "tuple"
            },
            {
              "internalType": "bytes",
              "name": "signature",
              "type": "bytes"
            }
          ],
          "internalType": "struct AddLiquidityPermit2Data",
          "name": "params_",
          "type": "tuple"
        }
      ],
      "name": "addLiquidityPermit2",
      "outputs": [
        {
          "internalType": "uint256",
          "name": "amount0",
          "type": "uint256"
        },
        {
          "internalType": "uint256",
          "name": "amount1",
          "type": "uint256"
        },
        {
          "internalType": "uint256",
          "name": "sharesReceived",
          "type": "uint256"
        }
      ],
      "stateMutability": "payable",
      "type": "function"
    },
    {
      "inputs": [
        {
          "internalType": "address",
          "name": "vault_",
          "type": "address"
        },
        {
          "internalType": "address[]",
          "name": "toBlacklist_",
          "type": "address[]"
        }
      ],
      "name": "blacklist",
      "outputs": [],
      "stateMutability": "nonpayable",
      "type": "function"
    },
    {
      "inputs": [
        {
          "internalType": "address",
          "name": "vault_",
          "type": "address"
        }
      ],
      "name": "getWhitelist",
      "outputs": [
        {
          "internalType": "address[]",
          "name": "",
          "type": "address[]"
        }
      ],
      "stateMutability": "view",
      "type": "function"
    },
    {
      "inputs": [
        {
          "internalType": "address",
          "name": "owner_",
          "type": "address"
        }
      ],
      "name": "initialize",
      "outputs": [],
      "stateMutability": "nonpayable",
      "type": "function"
    },
    {
      "inputs": [
        {
          "internalType": "address",
          "name": "",
          "type": "address"
        }
      ],
      "name": "mintRestrictedVaults",
      "outputs": [
        {
          "internalType": "uint256",
          "name": "supplyCap",
          "type": "uint256"
        },
        {
          "internalType": "bool",
          "name": "hasWhitelist",
          "type": "bool"
        }
      ],
      "stateMutability": "view",
      "type": "function"
    },
    {
      "inputs": [],
      "name": "owner",
      "outputs": [
        {
          "internalType": "address",
          "name": "",
          "type": "address"
        }
      ],
      "stateMutability": "view",
      "type": "function"
    },
    {
      "inputs": [],
      "name": "pause",
      "outputs": [],
      "stateMutability": "nonpayable",
      "type": "function"
    },
    {
      "inputs": [],
      "name": "paused",
      "outputs": [
        {
          "internalType": "bool",
          "name": "",
          "type": "bool"
        }
      ],
      "stateMutability": "view",
      "type": "function"
    },
    {
      "inputs": [],
      "name": "permit2",
      "outputs": [
        {
          "internalType": "contract IPermit2",
          "name": "",
          "type": "address"
        }
      ],
      "stateMutability": "view",
      "type": "function"
    },
    {
      "inputs": [
        {
          "components": [
            {
              "internalType": "uint256",
              "name": "burnAmount",
              "type": "uint256"
            },
            {
              "internalType": "uint256",
              "name": "amount0Min",
              "type": "uint256"
            },
            {
              "internalType": "uint256",
              "name": "amount1Min",
              "type": "uint256"
            },
            {
              "internalType": "address",
              "name": "vault",
              "type": "address"
            },
            {
              "internalType": "address payable",
              "name": "receiver",
              "type": "address"
            },
            {
              "internalType": "address",
              "name": "gauge",
              "type": "address"
            },
            {
              "internalType": "bool",
              "name": "receiveETH",
              "type": "bool"
            }
          ],
          "internalType": "struct RemoveLiquidityData",
          "name": "params_",
          "type": "tuple"
        }
      ],
      "name": "removeLiquidity",
      "outputs": [
        {
          "internalType": "uint256",
          "name": "amount0",
          "type": "uint256"
        },
        {
          "internalType": "uint256",
          "name": "amount1",
          "type": "uint256"
        }
      ],
      "stateMutability": "nonpayable",
      "type": "function"
    },
    {
      "inputs": [
        {
          "components": [
            {
              "components": [
                {
                  "internalType": "uint256",
                  "name": "burnAmount",
                  "type": "uint256"
                },
                {
                  "internalType": "uint256",
                  "name": "amount0Min",
                  "type": "uint256"
                },
                {
                  "internalType": "uint256",
                  "name": "amount1Min",
                  "type": "uint256"
                },
                {
                  "internalType": "address",
                  "name": "vault",
                  "type": "address"
                },
                {
                  "internalType": "address payable",
                  "name": "receiver",
                  "type": "address"
                },
                {
                  "internalType": "address",
                  "name": "gauge",
                  "type": "address"
                },
                {
                  "internalType": "bool",
                  "name": "receiveETH",
                  "type": "bool"
                }
              ],
              "internalType": "struct RemoveLiquidityData",
              "name": "removeData",
              "type": "tuple"
            },
            {
              "components": [
                {
                  "components": [
                    {
                      "internalType": "address",
                      "name": "token",
                      "type": "address"
                    },
                    {
                      "internalType": "uint256",
                      "name": "amount",
                      "type": "uint256"
                    }
                  ],
                  "internalType": "struct TokenPermissions",
                  "name": "permitted",
                  "type": "tuple"
                },
                {
                  "internalType": "uint256",
                  "name": "nonce",
                  "type": "uint256"
                },
                {
                  "internalType": "uint256",
                  "name": "deadline",
                  "type": "uint256"
                }
              ],
              "internalType": "struct PermitTransferFrom",
              "name": "permit",
              "type": "tuple"
            },
            {
              "internalType": "bytes",
              "name": "signature",
              "type": "bytes"
            }
          ],
          "internalType": "struct RemoveLiquidityPermit2Data",
          "name": "params_",
          "type": "tuple"
        }
      ],
      "name": "removeLiquidityPermit2",
      "outputs": [
        {
          "internalType": "uint256",
          "name": "amount0",
          "type": "uint256"
        },
        {
          "internalType": "uint256",
          "name": "amount1",
          "type": "uint256"
        }
      ],
      "stateMutability": "nonpayable",
      "type": "function"
    },
    {
      "inputs": [],
      "name": "renounceOwnership",
      "outputs": [],
      "stateMutability": "nonpayable",
      "type": "function"
    },
    {
      "inputs": [],
      "name": "resolver",
      "outputs": [
        {
          "internalType": "contract IArrakisV2Resolver",
          "name": "",
          "type": "address"
        }
      ],
      "stateMutability": "view",
      "type": "function"
    },
    {
      "inputs": [
        {
          "internalType": "address",
          "name": "vault_",
          "type": "address"
        },
        {
          "internalType": "uint256",
          "name": "supplyCap_",
          "type": "uint256"
        },
        {
          "internalType": "bool",
          "name": "hasWhitelist_",
          "type": "bool"
        }
      ],
      "name": "setMintRules",
      "outputs": [],
      "stateMutability": "nonpayable",
      "type": "function"
    },
    {
      "inputs": [
        {
          "components": [
            {
              "components": [
                {
                  "internalType": "bytes",
                  "name": "swapPayload",
                  "type": "bytes"
                },
                {
                  "internalType": "uint256",
                  "name": "amountInSwap",
                  "type": "uint256"
                },
                {
                  "internalType": "uint256",
                  "name": "amountOutSwap",
                  "type": "uint256"
                },
                {
                  "internalType": "address",
                  "name": "swapRouter",
                  "type": "address"
                },
                {
                  "internalType": "bool",
                  "name": "zeroForOne",
                  "type": "bool"
                }
              ],
              "internalType": "struct SwapData",
              "name": "swapData",
              "type": "tuple"
            },
            {
              "components": [
                {
                  "internalType": "uint256",
                  "name": "amount0Max",
                  "type": "uint256"
                },
                {
                  "internalType": "uint256",
                  "name": "amount1Max",
                  "type": "uint256"
                },
                {
                  "internalType": "uint256",
                  "name": "amount0Min",
                  "type": "uint256"
                },
                {
                  "internalType": "uint256",
                  "name": "amount1Min",
                  "type": "uint256"
                },
                {
                  "internalType": "uint256",
                  "name": "amountSharesMin",
                  "type": "uint256"
                },
                {
                  "internalType": "address",
                  "name": "vault",
                  "type": "address"
                },
                {
                  "internalType": "address",
                  "name": "receiver",
                  "type": "address"
                },
                {
                  "internalType": "address",
                  "name": "gauge",
                  "type": "address"
                }
              ],
              "internalType": "struct AddLiquidityData",
              "name": "addData",
              "type": "tuple"
            }
          ],
          "internalType": "struct SwapAndAddData",
          "name": "params_",
          "type": "tuple"
        }
      ],
      "name": "swapAndAddLiquidity",
      "outputs": [
        {
          "internalType": "uint256",
          "name": "amount0",
          "type": "uint256"
        },
        {
          "internalType": "uint256",
          "name": "amount1",
          "type": "uint256"
        },
        {
          "internalType": "uint256",
          "name": "sharesReceived",
          "type": "uint256"
        },
        {
          "internalType": "uint256",
          "name": "amount0Diff",
          "type": "uint256"
        },
        {
          "internalType": "uint256",
          "name": "amount1Diff",
          "type": "uint256"
        }
      ],
      "stateMutability": "payable",
      "type": "function"
    },
    {
      "inputs": [
        {
          "components": [
            {
              "components": [
                {
                  "components": [
                    {
                      "internalType": "bytes",
                      "name": "swapPayload",
                      "type": "bytes"
                    },
                    {
                      "internalType": "uint256",
                      "name": "amountInSwap",
                      "type": "uint256"
                    },
                    {
                      "internalType": "uint256",
                      "name": "amountOutSwap",
                      "type": "uint256"
                    },
                    {
                      "internalType": "address",
                      "name": "swapRouter",
                      "type": "address"
                    },
                    {
                      "internalType": "bool",
                      "name": "zeroForOne",
                      "type": "bool"
                    }
                  ],
                  "internalType": "struct SwapData",
                  "name": "swapData",
                  "type": "tuple"
                },
                {
                  "components": [
                    {
                      "internalType": "uint256",
                      "name": "amount0Max",
                      "type": "uint256"
                    },
                    {
                      "internalType": "uint256",
                      "name": "amount1Max",
                      "type": "uint256"
                    },
                    {
                      "internalType": "uint256",
                      "name": "amount0Min",
                      "type": "uint256"
                    },
                    {
                      "internalType": "uint256",
                      "name": "amount1Min",
                      "type": "uint256"
                    },
                    {
                      "internalType": "uint256",
                      "name": "amountSharesMin",
                      "type": "uint256"
                    },
                    {
                      "internalType": "address",
                      "name": "vault",
                      "type": "address"
                    },
                    {
                      "internalType": "address",
                      "name": "receiver",
                      "type": "address"
                    },
                    {
                      "internalType": "address",
                      "name": "gauge",
                      "type": "address"
                    }
                  ],
                  "internalType": "struct AddLiquidityData",
                  "name": "addData",
                  "type": "tuple"
                }
              ],
              "internalType": "struct SwapAndAddData",
              "name": "swapAndAddData",
              "type": "tuple"
            },
            {
              "components": [
                {
                  "components": [
                    {
                      "internalType": "address",
                      "name": "token",
                      "type": "address"
                    },
                    {
                      "internalType": "uint256",
                      "name": "amount",
                      "type": "uint256"
                    }
                  ],
                  "internalType": "struct TokenPermissions[]",
                  "name": "permitted",
                  "type": "tuple[]"
                },
                {
                  "internalType": "uint256",
                  "name": "nonce",
                  "type": "uint256"
                },
                {
                  "internalType": "uint256",
                  "name": "deadline",
                  "type": "uint256"
                }
              ],
              "internalType": "struct PermitBatchTransferFrom",
              "name": "permit",
              "type": "tuple"
            },
            {
              "internalType": "bytes",
              "name": "signature",
              "type": "bytes"
            }
          ],
          "internalType": "struct SwapAndAddPermit2Data",
          "name": "params_",
          "type": "tuple"
        }
      ],
      "name": "swapAndAddLiquidityPermit2",
      "outputs": [
        {
          "internalType": "uint256",
          "name": "amount0",
          "type": "uint256"
        },
        {
          "internalType": "uint256",
          "name": "amount1",
          "type": "uint256"
        },
        {
          "internalType": "uint256",
          "name": "sharesReceived",
          "type": "uint256"
        },
        {
          "internalType": "uint256",
          "name": "amount0Diff",
          "type": "uint256"
        },
        {
          "internalType": "uint256",
          "name": "amount1Diff",
          "type": "uint256"
        }
      ],
      "stateMutability": "payable",
      "type": "function"
    },
    {
      "inputs": [],
      "name": "swapper",
      "outputs": [
        {
          "internalType": "contract IRouterSwapExecutor",
          "name": "",
          "type": "address"
        }
      ],
      "stateMutability": "view",
      "type": "function"
    },
    {
      "inputs": [
        {
          "internalType": "address",
          "name": "newOwner",
          "type": "address"
        }
      ],
      "name": "transferOwnership",
      "outputs": [],
      "stateMutability": "nonpayable",
      "type": "function"
    },
    {
      "inputs": [],
      "name": "unpause",
      "outputs": [],
      "stateMutability": "nonpayable",
      "type": "function"
    },
    {
      "inputs": [
        {
          "internalType": "address",
          "name": "swapper_",
          "type": "address"
        }
      ],
      "name": "updateSwapExecutor",
      "outputs": [],
      "stateMutability": "nonpayable",
      "type": "function"
    },
    {
      "inputs": [],
      "name": "weth",
      "outputs": [
        {
          "internalType": "contract IWETH",
          "name": "",
          "type": "address"
        }
      ],
      "stateMutability": "view",
      "type": "function"
    },
    {
      "inputs": [
        {
          "internalType": "address",
          "name": "vault_",
          "type": "address"
        },
        {
          "internalType": "address[]",
          "name": "toWhitelist_",
          "type": "address[]"
        }
      ],
      "name": "whitelist",
      "outputs": [],
      "stateMutability": "nonpayable",
      "type": "function"
    },
    {
      "stateMutability": "payable",
      "type": "receive"
    }
  ],
  "transactionHash": "0xe5d78b652417100861cc72af788c7dfac06c6f05e33cc762638641820d232c3c",
  "args": [
    "0xB4FBF271143F4FBf7B91A5ded31805e42b2208d6",
    "0xb11bb8ad710579Cc5ED16b1C8587808109c1f193",
    "0x000000000022D473030F116dDEE9F6B43aC78BA3"
  ],
  "numDeployments": 1,
  "solcInputHash": "2043bc1fc6d2ff67195ec4a27a987add",
  "bytecode": "0x60e06040523480156200001157600080fd5b506040516200500e3803806200500e8339810160408190526200003491620000e1565b8282826001600160a01b038316158015906200005857506001600160a01b03821615155b80156200006d57506001600160a01b03811615155b620000a25760405162461bcd60e51b81526020600482015260016024820152602d60f91b604482015260640160405180910390fd5b6001600160a01b0392831660805290821660a0521660c052506200012b915050565b80516001600160a01b0381168114620000dc57600080fd5b919050565b600080600060608486031215620000f757600080fd5b6200010284620000c4565b92506200011260208501620000c4565b91506200012260408501620000c4565b90509250925092565b60805160a05160c051614e4a620001c4600039600081816102150152818161083b0152818161093c015281816123b10152818161254d01528181612d950152612f280152600081816101c40152818161147501528181611cd701526127cc01526000818161030001528181612b760152818161392c015281816139df01528181613bc401528181613c050152613ca20152614e4a6000f3fe6080604052600436106101845760003560e01c80636c4587df116100d657806390979aae1161007f578063ee0ced3411610059578063ee0ced34146104b5578063f2fde38b146104d5578063f9a1b348146104f557600080fd5b806390979aae14610454578063af42426e14610467578063c4d66de81461049557600080fd5b80638456cb59116100b05780638456cb59146104015780638aa8b5df146104165780638da5cb5b1461043657600080fd5b80636c4587df14610365578063715018a6146103a057806383f547bb146103b557600080fd5b806330edc0f5116101385780633fc8cef3116101125780633fc8cef3146102ee57806352ddc2c9146103225780635c975abb1461034257600080fd5b806330edc0f51461028c5780633d341d09146102b95780633f4ba83a146102d957600080fd5b806312261ee71161016957806312261ee71461020357806318da5c6e146102375780632b3297f91461026c57600080fd5b80630163c4a21461019057806304f3bcec146101b257600080fd5b3661018b57005b600080fd5b34801561019c57600080fd5b506101b06101ab36600461427e565b610508565b005b3480156101be57600080fd5b506101e67f000000000000000000000000000000000000000000000000000000000000000081565b6040516001600160a01b0390911681526020015b60405180910390f35b34801561020f57600080fd5b506101e67f000000000000000000000000000000000000000000000000000000000000000081565b34801561024357600080fd5b50610257610252366004614494565b610672565b604080519283526020830191909152016101fa565b34801561027857600080fd5b5060cb546101e6906001600160a01b031681565b34801561029857600080fd5b506102ac6102a736600461455f565b6109c7565b6040516101fa91906145c0565b3480156102c557600080fd5b506101b06102d436600461427e565b6109f1565b3480156102e557600080fd5b506101b0610b4a565b3480156102fa57600080fd5b506101e67f000000000000000000000000000000000000000000000000000000000000000081565b34801561032e57600080fd5b506101b061033d3660046145d3565b610b5c565b34801561034e57600080fd5b5060655460ff1660405190151581526020016101fa565b610378610373366004614847565b610cfd565b604080519586526020860194909452928401919091526060830152608082015260a0016101fa565b3480156103ac57600080fd5b506101b0610f73565b3480156103c157600080fd5b506103ec6103d036600461455f565b60ca602052600090815260409020805460019091015460ff1682565b604080519283529015156020830152016101fa565b34801561040d57600080fd5b506101b0610f85565b34801561042257600080fd5b506101b061043136600461455f565b610f95565b34801561044257600080fd5b506033546001600160a01b03166101e6565b6103786104623660046148fc565b611006565b61047a610475366004614931565b6112f8565b604080519384526020840192909252908201526060016101fa565b3480156104a157600080fd5b506101b06104b036600461455f565b61171c565b3480156104c157600080fd5b506102576104d03660046149bc565b611884565b3480156104e157600080fd5b506101b06104f036600461455f565b611ad7565b61047a6105033660046149d8565b611b67565b610510611f74565b6001600160a01b038216600090815260ca602052604090205461057a5760405162461bcd60e51b815260206004820152600d60248201527f7661756c74206e6f74207365740000000000000000000000000000000000000060448201526064015b60405180910390fd5b60005b8151811015610634576105d682828151811061059b5761059b6149f5565b602002602001015160c96000866001600160a01b03166001600160a01b03168152602001908152602001600020611fce90919063ffffffff16565b6106225760405162461bcd60e51b815260206004820152600d60248201527f72656d6f7665206661696c6564000000000000000000000000000000000000006044820152606401610571565b8061062c81614a21565b91505061057d565b507f873ef515da7238965dc94db72c0a7ac29223b6b486acd44c43b57e43e0d1bd678282604051610666929190614a3a565b60405180910390a15050565b60008061067d611fea565b61068561203d565b8251516106d45760405162461bcd60e51b815260206004820152600f60248201527f6e6f7468696e6720746f206275726e00000000000000000000000000000000006044820152606401610571565b604080518082019091523081528351516020820152835160a001516001600160a01b03161561091b57836000015160a001516001600160a01b0316632dc7d74c6040518163ffffffff1660e01b8152600401602060405180830381865afa158015610743573d6000803e3d6000fd5b505050506040513d601f19601f820116820180604052508101906107679190614a5c565b6001600160a01b03168460000151606001516001600160a01b0316146107c25760405162461bcd60e51b815260206004820152601060248201526f496e636f72726563742067617567652160801b6044820152606401610571565b835160a00151604051634274debf60e11b81523360048201526001600160a01b03909116906384e9bd7e90602401600060405180830381600087803b15801561080a57600080fd5b505af115801561081e573d6000803e3d6000fd5b505050506020840151604080860151905163187945bd60e11b81527f00000000000000000000000000000000000000000000000000000000000000006001600160a01b0316926330f28b7a9261087a9286913391600401614ad1565b600060405180830381600087803b15801561089457600080fd5b505af11580156108a8573d6000803e3d6000fd5b5050855160a08101519051604051632e1a7d4d60e01b81526001600160a01b039092169350632e1a7d4d92506108e49160040190815260200190565b600060405180830381600087803b1580156108fe57600080fd5b505af1158015610912573d6000803e3d6000fd5b505050506109a6565b6020840151604080860151905163187945bd60e11b81526001600160a01b037f000000000000000000000000000000000000000000000000000000000000000016926330f28b7a926109739286913391600401614ad1565b600060405180830381600087803b15801561098d57600080fd5b505af11580156109a1573d6000803e3d6000fd5b505050505b83516109b190612096565b90935091506109c290506001609755565b915091565b6001600160a01b038116600090815260c9602052604090206060906109eb90612235565b92915050565b6109f9611f74565b6001600160a01b038216600090815260ca6020526040902054610a5e5760405162461bcd60e51b815260206004820152600d60248201527f7661756c74206e6f7420736574000000000000000000000000000000000000006044820152606401610571565b60005b8151811015610b1857610aba828281518110610a7f57610a7f6149f5565b602002602001015160c96000866001600160a01b03166001600160a01b0316815260200190815260200160002061224290919063ffffffff16565b610b065760405162461bcd60e51b815260206004820152600a60248201527f616464206661696c6564000000000000000000000000000000000000000000006044820152606401610571565b80610b1081614a21565b915050610a61565b507f05f7a2237269b1c8bb821926850c9f32e94bc856def0a0e16dc401381560eb188282604051610666929190614a3a565b610b52611f74565b610b5a612257565b565b610b64611f74565b60008211610bb65760405162461bcd60e51b81526004016105719060208082526004908201527f7a65726f00000000000000000000000000000000000000000000000000000000604082015260600190565b6000836001600160a01b031663c7a4ae176040518163ffffffff1660e01b8152600401602060405180830381865afa158015610bf6573d6000803e3d6000fd5b505050506040513d601f19601f82011682018060405250810190610c1a9190614a5c565b90506001600160a01b0381163014610c745760405162461bcd60e51b815260206004820152600e60248201527f6d757374206265206d696e7465720000000000000000000000000000000000006044820152606401610571565b60408051808201825284815283151560208083018281526001600160a01b038916600081815260ca84528690209451855590516001909401805460ff191694151594909417909355835192835282018690528183015290517f667213614f7d69100bd4d23afd5020cb027ffa7a720074bd42cc63c15716b152916060908290030190a150505050565b6000806000806000610d0d611fea565b610d1561203d565b85516020015151151580610d3157508551602090810151015115155b610d715760405162461bcd60e51b8152602060048201526011602482015270456d707479206d617820616d6f756e747360781b6044820152606401610571565b85516020015160e001516001600160a01b031615610e565785600001516020015160e001516001600160a01b0316632dc7d74c6040518163ffffffff1660e01b8152600401602060405180830381865afa158015610dd3573d6000803e3d6000fd5b505050506040513d601f19601f82011682018060405250810190610df79190614a5c565b6001600160a01b031686600001516020015160a001516001600160a01b031614610e565760405162461bcd60e51b815260206004820152601060248201526f496e636f72726563742067617567652160801b6044820152606401610571565b600086600001516020015160a001516001600160a01b0316630dfe16816040518163ffffffff1660e01b8152600401602060405180830381865afa158015610ea2573d6000803e3d6000fd5b505050506040513d601f19601f82011682018060405250810190610ec69190614a5c565b9050600087600001516020015160a001516001600160a01b031663d21220a76040518163ffffffff1660e01b8152600401602060405180830381865afa158015610f14573d6000803e3d6000fd5b505050506040513d601f19601f82011682018060405250810190610f389190614a5c565b9050610f458883836122a9565b8751610f529083836125de565b939a50919850965094509250610f6a915061222e9050565b91939590929450565b610f7b611f74565b610b5a6000612a0f565b610f8d611f74565b610b5a612a6e565b610f9d611f74565b6001600160a01b038116610fd75760405162461bcd60e51b81526020600482015260016024820152602d60f91b6044820152606401610571565b60cb805473ffffffffffffffffffffffffffffffffffffffff19166001600160a01b0392909216919091179055565b6000806000806000611016611fea565b61101e61203d565b60208601515115158061103957506000866020015160200151115b6110795760405162461bcd60e51b8152602060048201526011602482015270456d707479206d617820616d6f756e747360781b6044820152606401610571565b602086015160e001516001600160a01b03161561115557856020015160e001516001600160a01b0316632dc7d74c6040518163ffffffff1660e01b8152600401602060405180830381865afa1580156110d6573d6000803e3d6000fd5b505050506040513d601f19601f820116820180604052508101906110fa9190614a5c565b6001600160a01b0316866020015160a001516001600160a01b0316146111555760405162461bcd60e51b815260206004820152601060248201526f496e636f72726563742067617567652160801b6044820152606401610571565b6000866020015160a001516001600160a01b0316630dfe16816040518163ffffffff1660e01b8152600401602060405180830381865afa15801561119d573d6000803e3d6000fd5b505050506040513d601f19601f820116820180604052508101906111c19190614a5c565b90506000876020015160a001516001600160a01b031663d21220a76040518163ffffffff1660e01b8152600401602060405180830381865afa15801561120b573d6000803e3d6000fd5b505050506040513d601f19601f8201168201806040525081019061122f9190614a5c565b905060003415611255576020808a01518051910151611252919060018686612aab565b90505b6020890151511580159061126f575034158061126f575080155b1561129257602089015151611292906001600160a01b0385169033903090612bf2565b60008960200151602001511180156112af57503415806112af5750805b156112d4576020808a015101516112d4906001600160a01b0384169033903090612bf2565b6112df8984846125de565b939b50919950975095509350610f6a925061222e915050565b6000806000611305611fea565b61130d61203d565b835151151580611321575083516020015115155b6113615760405162461bcd60e51b8152602060048201526011602482015270456d707479206d617820616d6f756e747360781b6044820152606401610571565b835160e001516001600160a01b03161561143a57836000015160e001516001600160a01b0316632dc7d74c6040518163ffffffff1660e01b8152600401602060405180830381865afa1580156113bb573d6000803e3d6000fd5b505050506040513d601f19601f820116820180604052508101906113df9190614a5c565b6001600160a01b0316846000015160a001516001600160a01b03161461143a5760405162461bcd60e51b815260206004820152601060248201526f496e636f72726563742067617567652160801b6044820152606401610571565b835160a0810151815160209092015160405163fa111ce760e01b81526001600160a01b039283166004820152602481019390935260448301527f0000000000000000000000000000000000000000000000000000000000000000169063fa111ce790606401606060405180830381865afa1580156114bc573d6000803e3d6000fd5b505050506040513d601f19601f820116820180604052508101906114e09190614b49565b91945092509050806115345760405162461bcd60e51b815260206004820152600f60248201527f6e6f7468696e6720746f206d696e7400000000000000000000000000000000006044820152606401610571565b835160400151831080159061154e57508351606001518210155b801561155f57508351608001518110155b6115ab5760405162461bcd60e51b815260206004820152601160248201527f62656c6f77206d696e20616d6f756e74730000000000000000000000000000006044820152606401610571565b6000846000015160a001516001600160a01b0316630dfe16816040518163ffffffff1660e01b8152600401602060405180830381865afa1580156115f3573d6000803e3d6000fd5b505050506040513d601f19601f820116820180604052508101906116179190614a5c565b90506000856000015160a001516001600160a01b031663d21220a76040518163ffffffff1660e01b8152600401602060405180830381865afa158015611661573d6000803e3d6000fd5b505050506040513d601f19601f820116820180604052508101906116859190614a5c565b905060006116968787878686612ca9565b865160a081015160e082015160c0909201516116b9928991899189918989612fba565b3415611708578080156116cb57508534115b156116e9576116e46116dd8734614b77565b339061353e565b611708565b801580156116f657508434115b15611708576117086116dd8634614b77565b5050506117156001609755565b9193909250565b600054610100900460ff161580801561173c5750600054600160ff909116105b806117565750303b158015611756575060005460ff166001145b6117c85760405162461bcd60e51b815260206004820152602e60248201527f496e697469616c697a61626c653a20636f6e747261637420697320616c72656160448201527f647920696e697469616c697a65640000000000000000000000000000000000006064820152608401610571565b6000805460ff1916600117905580156117eb576000805461ff0019166101001790555b6001600160a01b0382166118255760405162461bcd60e51b81526020600482015260016024820152602d60f91b6044820152606401610571565b61182d613657565b6118356136ca565b61183e82612a0f565b8015611880576000805461ff0019169055604051600181527f7f26b83ff96e1f2b6a682f133852f6798a09c465da95921460cefb384740249890602001610666565b5050565b60008061188f611fea565b61189761203d565b82516118e55760405162461bcd60e51b815260206004820152600f60248201527f6e6f7468696e6720746f206275726e00000000000000000000000000000000006044820152606401610571565b60a08301516001600160a01b031615611a9f578260a001516001600160a01b0316632dc7d74c6040518163ffffffff1660e01b8152600401602060405180830381865afa15801561193a573d6000803e3d6000fd5b505050506040513d601f19601f8201168201806040525081019061195e9190614a5c565b6001600160a01b031683606001516001600160a01b0316146119b55760405162461bcd60e51b815260206004820152601060248201526f496e636f72726563742067617567652160801b6044820152606401610571565b60a0830151604051634274debf60e11b81523360048201526001600160a01b03909116906384e9bd7e90602401600060405180830381600087803b1580156119fc57600080fd5b505af1158015611a10573d6000803e3d6000fd5b5050845160a0860151611a3293506001600160a01b0316915033903090612bf2565b60a08301518351604051632e1a7d4d60e01b81526001600160a01b0390921691632e1a7d4d91611a689160040190815260200190565b600060405180830381600087803b158015611a8257600080fd5b505af1158015611a96573d6000803e3d6000fd5b50505050611abf565b82516060840151611abf916001600160a01b039091169033903090612bf2565b611ac883612096565b90925090506109c26001609755565b611adf611f74565b6001600160a01b038116611b5b5760405162461bcd60e51b815260206004820152602660248201527f4f776e61626c653a206e6577206f776e657220697320746865207a65726f206160448201527f64647265737300000000000000000000000000000000000000000000000000006064820152608401610571565b611b6481612a0f565b50565b6000806000611b74611fea565b611b7c61203d565b8351151580611b8f575060008460200151115b611bcf5760405162461bcd60e51b8152602060048201526011602482015270456d707479206d617820616d6f756e747360781b6044820152606401610571565b60e08401516001600160a01b031615611c9f578360e001516001600160a01b0316632dc7d74c6040518163ffffffff1660e01b8152600401602060405180830381865afa158015611c24573d6000803e3d6000fd5b505050506040513d601f19601f82011682018060405250810190611c489190614a5c565b6001600160a01b03168460a001516001600160a01b031614611c9f5760405162461bcd60e51b815260206004820152601060248201526f496e636f72726563742067617567652160801b6044820152606401610571565b60a08401518451602086015160405163fa111ce760e01b81526001600160a01b039384166004820152602481019290925260448201527f00000000000000000000000000000000000000000000000000000000000000009091169063fa111ce790606401606060405180830381865afa158015611d20573d6000803e3d6000fd5b505050506040513d601f19601f82011682018060405250810190611d449190614b49565b9194509250905080611d985760405162461bcd60e51b815260206004820152600f60248201527f6e6f7468696e6720746f206d696e7400000000000000000000000000000000006044820152606401610571565b83604001518310158015611db0575083606001518210155b8015611dc0575083608001518110155b611e0c5760405162461bcd60e51b815260206004820152601160248201527f62656c6f77206d696e20616d6f756e74730000000000000000000000000000006044820152606401610571565b60008460a001516001600160a01b0316630dfe16816040518163ffffffff1660e01b8152600401602060405180830381865afa158015611e50573d6000803e3d6000fd5b505050506040513d601f19601f82011682018060405250810190611e749190614a5c565b905060008560a001516001600160a01b031663d21220a76040518163ffffffff1660e01b8152600401602060405180830381865afa158015611eba573d6000803e3d6000fd5b505050506040513d601f19601f82011682018060405250810190611ede9190614a5c565b905060003415611ef957611ef6868660008686612aab565b90505b600086118015611f0f5750341580611f0f575080155b15611f2957611f296001600160a01b038416333089612bf2565b600085118015611f3e5750341580611f3e5750805b15611f5857611f586001600160a01b038316333088612bf2565b6116b98760a001518787878b60e001518c60c001518989612fba565b6033546001600160a01b03163314610b5a5760405162461bcd60e51b815260206004820181905260248201527f4f776e61626c653a2063616c6c6572206973206e6f7420746865206f776e65726044820152606401610571565b6000611fe3836001600160a01b03841661373d565b9392505050565b60655460ff1615610b5a5760405162461bcd60e51b815260206004820152601060248201527f5061757361626c653a20706175736564000000000000000000000000000000006044820152606401610571565b60026097540361208f5760405162461bcd60e51b815260206004820152601f60248201527f5265656e7472616e637947756172643a207265656e7472616e742063616c6c006044820152606401610571565b6002609755565b6000808260c00151156121265760608301518351604051633f34d4cf60e21b815260048101919091523060248201526001600160a01b039091169063fcd3533c9060440160408051808303816000875af11580156120f8573d6000803e3d6000fd5b505050506040513d601f19601f8201168201806040525081019061211c9190614b8e565b90925090506121ac565b606083015183516080850151604051633f34d4cf60e21b815260048101929092526001600160a01b0390811660248301529091169063fcd3533c9060440160408051808303816000875af1158015612182573d6000803e3d6000fd5b505050506040513d601f19601f820116820180604052508101906121a69190614b8e565b90925090505b826020015182101580156121c4575082604001518110155b6122105760405162461bcd60e51b815260206004820152601660248201527f72656365697665642062656c6f77206d696e696d756d000000000000000000006044820152606401610571565b8260c00151156109c2576109c2836060015183838660800151613830565b6001609755565b60606000611fe383613a7a565b6000611fe3836001600160a01b038416613ad6565b61225f613b25565b6065805460ff191690557f5db9ee0a495bf2e6ff9c91a7834c1ba4fdd244a5e8aa4e537bd38aeae4b073aa335b6040516001600160a01b03909116815260200160405180910390a1565b341561244157602083015151516001146122f75760405162461bcd60e51b815260206004820152600f60248201526e0d8cadccee8d040dad2e6dac2e8c6d608b1b6044820152606401610571565b825160209081015180519101516000916123149160018686612aab565b90506000816123295784516020015151612334565b845160209081015101515b9050801561243a5760006040518060400160405280306001600160a01b0316815260200183815250905060006040518060600160405280886020015160000151600081518110612386576123866149f5565b60200260200101518152602001886020015160200151815260200188602001516040015181525090507f00000000000000000000000000000000000000000000000000000000000000006001600160a01b03166330f28b7a8284338b604001516040518563ffffffff1660e01b81526004016124059493929190614ad1565b600060405180830381600087803b15801561241f57600080fd5b505af1158015612433573d6000803e3d6000fd5b5050505050505b5050505050565b602083015151516002146124895760405162461bcd60e51b815260206004820152600f60248201526e0d8cadccee8d040dad2e6dac2e8c6d608b1b6044820152606401610571565b60408051600280825260608201909252600091816020015b60408051808201909152600080825260208201528152602001906001900390816124a1575050604080518082019091523081528551602090810151519082015281519192509082906000906124f8576124f86149f5565b60200260200101819052506040518060400160405280306001600160a01b031681526020018560000151602001516020015181525081600181518110612540576125406149f5565b60200260200101819052507f00000000000000000000000000000000000000000000000000000000000000006001600160a01b031663edd9444b8560200151833388604001516040518563ffffffff1660e01b81526004016125a59493929190614bff565b600060405180830381600087803b1580156125bf57600080fd5b505af11580156125d3573d6000803e3d6000fd5b50505050505b505050565b60008060008060008760000151608001511561261a5760cb54885160200151612615916001600160a01b038a811692911690613b77565b61263b565b60cb5488516020015161263b916001600160a01b0389811692911690613b77565b60cb546040517f733eee540000000000000000000000000000000000000000000000000000000081526001600160a01b039091169063733eee5490612684908b90600401614cb5565b60408051808303816000875af11580156126a2573d6000803e3d6000fd5b505050506040513d601f19601f820116820180604052508101906126c69190614b8e565b8951608080820151604092830151835191151582526020820186905292810184905260608101929092529294509092507f119b826bd7674fc7a81f6d3ca9ab22e807915d4befc1e7a7122535474845a9aa910160405180910390a18751608001516000906127445760208901515161273f908490614d81565b612755565b602089015151612755908490614b77565b9050600089600001516080015161277f57828a602001516020015161277a9190614b77565b612793565b828a60200151602001516127939190614d81565b60208b015160a0015160405163fa111ce760e01b81526001600160a01b03918216600482015260248101859052604481018390529192507f0000000000000000000000000000000000000000000000000000000000000000169063fa111ce790606401606060405180830381865afa158015612813573d6000803e3d6000fd5b505050506040513d601f19601f820116820180604052508101906128379190614b49565b919850965094508461288b5760405162461bcd60e51b815260206004820152600f60248201527f6e6f7468696e6720746f206d696e7400000000000000000000000000000000006044820152606401610571565b89602001516040015187101580156128ab57508960200151606001518610155b80156128bf57508960200151608001518510155b61290b5760405162461bcd60e51b815260206004820152601160248201527f62656c6f77206d696e20616d6f756e74730000000000000000000000000000006044820152606401610571565b6129338a6020015160a001518888888e6020015160e001518f6020015160c001518f8f612fba565b60003415612990576129458a8a613bc0565b905080801561295357508783115b156129705761296b336129668a86614b77565b613c8c565b612990565b8015801561297d57508682115b1561299057612990336129668985614b77565b87831180156129a557503415806129a5575080155b156129c9576129c9336129b88a86614b77565b6001600160a01b038d169190613b77565b86821180156129dd57503415806129dd5750805b15612a0157612a01336129f08985614b77565b6001600160a01b038c169190613b77565b505050939792965093509350565b603380546001600160a01b0383811673ffffffffffffffffffffffffffffffffffffffff19831681179093556040519116919082907f8be0079c531659141344cd1fd0a4f28419497f9722a3daafe3b4186f6b6457e090600090a35050565b612a76611fea565b6065805460ff191660011790557f62e78cea01bee320cd4e420270b5ea74000d11b0c9f74754ebdbfc544b05a25861228c3390565b6000612ab78383613bc0565b9050600081612ac65785612ac8565b865b90508415612b2457348114612b1f5760405162461bcd60e51b815260206004820152601f60248201527f496e76616c696420616d6f756e74206f662045544820666f72776172646564006044820152606401610571565b612b74565b34811115612b745760405162461bcd60e51b815260206004820152601860248201527f4e6f7420656e6f7567682045544820666f7277617264656400000000000000006044820152606401610571565b7f00000000000000000000000000000000000000000000000000000000000000006001600160a01b031663d0e30db0826040518263ffffffff1660e01b81526004016000604051808303818588803b158015612bcf57600080fd5b505af1158015612be3573d6000803e3d6000fd5b50505050505095945050505050565b6040516001600160a01b0380851660248301528316604482015260648101829052612ca39085907f23b872dd00000000000000000000000000000000000000000000000000000000906084015b60408051601f198184030181529190526020810180517bffffffffffffffffffffffffffffffffffffffffffffffffffffffff167fffffffff0000000000000000000000000000000000000000000000000000000090931692909217909152613d1a565b50505050565b3415612e255760208501515151600114612cf75760405162461bcd60e51b815260206004820152600f60248201526e0d8cadccee8d040dad2e6dac2e8c6d608b1b6044820152606401610571565b6000612d07858560008686612aab565b9050600081612d165785612d18565b845b90508015612e1e5760006040518060400160405280306001600160a01b03168152602001838152509050600060405180606001604052808a6020015160000151600081518110612d6a57612d6a6149f5565b602002602001015181526020018a602001516020015181526020018a602001516040015181525090507f00000000000000000000000000000000000000000000000000000000000000006001600160a01b03166330f28b7a8284338d604001516040518563ffffffff1660e01b8152600401612de99493929190614ad1565b600060405180830381600087803b158015612e0357600080fd5b505af1158015612e17573d6000803e3d6000fd5b5050505050505b505061243a565b60208501515151600214612e6d5760405162461bcd60e51b815260206004820152600f60248201526e0d8cadccee8d040dad2e6dac2e8c6d608b1b6044820152606401610571565b60408051600280825260608201909252600091816020015b6040805180820190915260008082526020820152815260200190600190039081612e855790505090506040518060400160405280306001600160a01b031681526020018681525081600081518110612edf57612edf6149f5565b60200260200101819052506040518060400160405280306001600160a01b031681526020018581525081600181518110612f1b57612f1b6149f5565b60200260200101819052507f00000000000000000000000000000000000000000000000000000000000000006001600160a01b031663edd9444b876020015183338a604001516040518563ffffffff1660e01b8152600401612f809493929190614bff565b600060405180830381600087803b158015612f9a57600080fd5b505af1158015612fae573d6000803e3d6000fd5b50505050505050505050565b612fce6001600160a01b0383168989613dff565b612fe26001600160a01b0382168988613dff565b6001600160a01b038816600090815260ca60209081526040918290208251808401909352805480845260019091015460ff16151591830191909152156130e2578060000151868a6001600160a01b03166318160ddd6040518163ffffffff1660e01b8152600401602060405180830381865afa158015613066573d6000803e3d6000fd5b505050506040513d601f19601f8201168201806040525081019061308a9190614d99565b6130949190614d81565b11156130e25760405162461bcd60e51b815260206004820152601060248201527f61626f766520737570706c7920636170000000000000000000000000000000006044820152606401610571565b80602001511561315a576001600160a01b038916600090815260c96020526040902061310e9033613ee3565b61315a5760405162461bcd60e51b815260206004820152600f60248201527f6e6f742077686974656c697374656400000000000000000000000000000000006044820152606401610571565b506040516370a0823160e01b81523060048201526000906001600160a01b038416906370a0823190602401602060405180830381865afa1580156131a2573d6000803e3d6000fd5b505050506040513d601f19601f820116820180604052508101906131c69190614d99565b6040516370a0823160e01b81523060048201529091506000906001600160a01b038416906370a0823190602401602060405180830381865afa158015613210573d6000803e3d6000fd5b505050506040513d601f19601f820116820180604052508101906132349190614d99565b90506001600160a01b0386166132bd576040516394bf804d60e01b8152600481018890526001600160a01b0386811660248301528b16906394bf804d9060440160408051808303816000875af1158015613292573d6000803e3d6000fd5b505050506040513d601f19601f820116820180604052508101906132b69190614b8e565b50506133c0565b6040516394bf804d60e01b8152600481018890523060248201526001600160a01b038b16906394bf804d9060440160408051808303816000875af1158015613309573d6000803e3d6000fd5b505050506040513d601f19601f8201168201806040525081019061332d9190614b8e565b5061334490506001600160a01b038b168789613dff565b6040517f6e553f65000000000000000000000000000000000000000000000000000000008152600481018890526001600160a01b038681166024830152871690636e553f6590604401600060405180830381600087803b1580156133a757600080fd5b505af11580156133bb573d6000803e3d6000fd5b505050505b6040516370a0823160e01b81523060048201526001600160a01b038516906370a0823190602401602060405180830381865afa158015613404573d6000803e3d6000fd5b505050506040513d601f19601f820116820180604052508101906134289190614d99565b6134328a84614b77565b1461347f5760405162461bcd60e51b815260206004820152600860248201527f6465706f736974300000000000000000000000000000000000000000000000006044820152606401610571565b6040516370a0823160e01b81523060048201526001600160a01b038416906370a0823190602401602060405180830381865afa1580156134c3573d6000803e3d6000fd5b505050506040513d601f19601f820116820180604052508101906134e79190614d99565b6134f18983614b77565b14612fae5760405162461bcd60e51b815260206004820152600860248201527f6465706f736974310000000000000000000000000000000000000000000000006044820152606401610571565b8047101561358e5760405162461bcd60e51b815260206004820152601d60248201527f416464726573733a20696e73756666696369656e742062616c616e63650000006044820152606401610571565b6000826001600160a01b03168260405160006040518083038185875af1925050503d80600081146135db576040519150601f19603f3d011682016040523d82523d6000602084013e6135e0565b606091505b50509050806125d95760405162461bcd60e51b815260206004820152603a60248201527f416464726573733a20756e61626c6520746f2073656e642076616c75652c207260448201527f6563697069656e74206d617920686176652072657665727465640000000000006064820152608401610571565b600054610100900460ff166136c25760405162461bcd60e51b815260206004820152602b60248201527f496e697469616c697a61626c653a20636f6e7472616374206973206e6f74206960448201526a6e697469616c697a696e6760a81b6064820152608401610571565b610b5a613f05565b600054610100900460ff166137355760405162461bcd60e51b815260206004820152602b60248201527f496e697469616c697a61626c653a20636f6e7472616374206973206e6f74206960448201526a6e697469616c697a696e6760a81b6064820152608401610571565b610b5a613f7c565b60008181526001830160205260408120548015613826576000613761600183614b77565b855490915060009061377590600190614b77565b90508181146137da576000866000018281548110613795576137956149f5565b90600052602060002001549050808760000184815481106137b8576137b86149f5565b6000918252602080832090910192909255918252600188019052604090208390555b85548690806137eb576137eb614db2565b6001900381819060005260206000200160009055905585600101600086815260200190815260200160002060009055600193505050506109eb565b60009150506109eb565b6000846001600160a01b0316630dfe16816040518163ffffffff1660e01b8152600401602060405180830381865afa158015613870573d6000803e3d6000fd5b505050506040513d601f19601f820116820180604052508101906138949190614a5c565b90506000856001600160a01b031663d21220a76040518163ffffffff1660e01b8152600401602060405180830381865afa1580156138d6573d6000803e3d6000fd5b505050506040513d601f19601f820116820180604052508101906138fa9190614a5c565b905060006139088383613bc0565b905080156139c35785156139a457604051632e1a7d4d60e01b8152600481018790527f00000000000000000000000000000000000000000000000000000000000000006001600160a01b031690632e1a7d4d90602401600060405180830381600087803b15801561397857600080fd5b505af115801561398c573d6000803e3d6000fd5b506139a4925050506001600160a01b0385168761353e565b84156139be576139be6001600160a01b0383168587613b77565b613a71565b8415613a5757604051632e1a7d4d60e01b8152600481018690527f00000000000000000000000000000000000000000000000000000000000000006001600160a01b031690632e1a7d4d90602401600060405180830381600087803b158015613a2b57600080fd5b505af1158015613a3f573d6000803e3d6000fd5b50613a57925050506001600160a01b0385168661353e565b8515613a7157613a716001600160a01b0384168588613b77565b50505050505050565b606081600001805480602002602001604051908101604052809291908181526020018280548015613aca57602002820191906000526020600020905b815481526020019060010190808311613ab6575b50505050509050919050565b6000818152600183016020526040812054613b1d575081546001818101845560008481526020808220909301849055845484825282860190935260409020919091556109eb565b5060006109eb565b60655460ff16610b5a5760405162461bcd60e51b815260206004820152601460248201527f5061757361626c653a206e6f74207061757365640000000000000000000000006044820152606401610571565b6040516001600160a01b0383166024820152604481018290526125d99084907fa9059cbb0000000000000000000000000000000000000000000000000000000090606401612c3f565b60007f00000000000000000000000000000000000000000000000000000000000000006001600160a01b0316836001600160a01b031603613c03575060016109eb565b7f00000000000000000000000000000000000000000000000000000000000000006001600160a01b0316826001600160a01b031603613c44575060006109eb565b60405162461bcd60e51b815260206004820152601c60248201527f6f6e65207661756c7420746f6b656e206d7573742062652057455448000000006044820152606401610571565b604051632e1a7d4d60e01b8152600481018290527f00000000000000000000000000000000000000000000000000000000000000006001600160a01b031690632e1a7d4d90602401600060405180830381600087803b158015613cee57600080fd5b505af1158015613d02573d6000803e3d6000fd5b50611880925050506001600160a01b0383168261353e565b6000613d6f826040518060400160405280602081526020017f5361666545524332303a206c6f772d6c6576656c2063616c6c206661696c6564815250856001600160a01b0316613fe79092919063ffffffff16565b8051909150156125d95780806020019051810190613d8d9190614dc8565b6125d95760405162461bcd60e51b815260206004820152602a60248201527f5361666545524332303a204552433230206f7065726174696f6e20646964206e60448201527f6f742073756363656564000000000000000000000000000000000000000000006064820152608401610571565b6040517fdd62ed3e0000000000000000000000000000000000000000000000000000000081523060048201526001600160a01b038381166024830152600091839186169063dd62ed3e90604401602060405180830381865afa158015613e69573d6000803e3d6000fd5b505050506040513d601f19601f82011682018060405250810190613e8d9190614d99565b613e979190614d81565b6040516001600160a01b038516602482015260448101829052909150612ca39085907f095ea7b30000000000000000000000000000000000000000000000000000000090606401612c3f565b6001600160a01b03811660009081526001830160205260408120541515611fe3565b600054610100900460ff16613f705760405162461bcd60e51b815260206004820152602b60248201527f496e697469616c697a61626c653a20636f6e7472616374206973206e6f74206960448201526a6e697469616c697a696e6760a81b6064820152608401610571565b6065805460ff19169055565b600054610100900460ff1661222e5760405162461bcd60e51b815260206004820152602b60248201527f496e697469616c697a61626c653a20636f6e7472616374206973206e6f74206960448201526a6e697469616c697a696e6760a81b6064820152608401610571565b6060613ff68484600085613ffe565b949350505050565b6060824710156140765760405162461bcd60e51b815260206004820152602660248201527f416464726573733a20696e73756666696369656e742062616c616e636520666f60448201527f722063616c6c00000000000000000000000000000000000000000000000000006064820152608401610571565b6001600160a01b0385163b6140cd5760405162461bcd60e51b815260206004820152601d60248201527f416464726573733a2063616c6c20746f206e6f6e2d636f6e74726163740000006044820152606401610571565b600080866001600160a01b031685876040516140e99190614de5565b60006040518083038185875af1925050503d8060008114614126576040519150601f19603f3d011682016040523d82523d6000602084013e61412b565b606091505b509150915061413b828286614146565b979650505050505050565b60608315614155575081611fe3565b8251156141655782518084602001fd5b8160405162461bcd60e51b81526004016105719190614e01565b6001600160a01b0381168114611b6457600080fd5b803561419f8161417f565b919050565b634e487b7160e01b600052604160045260246000fd5b6040805190810167ffffffffffffffff811182821017156141dd576141dd6141a4565b60405290565b6040516060810167ffffffffffffffff811182821017156141dd576141dd6141a4565b60405160a0810167ffffffffffffffff811182821017156141dd576141dd6141a4565b604051601f8201601f1916810167ffffffffffffffff81118282101715614252576142526141a4565b604052919050565b600067ffffffffffffffff821115614274576142746141a4565b5060051b60200190565b6000806040838503121561429157600080fd5b823561429c8161417f565b915060208381013567ffffffffffffffff8111156142b957600080fd5b8401601f810186136142ca57600080fd5b80356142dd6142d88261425a565b614229565b81815260059190911b820183019083810190888311156142fc57600080fd5b928401925b828410156143235783356143148161417f565b82529284019290840190614301565b80955050505050509250929050565b8015158114611b6457600080fd5b600060e0828403121561435257600080fd5b60405160e0810181811067ffffffffffffffff82111715614375576143756141a4565b806040525080915082358152602083013560208201526040830135604082015260608301356143a38161417f565b606082015260808301356143b68161417f565b608082015260a08301356143c98161417f565b60a082015260c08301356143dc81614332565b60c0919091015292915050565b6000604082840312156143fb57600080fd5b6144036141ba565b905081356144108161417f565b808252506020820135602082015292915050565b600082601f83011261443557600080fd5b813567ffffffffffffffff81111561444f5761444f6141a4565b614462601f8201601f1916602001614229565b81815284602083860101111561447757600080fd5b816020850160208301376000918101602001919091529392505050565b6000602082840312156144a657600080fd5b813567ffffffffffffffff808211156144be57600080fd5b908301908185036101808112156144d457600080fd5b6144dc6141e3565b6144e68785614340565b8152608060df19830112156144fa57600080fd5b6145026141e3565b91506145118760e086016143e9565b82526101208401356020830152610140840135604083015281602082015261016084013591508282111561454457600080fd5b61455087838601614424565b60408201529695505050505050565b60006020828403121561457157600080fd5b8135611fe38161417f565b600081518084526020808501945080840160005b838110156145b55781516001600160a01b031687529582019590820190600101614590565b509495945050505050565b602081526000611fe3602083018461457c565b6000806000606084860312156145e857600080fd5b83356145f38161417f565b925060208401359150604084013561460a81614332565b809150509250925092565b600061010080838503121561462957600080fd5b6040519081019067ffffffffffffffff8211818310171561464c5761464c6141a4565b81604052809250833581526020840135602082015260408401356040820152606084013560608201526080840135608082015260a0840135915061468f8261417f565b8160a08201526146a160c08501614194565b60c08201526146b260e08501614194565b60e0820152505092915050565b600061012082840312156146d257600080fd5b6146da6141ba565b9050813567ffffffffffffffff808211156146f457600080fd5b9083019060a0828603121561470857600080fd5b614710614206565b82358281111561471f57600080fd5b61472b87828601614424565b8252506020830135602082015260408301356040820152606083013591506147528261417f565b8160608201526080830135925061476883614332565b60808101929092525081526147808360208401614615565b602082015292915050565b60006060828403121561479d57600080fd5b6147a56141e3565b9050813567ffffffffffffffff8111156147be57600080fd5b8201601f810184136147cf57600080fd5b803560206147df6142d88361425a565b82815260069290921b830181019181810190878411156147fe57600080fd5b938201935b838510156148275761481588866143e9565b82528282019150604085019450614803565b808652505080850135818501525050506040820135604082015292915050565b60006020828403121561485957600080fd5b813567ffffffffffffffff8082111561487157600080fd5b908301906060828603121561488557600080fd5b61488d6141e3565b82358281111561489c57600080fd5b6148a8878286016146bf565b8252506020830135828111156148bd57600080fd5b6148c98782860161478b565b6020830152506040830135828111156148e157600080fd5b6148ed87828601614424565b60408301525095945050505050565b60006020828403121561490e57600080fd5b813567ffffffffffffffff81111561492557600080fd5b613ff6848285016146bf565b60006020828403121561494357600080fd5b813567ffffffffffffffff8082111561495b57600080fd5b90830190610140828603121561497057600080fd5b6149786141e3565b6149828684614615565b81526101008301358281111561499757600080fd5b6149a38782860161478b565b602083015250610120830135828111156148e157600080fd5b600060e082840312156149ce57600080fd5b611fe38383614340565b600061010082840312156149eb57600080fd5b611fe38383614615565b634e487b7160e01b600052603260045260246000fd5b634e487b7160e01b600052601160045260246000fd5b600060018201614a3357614a33614a0b565b5060010190565b6001600160a01b0383168152604060208201526000613ff6604083018461457c565b600060208284031215614a6e57600080fd5b8151611fe38161417f565b60005b83811015614a94578181015183820152602001614a7c565b83811115612ca35750506000910152565b60008151808452614abd816020860160208601614a79565b601f01601f19169290920160200192915050565b6000610100614af483885180516001600160a01b03168252602090810151910152565b6020870151604084015260408701516060840152614b28608084018780516001600160a01b03168252602090810151910152565b6001600160a01b03851660c08401528060e084015261413b81840185614aa5565b600080600060608486031215614b5e57600080fd5b8351925060208401519150604084015190509250925092565b600082821015614b8957614b89614a0b565b500390565b60008060408385031215614ba157600080fd5b505080516020909101519092909150565b600081518084526020808501945080840160005b838110156145b557614bec87835180516001600160a01b03168252602090810151910152565b6040969096019590820190600101614bc6565b60808152600060e082018651606060808501528181518084526101008601915060209350838301925060005b81811015614c6457614c5183855180516001600160a01b03168252602090810151910152565b9284019260409290920191600101614c2b565b50508289015160a0860152604089015160c086015284810383860152614c8a8189614bb2565b92505050614ca360408401866001600160a01b03169052565b828103606084015261413b8185614aa5565b6020815260008251610120806020850152815160a0610140860152614cde6101e0860182614aa5565b90506020830151610160860152604083015161018086015260608301516001600160a01b038082166101a0880152608085015115156101c088015260208801519450845160408801526020850151606088015260408501516080880152606085015160a0880152608085015160c08801528060a08601511660e08801528060c0860151166101008801528060e08601511684880152505080935050505092915050565b60008219821115614d9457614d94614a0b565b500190565b600060208284031215614dab57600080fd5b5051919050565b634e487b7160e01b600052603160045260246000fd5b600060208284031215614dda57600080fd5b8151611fe381614332565b60008251614df7818460208701614a79565b9190910192915050565b602081526000611fe36020830184614aa556fea264697066735822122070f33e3abc25995ac2d85424ddbb5cf2eab8d5d2c2a7fa47bb220f4ebe0a742264736f6c634300080d0033",
  "devdoc": {
    "author": "Arrakis Finance",
    "details": "DO NOT ADD STATE VARIABLES - APPEND THEM TO ArrakisV2RouterStorage",
    "kind": "dev",
    "methods": {
      "addLiquidity((uint256,uint256,uint256,uint256,uint256,address,address,address))": {
        "params": {
          "params_": "AddLiquidityData struct containing data for adding liquidity"
        },
        "returns": {
          "amount0": "amount of token0 transferred from msg.sender to mint `mintAmount`",
          "amount1": "amount of token1 transferred from msg.sender to mint `mintAmount`",
          "sharesReceived": "amount of ArrakisV2 tokens transferred to `receiver`"
        }
      },
      "addLiquidityPermit2(((uint256,uint256,uint256,uint256,uint256,address,address,address),((address,uint256)[],uint256,uint256),bytes))": {
        "params": {
          "params_": "AddLiquidityPermit2Data struct containing data for adding liquidity"
        },
        "returns": {
          "amount0": "amount of token0 transferred from msg.sender to mint `mintAmount`",
          "amount1": "amount of token1 transferred from msg.sender to mint `mintAmount`",
          "sharesReceived": "amount of ArrakisV2 tokens transferred to `receiver`"
        }
      },
      "owner()": {
        "details": "Returns the address of the current owner."
      },
      "paused()": {
        "details": "Returns true if the contract is paused, and false otherwise."
      },
      "removeLiquidity((uint256,uint256,uint256,address,address,address,bool))": {
        "params": {
          "params_": "RemoveLiquidityData struct containing data for withdrawals"
        },
        "returns": {
          "amount0": "actual amount of token0 transferred to receiver for burning `burnAmount`",
          "amount1": "actual amount of token1 transferred to receiver for burning `burnAmount`"
        }
      },
      "removeLiquidityPermit2(((uint256,uint256,uint256,address,address,address,bool),((address,uint256),uint256,uint256),bytes))": {
        "params": {
          "params_": "RemoveLiquidityPermit2Data struct containing data for withdrawals"
        },
        "returns": {
          "amount0": "actual amount of token0 transferred to receiver for burning `burnAmount`",
          "amount1": "actual amount of token1 transferred to receiver for burning `burnAmount`"
        }
      },
      "renounceOwnership()": {
        "details": "Leaves the contract without owner. It will not be possible to call `onlyOwner` functions anymore. Can only be called by the current owner. NOTE: Renouncing ownership will leave the contract without an owner, thereby removing any functionality that is only available to the owner."
      },
      "swapAndAddLiquidity(((bytes,uint256,uint256,address,bool),(uint256,uint256,uint256,uint256,uint256,address,address,address)))": {
        "params": {
          "params_": "SwapAndAddData struct containing data for swap"
        },
        "returns": {
          "amount0": "amount of token0 transferred from msg.sender to mint `mintAmount`",
          "amount0Diff": "token0 balance difference post swap",
          "amount1": "amount of token1 transferred from msg.sender to mint `mintAmount`",
          "amount1Diff": "token1 balance difference post swap",
          "sharesReceived": "amount of ArrakisV2 tokens transferred to `receiver`"
        }
      },
      "swapAndAddLiquidityPermit2((((bytes,uint256,uint256,address,bool),(uint256,uint256,uint256,uint256,uint256,address,address,address)),((address,uint256)[],uint256,uint256),bytes))": {
        "params": {
          "params_": "SwapAndAddPermit2Data struct containing data for swap"
        },
        "returns": {
          "amount0": "amount of token0 transferred from msg.sender to mint `mintAmount`",
          "amount0Diff": "token0 balance difference post swap",
          "amount1": "amount of token1 transferred from msg.sender to mint `mintAmount`",
          "amount1Diff": "token1 balance difference post swap",
          "sharesReceived": "amount of ArrakisV2 tokens transferred to `receiver`"
        }
      },
      "transferOwnership(address)": {
        "details": "Transfers ownership of the contract to a new account (`newOwner`). Can only be called by the current owner."
      },
      "updateSwapExecutor(address)": {
        "params": {
          "swapper_": "the RouterSwapExecutor address"
        }
      }
    },
    "title": "ArrakisV2 Public Vault Router",
    "version": 1
  },
  "userdoc": {
    "kind": "user",
    "methods": {
      "addLiquidity((uint256,uint256,uint256,uint256,uint256,address,address,address))": {
        "notice": "addLiquidity adds liquidity to ArrakisV2 vault of interest (mints LP tokens)"
      },
      "addLiquidityPermit2(((uint256,uint256,uint256,uint256,uint256,address,address,address),((address,uint256)[],uint256,uint256),bytes))": {
        "notice": "addLiquidityPermit2 adds liquidity to ArrakisV2 vault of interest (mints LP tokens)"
      },
      "removeLiquidity((uint256,uint256,uint256,address,address,address,bool))": {
        "notice": "removeLiquidity removes liquidity from vault and burns LP tokens"
      },
      "removeLiquidityPermit2(((uint256,uint256,uint256,address,address,address,bool),((address,uint256),uint256,uint256),bytes))": {
        "notice": "removeLiquidityPermit2 removes liquidity from vault and burns LP tokens"
      },
      "swapAndAddLiquidity(((bytes,uint256,uint256,address,bool),(uint256,uint256,uint256,uint256,uint256,address,address,address)))": {
        "notice": "swapAndAddLiquidity transfer tokens to and calls ArrakisV2Router"
      },
      "swapAndAddLiquidityPermit2((((bytes,uint256,uint256,address,bool),(uint256,uint256,uint256,uint256,uint256,address,address,address)),((address,uint256)[],uint256,uint256),bytes))": {
        "notice": "swapAndAddLiquidityPermit2 transfer tokens to and calls ArrakisV2Router"
      },
      "updateSwapExecutor(address)": {
        "notice": "updates address of ArrakisV2SwaprExecutor used by this contract"
      }
    },
    "notice": "Smart contract for adding and removing liquidity from Public ArrakisV2 vaults",
    "version": 1
  },
  "storageLayout": {
    "storage": [
      {
        "astId": 7891,
        "contract": "contracts/ArrakisV2Router.sol:ArrakisV2Router",
        "label": "_initialized",
        "offset": 0,
        "slot": "0",
        "type": "t_uint8"
      },
      {
        "astId": 7894,
        "contract": "contracts/ArrakisV2Router.sol:ArrakisV2Router",
        "label": "_initializing",
        "offset": 1,
        "slot": "0",
        "type": "t_bool"
      },
      {
        "astId": 9293,
        "contract": "contracts/ArrakisV2Router.sol:ArrakisV2Router",
        "label": "__gap",
        "offset": 0,
        "slot": "1",
        "type": "t_array(t_uint256)50_storage"
      },
      {
        "astId": 7763,
        "contract": "contracts/ArrakisV2Router.sol:ArrakisV2Router",
        "label": "_owner",
        "offset": 0,
        "slot": "51",
        "type": "t_address"
      },
      {
        "astId": 7883,
        "contract": "contracts/ArrakisV2Router.sol:ArrakisV2Router",
        "label": "__gap",
        "offset": 0,
        "slot": "52",
        "type": "t_array(t_uint256)49_storage"
      },
      {
        "astId": 8074,
        "contract": "contracts/ArrakisV2Router.sol:ArrakisV2Router",
        "label": "_paused",
        "offset": 0,
        "slot": "101",
        "type": "t_bool"
      },
      {
        "astId": 8179,
        "contract": "contracts/ArrakisV2Router.sol:ArrakisV2Router",
        "label": "__gap",
        "offset": 0,
        "slot": "102",
        "type": "t_array(t_uint256)49_storage"
      },
      {
        "astId": 8194,
        "contract": "contracts/ArrakisV2Router.sol:ArrakisV2Router",
        "label": "_status",
        "offset": 0,
        "slot": "151",
        "type": "t_uint256"
      },
      {
        "astId": 8252,
        "contract": "contracts/ArrakisV2Router.sol:ArrakisV2Router",
        "label": "__gap",
        "offset": 0,
        "slot": "152",
        "type": "t_array(t_uint256)49_storage"
      },
      {
        "astId": 17420,
        "contract": "contracts/ArrakisV2Router.sol:ArrakisV2Router",
        "label": "_mintWhitelist",
        "offset": 0,
        "slot": "201",
        "type": "t_mapping(t_address,t_struct(AddressSet)12158_storage)"
      },
      {
        "astId": 17425,
        "contract": "contracts/ArrakisV2Router.sol:ArrakisV2Router",
        "label": "mintRestrictedVaults",
        "offset": 0,
        "slot": "202",
        "type": "t_mapping(t_address,t_struct(MintRules)18635_storage)"
      },
      {
        "astId": 17428,
        "contract": "contracts/ArrakisV2Router.sol:ArrakisV2Router",
        "label": "swapper",
        "offset": 0,
        "slot": "203",
        "type": "t_contract(IRouterSwapExecutor)18265"
      }
    ],
    "types": {
      "t_address": {
        "encoding": "inplace",
        "label": "address",
        "numberOfBytes": "20"
      },
      "t_array(t_bytes32)dyn_storage": {
        "base": "t_bytes32",
        "encoding": "dynamic_array",
        "label": "bytes32[]",
        "numberOfBytes": "32"
      },
      "t_array(t_uint256)49_storage": {
        "base": "t_uint256",
        "encoding": "inplace",
        "label": "uint256[49]",
        "numberOfBytes": "1568"
      },
      "t_array(t_uint256)50_storage": {
        "base": "t_uint256",
        "encoding": "inplace",
        "label": "uint256[50]",
        "numberOfBytes": "1600"
      },
      "t_bool": {
        "encoding": "inplace",
        "label": "bool",
        "numberOfBytes": "1"
      },
      "t_bytes32": {
        "encoding": "inplace",
        "label": "bytes32",
        "numberOfBytes": "32"
      },
      "t_contract(IRouterSwapExecutor)18265": {
        "encoding": "inplace",
        "label": "contract IRouterSwapExecutor",
        "numberOfBytes": "20"
      },
      "t_mapping(t_address,t_struct(AddressSet)12158_storage)": {
        "encoding": "mapping",
        "key": "t_address",
        "label": "mapping(address => struct EnumerableSet.AddressSet)",
        "numberOfBytes": "32",
        "value": "t_struct(AddressSet)12158_storage"
      },
      "t_mapping(t_address,t_struct(MintRules)18635_storage)": {
        "encoding": "mapping",
        "key": "t_address",
        "label": "mapping(address => struct MintRules)",
        "numberOfBytes": "32",
        "value": "t_struct(MintRules)18635_storage"
      },
      "t_mapping(t_bytes32,t_uint256)": {
        "encoding": "mapping",
        "key": "t_bytes32",
        "label": "mapping(bytes32 => uint256)",
        "numberOfBytes": "32",
        "value": "t_uint256"
      },
      "t_struct(AddressSet)12158_storage": {
        "encoding": "inplace",
        "label": "struct EnumerableSet.AddressSet",
        "members": [
          {
            "astId": 12157,
            "contract": "contracts/ArrakisV2Router.sol:ArrakisV2Router",
            "label": "_inner",
            "offset": 0,
            "slot": "0",
            "type": "t_struct(Set)11857_storage"
          }
        ],
        "numberOfBytes": "64"
      },
      "t_struct(MintRules)18635_storage": {
        "encoding": "inplace",
        "label": "struct MintRules",
        "members": [
          {
            "astId": 18632,
            "contract": "contracts/ArrakisV2Router.sol:ArrakisV2Router",
            "label": "supplyCap",
            "offset": 0,
            "slot": "0",
            "type": "t_uint256"
          },
          {
            "astId": 18634,
            "contract": "contracts/ArrakisV2Router.sol:ArrakisV2Router",
            "label": "hasWhitelist",
            "offset": 0,
            "slot": "1",
            "type": "t_bool"
          }
        ],
        "numberOfBytes": "64"
      },
      "t_struct(Set)11857_storage": {
        "encoding": "inplace",
        "label": "struct EnumerableSet.Set",
        "members": [
          {
            "astId": 11852,
            "contract": "contracts/ArrakisV2Router.sol:ArrakisV2Router",
            "label": "_values",
            "offset": 0,
            "slot": "0",
            "type": "t_array(t_bytes32)dyn_storage"
          },
          {
            "astId": 11856,
            "contract": "contracts/ArrakisV2Router.sol:ArrakisV2Router",
            "label": "_indexes",
            "offset": 0,
            "slot": "1",
            "type": "t_mapping(t_bytes32,t_uint256)"
          }
        ],
        "numberOfBytes": "64"
      },
      "t_uint256": {
        "encoding": "inplace",
        "label": "uint256",
        "numberOfBytes": "32"
      },
      "t_uint8": {
        "encoding": "inplace",
        "label": "uint8",
        "numberOfBytes": "1"
      }
    }
  }
}