{
  "address": "0xd9688A1D7Fd57bD863D0338908A91e74d8833Eee",
  "abi": [
    {
      "inputs": [
        {
          "internalType": "address",
          "name": "gaugeBeacon_",
          "type": "address"
        }
      ],
      "stateMutability": "nonpayable",
      "type": "constructor"
    },
    {
      "anonymous": false,
      "inputs": [
        {
          "indexed": false,
          "internalType": "address",
          "name": "token",
          "type": "address"
        },
        {
          "indexed": false,
          "internalType": "address",
          "name": "ve",
          "type": "address"
        },
        {
          "indexed": false,
          "internalType": "address",
          "name": "veBoost",
          "type": "address"
        }
      ],
      "name": "DefaultRewardSet",
      "type": "event"
    },
    {
      "anonymous": false,
      "inputs": [
        {
          "indexed": false,
          "internalType": "address",
          "name": "deployer",
          "type": "address"
        },
        {
          "indexed": false,
          "internalType": "address",
          "name": "gauge",
          "type": "address"
        }
      ],
      "name": "GaugeCreated",
      "type": "event"
    },
    {
      "anonymous": false,
      "inputs": [
        {
          "indexed": false,
          "internalType": "address",
          "name": "owner",
          "type": "address"
        }
      ],
      "name": "InitFactory",
      "type": "event"
    },
    {
      "anonymous": false,
      "inputs": [
        {
          "indexed": false,
          "internalType": "uint8",
          "name": "version",
          "type": "uint8"
        }
      ],
      "name": "Initialized",
      "type": "event"
    },
    {
      "anonymous": false,
      "inputs": [
        {
          "indexed": true,
          "internalType": "address",
          "name": "previousOwner",
          "type": "address"
        },
        {
          "indexed": true,
          "internalType": "address",
          "name": "newOwner",
          "type": "address"
        }
      ],
      "name": "OwnershipTransferred",
      "type": "event"
    },
    {
      "inputs": [
        {
          "internalType": "contract IGauge",
          "name": "gauge_",
          "type": "address"
        },
        {
          "internalType": "address",
          "name": "token_",
          "type": "address"
        },
        {
          "internalType": "address",
          "name": "distributor_",
          "type": "address"
        }
      ],
      "name": "addGaugeReward",
      "outputs": [],
      "stateMutability": "nonpayable",
      "type": "function"
    },
    {
      "inputs": [],
      "name": "arrakisGaugeBeacon",
      "outputs": [
        {
          "internalType": "contract IArrakisV2Beacon",
          "name": "",
          "type": "address"
        }
      ],
      "stateMutability": "view",
      "type": "function"
    },
    {
      "inputs": [],
      "name": "defaultRewardToken",
      "outputs": [
        {
          "internalType": "address",
          "name": "",
          "type": "address"
        }
      ],
      "stateMutability": "view",
      "type": "function"
    },
    {
      "inputs": [
        {
          "internalType": "address",
          "name": "stakingToken_",
          "type": "address"
        },
        {
          "internalType": "address",
          "name": "rewardToken_",
          "type": "address"
        },
        {
          "internalType": "address",
          "name": "rewardDistributor_",
          "type": "address"
        }
      ],
      "name": "deployGauge",
      "outputs": [
        {
          "internalType": "address",
          "name": "gauge",
          "type": "address"
        }
      ],
      "stateMutability": "nonpayable",
      "type": "function"
    },
    {
      "inputs": [
        {
          "internalType": "uint256",
          "name": "startIndex_",
          "type": "uint256"
        },
        {
          "internalType": "uint256",
          "name": "endIndex_",
          "type": "uint256"
        }
      ],
      "name": "gauges",
      "outputs": [
        {
          "internalType": "address[]",
          "name": "",
          "type": "address[]"
        }
      ],
      "stateMutability": "view",
      "type": "function"
    },
    {
      "inputs": [
        {
          "internalType": "address",
          "name": "proxy",
          "type": "address"
        }
      ],
      "name": "getProxyAdmin",
      "outputs": [
        {
          "internalType": "address",
          "name": "",
          "type": "address"
        }
      ],
      "stateMutability": "view",
      "type": "function"
    },
    {
      "inputs": [
        {
          "internalType": "address",
          "name": "proxy",
          "type": "address"
        }
      ],
      "name": "getProxyImplementation",
      "outputs": [
        {
          "internalType": "address",
          "name": "",
          "type": "address"
        }
      ],
      "stateMutability": "view",
      "type": "function"
    },
    {
      "inputs": [
        {
          "internalType": "address",
          "name": "owner_",
          "type": "address"
        },
        {
          "internalType": "address",
          "name": "rewardToken_",
          "type": "address"
        },
        {
          "internalType": "address",
          "name": "ve_",
          "type": "address"
        },
        {
          "internalType": "address",
          "name": "veBoost_",
          "type": "address"
        }
      ],
      "name": "initialize",
      "outputs": [],
      "stateMutability": "nonpayable",
      "type": "function"
    },
    {
      "inputs": [],
      "name": "numGauges",
      "outputs": [
        {
          "internalType": "uint256",
          "name": "result",
          "type": "uint256"
        }
      ],
      "stateMutability": "view",
      "type": "function"
    },
    {
      "inputs": [],
      "name": "owner",
      "outputs": [
        {
          "internalType": "address",
          "name": "",
          "type": "address"
        }
      ],
      "stateMutability": "view",
      "type": "function"
    },
    {
      "inputs": [],
      "name": "renounceOwnership",
      "outputs": [],
      "stateMutability": "nonpayable",
      "type": "function"
    },
    {
      "inputs": [
        {
          "internalType": "address",
          "name": "rewardToken_",
          "type": "address"
        },
        {
          "internalType": "address",
          "name": "ve_",
          "type": "address"
        },
        {
          "internalType": "address",
          "name": "veBoost_",
          "type": "address"
        }
      ],
      "name": "setDefaultReward",
      "outputs": [],
      "stateMutability": "nonpayable",
      "type": "function"
    },
    {
      "inputs": [
        {
          "internalType": "contract IGauge",
          "name": "gauge_",
          "type": "address"
        },
        {
          "internalType": "address",
          "name": "token_",
          "type": "address"
        },
        {
          "internalType": "address",
          "name": "distributor_",
          "type": "address"
        }
      ],
      "name": "setGaugeRewardDistributor",
      "outputs": [],
      "stateMutability": "nonpayable",
      "type": "function"
    },
    {
      "inputs": [
        {
          "internalType": "address",
          "name": "newOwner",
          "type": "address"
        }
      ],
      "name": "transferOwnership",
      "outputs": [],
      "stateMutability": "nonpayable",
      "type": "function"
    },
    {
      "inputs": [],
      "name": "ve",
      "outputs": [
        {
          "internalType": "address",
          "name": "",
          "type": "address"
        }
      ],
      "stateMutability": "view",
      "type": "function"
    },
    {
      "inputs": [],
      "name": "veBoost",
      "outputs": [
        {
          "internalType": "address",
          "name": "",
          "type": "address"
        }
      ],
      "stateMutability": "view",
      "type": "function"
    }
  ],
  "transactionHash": "0x4ba418290f113ad6ad2fbb0603ed0399a7fc8ad6dccf80a249503c37f4472583",
  "args": [
    "0x4409d89Ab5332B6FB71b5d74d3eE94171A889041"
  ],
  "numDeployments": 1,
  "solcInputHash": "2043bc1fc6d2ff67195ec4a27a987add",
  "bytecode": "0x60a060405234801561001057600080fd5b50604051611ed9380380611ed983398101604081905261002f91610080565b806001600160a01b03811661006e5760405162461bcd60e51b81526020600482015260016024820152602d60f91b604482015260640160405180910390fd5b6001600160a01b0316608052506100b0565b60006020828403121561009257600080fd5b81516001600160a01b03811681146100a957600080fd5b9392505050565b608051611e076100d2600039600081816101c00152610faa0152611e076000f3fe60806040523480156200001157600080fd5b5060043610620001155760003560e01c80638da5cb5b11620000a3578063f2fde38b116200006e578063f2fde38b1462000257578063f3b7dead146200026e578063f8c8765e1462000285578063ff3a4ac0146200029c57600080fd5b80638da5cb5b146200020057806394efb6721462000212578063b798d4c21462000229578063de918865146200024057600080fd5b80635a1994c411620000e45780635a1994c4146200019457806363d6680214620001ba578063715018a614620001e25780638053dd2914620001ec57600080fd5b80631f850716146200011a578063204e1c7a146200014b578063260fd97014620001625780632ace6928146200017b575b600080fd5b6068546200012e906001600160a01b031681565b6040516001600160a01b0390911681526020015b60405180910390f35b6200012e6200015c366004620010c9565b620002b0565b6200016c620003a8565b60405190815260200162000142565b620001926200018c366004620010e9565b620003bb565b005b620001ab620001a53660046200113b565b6200059d565b6040516200014291906200115e565b6200012e7f000000000000000000000000000000000000000000000000000000000000000081565b620001926200075c565b6069546200012e906001600160a01b031681565b6033546001600160a01b03166200012e565b6200019262000223366004620010e9565b62000774565b620001926200023a366004620010e9565b62000893565b6200012e62000251366004620010e9565b62000920565b6200019262000268366004620010c9565b620009fb565b6200012e6200027f366004620010c9565b62000a91565b6200019262000296366004620011ad565b62000b67565b6067546200012e906001600160a01b031681565b6000806000836001600160a01b0316604051620002f0907f5c60da1b00000000000000000000000000000000000000000000000000000000815260040190565b600060405180830381855afa9150503d80600081146200032d576040519150601f19603f3d011682016040523d82523d6000602084013e62000332565b606091505b5091509150816200038a5760405162461bcd60e51b815260206004820152600260248201527f504900000000000000000000000000000000000000000000000000000000000060448201526064015b60405180910390fd5b80806020019051810190620003a0919062001212565b949350505050565b6000620003b6606562000df6565b905090565b620003c562000e01565b6000836001600160a01b031663963c94b96040518163ffffffff1660e01b8152600401602060405180830381865afa15801562000406573d6000803e3d6000fd5b505050506040513d601f19601f820116820180604052508101906200042c919062001232565b905060005b8181101562000531576040517f54c49fe9000000000000000000000000000000000000000000000000000000008152600481018290526001600160a01b0380861691908716906354c49fe990602401602060405180830381865afa1580156200049e573d6000803e3d6000fd5b505050506040513d601f19601f82011682018060405250810190620004c4919062001212565b6001600160a01b0316036200051c5760405162461bcd60e51b815260206004820152600260248201527f4145000000000000000000000000000000000000000000000000000000000000604482015260640162000381565b80620005288162001262565b91505062000431565b5060405163e8de0d4d60e01b81526001600160a01b038481166004830152838116602483015285169063e8de0d4d90604401600060405180830381600087803b1580156200057e57600080fd5b505af115801562000593573d6000803e3d6000fd5b5050505050505050565b6060818310620006165760405162461bcd60e51b815260206004820152602f60248201527f737461727420696e64657820697320657175616c206f7220677265617465722060448201527f7468616e20656e6420696e6465782e0000000000000000000000000000000000606482015260840162000381565b62000620620003a8565b821115620006975760405162461bcd60e51b815260206004820152602d60248201527f656e6420696e6465782069732067726561746572207468616e2067617567657360448201527f206172726179206c656e67746800000000000000000000000000000000000000606482015260840162000381565b6000620006a584846200127e565b67ffffffffffffffff811115620006c057620006c062001298565b604051908082528060200260200182016040528015620006ea578160200160208202803683370190505b509050835b8381101562000752576200070560658262000e5d565b826200071287846200127e565b81518110620007255762000725620012ae565b6001600160a01b039092166020928302919091019091015280620007498162001262565b915050620006ef565b5090505b92915050565b6200076662000e01565b62000772600062000e72565b565b6200077e62000e01565b6001600160a01b038316158015906200079f57506001600160a01b03821615155b8015620007b457506001600160a01b03811615155b620008025760405162461bcd60e51b815260206004820152600c60248201527f61646472657373207a65726f0000000000000000000000000000000000000000604482015260640162000381565b606780546001600160a01b0385811673ffffffffffffffffffffffffffffffffffffffff19928316811790935560688054868316908416811790915560698054928616929093168217909255604080519384526020840192909252908201527f17133fd54c4ae1852be56f6509b92b8e34fd8e02b2b40fdf98e70acf520409a59060600160405180910390a1505050565b6200089d62000e01565b6040517f058a3a240000000000000000000000000000000000000000000000000000000081526001600160a01b038381166004830152828116602483015284169063058a3a2490604401600060405180830381600087803b1580156200090257600080fd5b505af115801562000917573d6000803e3d6000fd5b50505050505050565b60006200092d8462000ed1565b90506001600160a01b03831615620009a55760405163e8de0d4d60e01b81526001600160a01b038481166004830152838116602483015282169063e8de0d4d90604401600060405180830381600087803b1580156200098b57600080fd5b505af1158015620009a0573d6000803e3d6000fd5b505050505b620009b26065826200100f565b50604080513381526001600160a01b03831660208201527fbc0aff029cf899fe358381e295caa21dd2e8c1a6607e2b9e6c7ec915db15bd53910160405180910390a19392505050565b62000a0562000e01565b6001600160a01b03811662000a835760405162461bcd60e51b815260206004820152602660248201527f4f776e61626c653a206e6577206f776e657220697320746865207a65726f206160448201527f6464726573730000000000000000000000000000000000000000000000000000606482015260840162000381565b62000a8e8162000e72565b50565b6000806000836001600160a01b031660405162000ad1907ff851a44000000000000000000000000000000000000000000000000000000000815260040190565b600060405180830381855afa9150503d806000811462000b0e576040519150601f19603f3d011682016040523d82523d6000602084013e62000b13565b606091505b5091509150816200038a5760405162461bcd60e51b815260206004820152600260248201527f5041000000000000000000000000000000000000000000000000000000000000604482015260640162000381565b600054610100900460ff161580801562000b885750600054600160ff909116105b8062000ba45750303b15801562000ba4575060005460ff166001145b62000c185760405162461bcd60e51b815260206004820152602e60248201527f496e697469616c697a61626c653a20636f6e747261637420697320616c72656160448201527f647920696e697469616c697a6564000000000000000000000000000000000000606482015260840162000381565b6000805460ff19166001179055801562000c3c576000805461ff0019166101001790555b6001600160a01b0385161580159062000c5d57506001600160a01b03841615155b801562000c7257506001600160a01b03831615155b801562000c8757506001600160a01b03821615155b62000cd55760405162461bcd60e51b815260206004820152600c60248201527f61646472657373207a65726f0000000000000000000000000000000000000000604482015260640162000381565b62000ce08562000e72565b606780546001600160a01b0386811673ffffffffffffffffffffffffffffffffffffffff19928316811790935560688054878316908416811790915560698054928716929093168217909255604080519384526020840192909252908201527f17133fd54c4ae1852be56f6509b92b8e34fd8e02b2b40fdf98e70acf520409a59060600160405180910390a16040516001600160a01b03861681527f6d4391b481e741f75506c7b1504309dd70c7eff29c463eae4bff33d733b0a9e29060200160405180910390a1801562000def576000805461ff0019169055604051600181527f7f26b83ff96e1f2b6a682f133852f6798a09c465da95921460cefb38474024989060200160405180910390a15b5050505050565b600062000756825490565b6033546001600160a01b03163314620007725760405162461bcd60e51b815260206004820181905260248201527f4f776e61626c653a2063616c6c6572206973206e6f7420746865206f776e6572604482015260640162000381565b600062000e6b838362001026565b9392505050565b603380546001600160a01b0383811673ffffffffffffffffffffffffffffffffffffffff19831681179093556040519116919082907f8be0079c531659141344cd1fd0a4f28419497f9722a3daafe3b4186f6b6457e090600090a35050565b606754606854606954603354604080516001600160a01b0380881660248301523060448301529586166064820152938516608485015291841660a48401529290921660c4808301919091528251808303909101815260e49091018252602080820180517bffffffffffffffffffffffffffffffffffffffffffffffffffffffff167fcc2a9a5b000000000000000000000000000000000000000000000000000000001790529151600092839162000f8f9132914391869101620012f7565b604051602081830303815290604052805190602001209050807f00000000000000000000000000000000000000000000000000000000000000008360405162000fd890620010a5565b62000fe59291906200134b565b8190604051809103906000f590508015801562001006573d6000803e3d6000fd5b50949350505050565b600062000e6b836001600160a01b03841662001053565b6000826000018281548110620010405762001040620012ae565b9060005260206000200154905092915050565b60008181526001830160205260408120546200109c5750815460018181018455600084815260208082209093018490558454848252828601909352604090209190915562000756565b50600062000756565b610a41806200139183390190565b6001600160a01b038116811462000a8e57600080fd5b600060208284031215620010dc57600080fd5b813562000e6b81620010b3565b600080600060608486031215620010ff57600080fd5b83356200110c81620010b3565b925060208401356200111e81620010b3565b915060408401356200113081620010b3565b809150509250925092565b600080604083850312156200114f57600080fd5b50508035926020909101359150565b6020808252825182820181905260009190848201906040850190845b81811015620011a15783516001600160a01b0316835292840192918401916001016200117a565b50909695505050505050565b60008060008060808587031215620011c457600080fd5b8435620011d181620010b3565b93506020850135620011e381620010b3565b92506040850135620011f581620010b3565b915060608501356200120781620010b3565b939692955090935050565b6000602082840312156200122557600080fd5b815162000e6b81620010b3565b6000602082840312156200124557600080fd5b5051919050565b634e487b7160e01b600052601160045260246000fd5b6000600182016200127757620012776200124c565b5060010190565b6000828210156200129357620012936200124c565b500390565b634e487b7160e01b600052604160045260246000fd5b634e487b7160e01b600052603260045260246000fd5b60005b83811015620012e1578181015183820152602001620012c7565b83811115620012f1576000848401525b50505050565b7fffffffffffffffffffffffffffffffffffffffff0000000000000000000000008460601b168152826014820152600082516200133c816034850160208701620012c4565b91909101603401949350505050565b6001600160a01b038316815260406020820152600082518060408401526200137b816060850160208701620012c4565b601f01601f191691909101606001939250505056fe608060405260405162000a4138038062000a418339810160408190526200002691620004c6565b6200005360017fa3f0ad74e5423aebfd80d3ef4346578335a9a72aeaee59ff6cb3582b35133d5162000594565b600080516020620009fa83398151915214620000735762000073620005ba565b620000818282600062000089565b505062000641565b62000094836200015e565b6040516001600160a01b038416907f1cf3b03a6cf19fa2baba4df148e9dcabedea7f8a5c07840e207e5c089be95d3e90600090a2600082511180620000d65750805b15620001595762000157836001600160a01b0316635c60da1b6040518163ffffffff1660e01b8152600401602060405180830381865afa1580156200011f573d6000803e3d6000fd5b505050506040513d601f19601f82011682018060405250810190620001459190620005d0565b83620002ff60201b620000291760201c565b505b505050565b62000174816200032e60201b620000551760201c565b620001d45760405162461bcd60e51b815260206004820152602560248201527f455243313936373a206e657720626561636f6e206973206e6f74206120636f6e6044820152641d1c9858dd60da1b60648201526084015b60405180910390fd5b6200024e816001600160a01b0316635c60da1b6040518163ffffffff1660e01b8152600401602060405180830381865afa15801562000217573d6000803e3d6000fd5b505050506040513d601f19601f820116820180604052508101906200023d9190620005d0565b6200032e60201b620000551760201c565b620002b55760405162461bcd60e51b815260206004820152603060248201527f455243313936373a20626561636f6e20696d706c656d656e746174696f6e206960448201526f1cc81b9bdd08184818dbdb9d1c9858dd60821b6064820152608401620001cb565b80620002de600080516020620009fa83398151915260001b6200033d60201b620000711760201c565b80546001600160a01b0319166001600160a01b039290921691909117905550565b606062000327838360405180606001604052806027815260200162000a1a6027913962000340565b9392505050565b6001600160a01b03163b151590565b90565b60606001600160a01b0384163b620003aa5760405162461bcd60e51b815260206004820152602660248201527f416464726573733a2064656c65676174652063616c6c20746f206e6f6e2d636f6044820152651b9d1c9858dd60d21b6064820152608401620001cb565b600080856001600160a01b031685604051620003c79190620005ee565b600060405180830381855af49150503d806000811462000404576040519150601f19603f3d011682016040523d82523d6000602084013e62000409565b606091505b5090925090506200041c82828662000426565b9695505050505050565b606083156200043757508162000327565b825115620004485782518084602001fd5b8160405162461bcd60e51b8152600401620001cb91906200060c565b80516001600160a01b03811681146200047c57600080fd5b919050565b634e487b7160e01b600052604160045260246000fd5b60005b83811015620004b45781810151838201526020016200049a565b83811115620001575750506000910152565b60008060408385031215620004da57600080fd5b620004e58362000464565b60208401519092506001600160401b03808211156200050357600080fd5b818501915085601f8301126200051857600080fd5b8151818111156200052d576200052d62000481565b604051601f8201601f19908116603f0116810190838211818310171562000558576200055862000481565b816040528281528860208487010111156200057257600080fd5b6200058583602083016020880162000497565b80955050505050509250929050565b600082821015620005b557634e487b7160e01b600052601160045260246000fd5b500390565b634e487b7160e01b600052600160045260246000fd5b600060208284031215620005e357600080fd5b620003278262000464565b600082516200060281846020870162000497565b9190910192915050565b60208152600082518060208401526200062d81604085016020870162000497565b601f01601f19169190910160400192915050565b6103a980620006516000396000f3fe60806040523661001357610011610017565b005b6100115b610027610022610074565b610127565b565b606061004e838360405180606001604052806027815260200161034d6027913961014b565b9392505050565b73ffffffffffffffffffffffffffffffffffffffff163b151590565b90565b60006100b47fa3f0ad74e5423aebfd80d3ef4346578335a9a72aeaee59ff6cb3582b35133d505473ffffffffffffffffffffffffffffffffffffffff1690565b73ffffffffffffffffffffffffffffffffffffffff16635c60da1b6040518163ffffffff1660e01b8152600401602060405180830381865afa1580156100fe573d6000803e3d6000fd5b505050506040513d601f19601f820116820180604052508101906101229190610297565b905090565b3660008037600080366000845af43d6000803e808015610146573d6000f35b3d6000fd5b606073ffffffffffffffffffffffffffffffffffffffff84163b6101dc5760405162461bcd60e51b815260206004820152602660248201527f416464726573733a2064656c65676174652063616c6c20746f206e6f6e2d636f60448201527f6e7472616374000000000000000000000000000000000000000000000000000060648201526084015b60405180910390fd5b6000808573ffffffffffffffffffffffffffffffffffffffff168560405161020491906102fd565b600060405180830381855af49150503d806000811461023f576040519150601f19603f3d011682016040523d82523d6000602084013e610244565b606091505b509150915061025482828661025e565b9695505050505050565b6060831561026d57508161004e565b82511561027d5782518084602001fd5b8160405162461bcd60e51b81526004016101d39190610319565b6000602082840312156102a957600080fd5b815173ffffffffffffffffffffffffffffffffffffffff8116811461004e57600080fd5b60005b838110156102e85781810151838201526020016102d0565b838111156102f7576000848401525b50505050565b6000825161030f8184602087016102cd565b9190910192915050565b60208152600082518060208401526103388160408501602087016102cd565b601f01601f1916919091016040019291505056fe416464726573733a206c6f772d6c6576656c2064656c65676174652063616c6c206661696c6564a264697066735822122014fdb2ea4cc20ce4d1b0d4f0a8c9f9a4b253a2a0c5e2c80db7029cffdebd508964736f6c634300080d0033a3f0ad74e5423aebfd80d3ef4346578335a9a72aeaee59ff6cb3582b35133d50416464726573733a206c6f772d6c6576656c2064656c65676174652063616c6c206661696c6564a26469706673582212206c87c0e9806f08ce5df9d32a2c66b34633ee9445b9ecc96e48e275bb65c0479764736f6c634300080d0033",
  "devdoc": {
    "kind": "dev",
    "methods": {
      "addGaugeReward(address,address,address)": {
        "params": {
          "distributor_": "address of distributor of token_ to gauge",
          "gauge_": "address of Gauge to add reward to",
          "token_": "address of reward token"
        }
      },
      "deployGauge(address,address,address)": {
        "params": {
          "rewardDistributor_": "address that distributes rewardToken_ rewards",
          "rewardToken_": "ERC20 token address, reward token for stakers (skip with address(0))",
          "stakingToken_": "ERC20 token address, stake to potentially earn rewards"
        },
        "returns": {
          "gauge": "the address of the LiquidityGaugeV4 instance created."
        }
      },
      "gauges(uint256,uint256)": {
        "params": {
          "endIndex_": "end index",
          "startIndex_": "start index"
        },
        "returns": {
          "_0": "list of all created gauges."
        }
      },
      "getProxyAdmin(address)": {
        "params": {
          "proxy": "instance of Arrakis V2."
        },
        "returns": {
          "_0": "admin address of Arrakis V2 instance admin."
        }
      },
      "getProxyImplementation(address)": {
        "params": {
          "proxy": "instance of Arrakis V2."
        },
        "returns": {
          "_0": "implementation address of Arrakis V2 implementation."
        }
      },
      "numGauges()": {
        "returns": {
          "result": "total number of gauges deployed"
        }
      },
      "owner()": {
        "details": "Returns the address of the current owner."
      },
      "renounceOwnership()": {
        "details": "Leaves the contract without owner. It will not be possible to call `onlyOwner` functions anymore. Can only be called by the current owner. NOTE: Renouncing ownership will leave the contract without an owner, thereby removing any functionality that is only available to the owner."
      },
      "setGaugeRewardDistributor(address,address,address)": {
        "params": {
          "distributor_": "address of new reward distributor",
          "gauge_": "address of Gauge to set distributor of",
          "token_": "address of reward token to set distributor of"
        }
      },
      "transferOwnership(address)": {
        "details": "Transfers ownership of the contract to a new account (`newOwner`). Can only be called by the current owner."
      }
    },
    "title": "ArrakisV2GaugeFactory factory for creating LiquidityGaugeV4 instances",
    "version": 1
  },
  "userdoc": {
    "kind": "user",
    "methods": {
      "addGaugeReward(address,address,address)": {
        "notice": "add reward token to a gaugeonly owner can call"
      },
      "deployGauge(address,address,address)": {
        "notice": "Deploys an instance of LiquidityGaugeV4 using BeaconProxy"
      },
      "gauges(uint256,uint256)": {
        "notice": "get a list of vaults created by this factory"
      },
      "getProxyAdmin(address)": {
        "notice": "get gauge instance admin"
      },
      "getProxyImplementation(address)": {
        "notice": "get gauge implementation"
      },
      "numGauges()": {
        "notice": "numGauges counts the total number of gauges in existence"
      },
      "setGaugeRewardDistributor(address,address,address)": {
        "notice": "set reward distributor of a Gauge reward tokenonly owner can call"
      }
    },
    "version": 1
  },
  "storageLayout": {
    "storage": [
      {
        "astId": 7891,
        "contract": "contracts/ArrakisV2GaugeFactory.sol:ArrakisV2GaugeFactory",
        "label": "_initialized",
        "offset": 0,
        "slot": "0",
        "type": "t_uint8"
      },
      {
        "astId": 7894,
        "contract": "contracts/ArrakisV2GaugeFactory.sol:ArrakisV2GaugeFactory",
        "label": "_initializing",
        "offset": 1,
        "slot": "0",
        "type": "t_bool"
      },
      {
        "astId": 9293,
        "contract": "contracts/ArrakisV2GaugeFactory.sol:ArrakisV2GaugeFactory",
        "label": "__gap",
        "offset": 0,
        "slot": "1",
        "type": "t_array(t_uint256)50_storage"
      },
      {
        "astId": 7763,
        "contract": "contracts/ArrakisV2GaugeFactory.sol:ArrakisV2GaugeFactory",
        "label": "_owner",
        "offset": 0,
        "slot": "51",
        "type": "t_address"
      },
      {
        "astId": 7883,
        "contract": "contracts/ArrakisV2GaugeFactory.sol:ArrakisV2GaugeFactory",
        "label": "__gap",
        "offset": 0,
        "slot": "52",
        "type": "t_array(t_uint256)49_storage"
      },
      {
        "astId": 17140,
        "contract": "contracts/ArrakisV2GaugeFactory.sol:ArrakisV2GaugeFactory",
        "label": "_gauges",
        "offset": 0,
        "slot": "101",
        "type": "t_struct(AddressSet)12158_storage"
      },
      {
        "astId": 17142,
        "contract": "contracts/ArrakisV2GaugeFactory.sol:ArrakisV2GaugeFactory",
        "label": "defaultRewardToken",
        "offset": 0,
        "slot": "103",
        "type": "t_address"
      },
      {
        "astId": 17144,
        "contract": "contracts/ArrakisV2GaugeFactory.sol:ArrakisV2GaugeFactory",
        "label": "ve",
        "offset": 0,
        "slot": "104",
        "type": "t_address"
      },
      {
        "astId": 17146,
        "contract": "contracts/ArrakisV2GaugeFactory.sol:ArrakisV2GaugeFactory",
        "label": "veBoost",
        "offset": 0,
        "slot": "105",
        "type": "t_address"
      }
    ],
    "types": {
      "t_address": {
        "encoding": "inplace",
        "label": "address",
        "numberOfBytes": "20"
      },
      "t_array(t_bytes32)dyn_storage": {
        "base": "t_bytes32",
        "encoding": "dynamic_array",
        "label": "bytes32[]",
        "numberOfBytes": "32"
      },
      "t_array(t_uint256)49_storage": {
        "base": "t_uint256",
        "encoding": "inplace",
        "label": "uint256[49]",
        "numberOfBytes": "1568"
      },
      "t_array(t_uint256)50_storage": {
        "base": "t_uint256",
        "encoding": "inplace",
        "label": "uint256[50]",
        "numberOfBytes": "1600"
      },
      "t_bool": {
        "encoding": "inplace",
        "label": "bool",
        "numberOfBytes": "1"
      },
      "t_bytes32": {
        "encoding": "inplace",
        "label": "bytes32",
        "numberOfBytes": "32"
      },
      "t_mapping(t_bytes32,t_uint256)": {
        "encoding": "mapping",
        "key": "t_bytes32",
        "label": "mapping(bytes32 => uint256)",
        "numberOfBytes": "32",
        "value": "t_uint256"
      },
      "t_struct(AddressSet)12158_storage": {
        "encoding": "inplace",
        "label": "struct EnumerableSet.AddressSet",
        "members": [
          {
            "astId": 12157,
            "contract": "contracts/ArrakisV2GaugeFactory.sol:ArrakisV2GaugeFactory",
            "label": "_inner",
            "offset": 0,
            "slot": "0",
            "type": "t_struct(Set)11857_storage"
          }
        ],
        "numberOfBytes": "64"
      },
      "t_struct(Set)11857_storage": {
        "encoding": "inplace",
        "label": "struct EnumerableSet.Set",
        "members": [
          {
            "astId": 11852,
            "contract": "contracts/ArrakisV2GaugeFactory.sol:ArrakisV2GaugeFactory",
            "label": "_values",
            "offset": 0,
            "slot": "0",
            "type": "t_array(t_bytes32)dyn_storage"
          },
          {
            "astId": 11856,
            "contract": "contracts/ArrakisV2GaugeFactory.sol:ArrakisV2GaugeFactory",
            "label": "_indexes",
            "offset": 0,
            "slot": "1",
            "type": "t_mapping(t_bytes32,t_uint256)"
          }
        ],
        "numberOfBytes": "64"
      },
      "t_uint256": {
        "encoding": "inplace",
        "label": "uint256",
        "numberOfBytes": "32"
      },
      "t_uint8": {
        "encoding": "inplace",
        "label": "uint8",
        "numberOfBytes": "1"
      }
    }
  }
}