{
  "address": "0x1D0c4451311A70379c59A00830E816F4cf5C6916",
  "abi": [
    {
      "inputs": [
        {
          "internalType": "contract IArrakisV2Helper",
          "name": "helper_",
          "type": "address"
        },
        {
          "internalType": "contract IArrakisV2Resolver",
          "name": "resolver_",
          "type": "address"
        }
      ],
      "stateMutability": "nonpayable",
      "type": "constructor"
    },
    {
      "inputs": [
        {
          "internalType": "contract IArrakisV2",
          "name": "vault",
          "type": "address"
        },
        {
          "internalType": "uint256",
          "name": "amount0In",
          "type": "uint256"
        },
        {
          "internalType": "uint256",
          "name": "amount1In",
          "type": "uint256"
        },
        {
          "internalType": "uint256",
          "name": "price18Decimals",
          "type": "uint256"
        }
      ],
      "name": "calculateSwapAmount",
      "outputs": [
        {
          "internalType": "bool",
          "name": "zeroForOne",
          "type": "bool"
        },
        {
          "internalType": "uint256",
          "name": "swapAmount",
          "type": "uint256"
        }
      ],
      "stateMutability": "view",
      "type": "function"
    },
    {
      "inputs": [],
      "name": "helper",
      "outputs": [
        {
          "internalType": "contract IArrakisV2Helper",
          "name": "",
          "type": "address"
        }
      ],
      "stateMutability": "view",
      "type": "function"
    },
    {
      "inputs": [],
      "name": "resolver",
      "outputs": [
        {
          "internalType": "contract IArrakisV2Resolver",
          "name": "",
          "type": "address"
        }
      ],
      "stateMutability": "view",
      "type": "function"
    }
  ],
  "transactionHash": "0xa8905fd4f2c29aa81c14e172bcb0232936028631ba02a6196b168cc55268a6b9",
  "args": [
    "0x07d2CeB4869DFE17e8D48c92A71eDC3AE564449f",
    "0xb11bb8ad710579Cc5ED16b1C8587808109c1f193"
  ],
  "numDeployments": 1,
  "solcInputHash": "2043bc1fc6d2ff67195ec4a27a987add",
  "bytecode": "0x60c060405234801561001057600080fd5b50604051610afa380380610afa83398101604081905261002f916100b2565b6001600160a01b0382161580159061004f57506001600160a01b03811615155b6100835760405162461bcd60e51b81526020600482015260016024820152602d60f91b604482015260640160405180910390fd5b6001600160a01b039182166080521660a0526100ec565b6001600160a01b03811681146100af57600080fd5b50565b600080604083850312156100c557600080fd5b82516100d08161009a565b60208401519092506100e18161009a565b809150509250929050565b60805160a0516109dd61011d60003960008181604b015261017d015260008181608f015261050901526109dd6000f3fe608060405234801561001057600080fd5b50600436106100415760003560e01c806304f3bcec1461004657806363b0e66a1461008a5780636bb24549146100b1575b600080fd5b61006d7f000000000000000000000000000000000000000000000000000000000000000081565b6040516001600160a01b0390911681526020015b60405180910390f35b61006d7f000000000000000000000000000000000000000000000000000000000000000081565b6100c46100bf366004610723565b6100db565b604080519215158352602083019190915201610081565b6000806000806100ea886104cc565b9150915080600003610104576000869350935050506104c3565b8160000361011a576001879350935050506104c3565b60008060008911801561012d5750600088115b1561020d576040517ffa111ce70000000000000000000000000000000000000000000000000000000081526001600160a01b038b81166004830152602482018b9052604482018a905260009182917f0000000000000000000000000000000000000000000000000000000000000000169063fa111ce790606401606060405180830381865afa1580156101c4573d6000803e3d6000fd5b505050506040513d601f19601f820116820180604052508101906101e8919061075e565b5090925090506101f8828c6107a2565b9350610204818b6107a2565b92505050610213565b50879050865b60008a6001600160a01b0316630dfe16816040518163ffffffff1660e01b8152600401602060405180830381865afa158015610253573d6000803e3d6000fd5b505050506040513d601f19601f8201168201806040525081019061027791906107b9565b6001600160a01b031663313ce5676040518163ffffffff1660e01b8152600401602060405180830381865afa1580156102b4573d6000803e3d6000fd5b505050506040513d601f19601f820116820180604052508101906102d891906107d6565b6102e39060126107f9565b6102ee90600a610902565b905060008b6001600160a01b031663d21220a76040518163ffffffff1660e01b8152600401602060405180830381865afa158015610330573d6000803e3d6000fd5b505050506040513d601f19601f8201168201806040525081019061035491906107b9565b6001600160a01b031663313ce5676040518163ffffffff1660e01b8152600401602060405180830381865afa158015610391573d6000803e3d6000fd5b505050506040513d601f19601f820116820180604052508101906103b591906107d6565b6103c09060126107f9565b6103cb90600a610902565b905060006103f46103dc8489610911565b670de0b6b3a76400006103ef858a610911565b610657565b9050600061040b828c670de0b6b3a7640000610657565b9050600061042682670de0b6b3a76400006103ef8282610930565b90506000670de0b6b3a76400008d61043e888b610911565b6104489190610911565b6104529190610948565b905060006104608689610911565b9050808211156104995760019c506104928961048485670de0b6b3a76400006107a2565b670de0b6b3a7640000610657565b9b506104b7565b808210156104b7576104b48884670de0b6b3a7640000610657565b9b505b50505050505050505050505b94509492505050565b6040517f6ea08e2a0000000000000000000000000000000000000000000000000000000081526001600160a01b03828116600483015260009182917f00000000000000000000000000000000000000000000000000000000000000001690636ea08e2a906024016040805180830381865afa15801561054f573d6000803e3d6000fd5b505050506040513d601f19601f82011682018060405250810190610573919061096a565b909250905081158015610584575080155b1561065257826001600160a01b03166314b806306040518163ffffffff1660e01b8152600401602060405180830381865afa1580156105c7573d6000803e3d6000fd5b505050506040513d601f19601f820116820180604052508101906105eb919061098e565b9150826001600160a01b031663f2eb3e346040518163ffffffff1660e01b8152600401602060405180830381865afa15801561062b573d6000803e3d6000fd5b505050506040513d601f19601f8201168201806040525081019061064f919061098e565b90505b915091565b6000808060001985870985870292508281108382030391505080600003610690576000841161068557600080fd5b508290049050610704565b80841161069c57600080fd5b600084868809851960019081018716968790049682860381900495909211909303600082900391909104909201919091029190911760038402600290811880860282030280860282030280860282030280860282030280860282030280860290910302029150505b9392505050565b6001600160a01b038116811461072057600080fd5b50565b6000806000806080858703121561073957600080fd5b84356107448161070b565b966020860135965060408601359560600135945092505050565b60008060006060848603121561077357600080fd5b8351925060208401519150604084015190509250925092565b634e487b7160e01b600052601160045260246000fd5b6000828210156107b4576107b461078c565b500390565b6000602082840312156107cb57600080fd5b81516107048161070b565b6000602082840312156107e857600080fd5b815160ff8116811461070457600080fd5b600060ff821660ff8416808210156108135761081361078c565b90039392505050565b600181815b8085111561085757816000190482111561083d5761083d61078c565b8085161561084a57918102915b93841c9390800290610821565b509250929050565b60008261086e575060016108fc565b8161087b575060006108fc565b8160018114610891576002811461089b576108b7565b60019150506108fc565b60ff8411156108ac576108ac61078c565b50506001821b6108fc565b5060208310610133831016604e8410600b84101617156108da575081810a6108fc565b6108e4838361081c565b80600019048211156108f8576108f861078c565b0290505b92915050565b600061070460ff84168361085f565b600081600019048311821515161561092b5761092b61078c565b500290565b600082198211156109435761094361078c565b500190565b60008261096557634e487b7160e01b600052601260045260246000fd5b500490565b6000806040838503121561097d57600080fd5b505080516020909101519092909150565b6000602082840312156109a057600080fd5b505191905056fea26469706673582212204d739c1e83f68c410c57a667ce6042fd1c5a9f359394064e254811615d9a668164736f6c634300080d0033",
  "devdoc": {
    "kind": "dev",
    "methods": {},
    "version": 1
  },
  "userdoc": {
    "kind": "user",
    "methods": {},
    "version": 1
  },
  "storageLayout": {
    "storage": [],
    "types": null
  }
}